:020000040000FA
:1000000020170020F9000000010100005902000043
:1000100005010000070100000901000000000000C8
:10002000000000000000000000000000DD020000F1
:100030000D010000000000004B010000B521000090
:100040001301000013010000130100001301000060
:1000500013010000090A0000130100001301000051
:10006000D525000039090000B92500001301000062
:100070001301000013010000130100001301000030
:100080001301000013010000130100001301000020
:100090001301000013010000130100001301000010
:1000A000130100001301000013010000812500006E
:1000B0009D25000013010000130100001301000042
:1000C00013010000130100001301000013010000E0
:1000D00013010000130100001301000013010000D0
:1000E00013010000DFF80CD000F00AFA00480047C6
:1000F00035060000201700200648804706480047C4
:10010000FEE7FEE7FEE7FEE7FEE7FEE7FEE7FEE7C7
:10011000FEE7FEE731240000E5000000EFF3108069
:1001200072B6704780F3108870475D4A1368012BE0
:1001300004D04FF0010313605A4A10605A4A11600C
:100140005A484FF0805101607047EFF3108272B649
:1001500053480168002902D182F31088704704B423
:100160004FF0000101604F48016859B350490968D8
:10017000A1B103B5084609F009FEBDE80340724687
:1001800012F0400F0AD0EFF30B83EFF31484EFF378
:10019000098525E91E000068056013E0EFF3098179
:1001A0001EF0100F08BF21ED108B21E9F00F404A1F
:1001B00012687346EFF30B84EFF3148521E93C00DA
:1001C000006801603849096809683CC984F30B88F4
:1001D00085F314889E46364E3260104640B10AB40C
:1001E00009F0D2FD0ABC9E4613F0400F00D006E095
:1001F000B1E8F00F1EF0100F08BFB1EC108B81F3C7
:10020000098804BC82F31088704727490860EFF31F
:10021000148222F0040282F3148822494FF0000075
:1002200008601F494FF00100086022482249D0F8B9
:10023000002041EA020101601C484FF0805101603A
:100240001E480068006880F3088861B662B6BFF394
:100250004F8FBFF36F8F7047EFF308801EF0040FCE
:1002600001D0EFF3098020E9F00F114A12687346BC
:10027000EFF30B84EFF3148520E93C0040F804ED24
:100280001EF0040F02D080F3098801E080F3088893
:1002900000B506F007F85DF804EB4EF0040E704769
:1002A0006C0B0020A8080020B408002004ED00E03A
:1002B000840B002020ED00E00000FFFF08ED00E0CF
:1002C00001DF704712B50C460FCC24E90F0007F090
:1002D000D5FBBDE81240086070477047EFF3088116
:1002E0001EF0040F01D0EFF30981886910F8020CA9
:1002F0000028F2D00128E5D02DE9F05F0546002066
:1003000092469B4688460646814640241BE0284686
:1003100041464746224600F0AAF853465A46C01ABC
:10032000914110D311461846224600F091F82D1A3B
:1003300067EB01084F4622460120002100F088F8B3
:1003400017EB00094E41201EA4F10104DFDC4846F2
:1003500031462A464346BDE8F09F000000487047FA
:1003600068A70000A0F16101192900D82038704762
:10037000D2B201E000F8012B491EFBD270470022E7
:10038000F6E710B513460A4604461946FFF7F0FF94
:10039000204610BD10B5044604E00B7800F8013B80
:1003A00003B1491C521EF8D2204610BD421C10F861
:1003B000011B0029FBD1801A704710B5002200E014
:1003C000521C835C8C5CA34201D1002BF8D1D8B2C3
:1003D000E1B2401A10BD30B504460020034600E0EB
:1003E0005B1C934203D2E05CCD5C401BF8D030BD77
:1003F00010B5044600E0401C0378002BFBD100E060
:10040000401C521E04D311F8013B0370002BF7D19E
:1004100000210170204610BD30B50546002003467E
:1004200000E05B1C934205D2EC5CC85C201A01D151
:10043000002CF6D130BD70B5064609F0FBFE04680D
:1004400005460A220021304600F021F82C6070BDDC
:10045000202A04DB203A00FA02F100207047914084
:10046000C2F1200320FA03F3194390407047202A79
:1004700004DB203A21FA02F00021704721FA02F34E
:10048000D040C2F1200291400843194670472DE93F
:10049000F04791460F4680460446002614F8015B5B
:1004A0002DB1FFF75BFF0068405DC007F6D12B2D33
:1004B00002D02D2D18D0641E4A463946204600F041
:1004C00031F827B13968A14201D1C7F80080710520
:1004D0004FF002040BD54042002803DD09F0AAFECC
:1004E0000460A007BDE8F08746F48066E4E70028D2
:1004F000F8DA09F09FFE04606FF00040F2E70000B8
:10050000064C074D06E0E06840F0010394E8070060
:1005100098471034AC42F6D3FFF7E8FDF4C400006E
:1005200014C500002DE9F05F8246007800271546CB
:100530008B460AF10104B946302801D09DB113E081
:1005400014F8010B0127782803D0582801D045B1B1
:100550000AE00DB1102D07D10027102514F8010B6A
:1005600002E0082500E00A250026B0460EE005FB63
:10057000080005FB06F1012701EB10461FFA80F881
:10058000B6F5803F00D3B94614F8010B294600F0B8
:1005900018F80028EBDABBF1000F05D00FB1641E8C
:1005A00000E05446CBF80040B9F1000F06D009F046
:1005B00041FE02210160C81EBDE8F09F48EA0640E6
:1005C000FAE73A2800D2303820F02002412A01D33D
:1005D000A2F13700884201D34FF0FF30704770B569
:1005E0008C1810F8015B15F0070301D110F8013BDE
:1005F0002A1106D110F8012B03E010F8016B01F865
:10060000016B5B1EF9D12B0705D40023521E0DD4BC
:1006100001F8013BFAE710F8013BCB1A921C03E00A
:1006200013F8015B01F8015B521EF9D5A142D8D342
:10063000002070BD80B509F03FFD002080BD0000A6
:1006400040F20046C4F20106306840F2344740F000
:100650000400C2F2000700240FF27C0828A53060D5
:100660003C7016E0012001F09DF800F0DF01012050
:1006700001F09CF801F03EF90120B02101F096F85C
:10068000306840F0040030603C704FF4FA7002F0C3
:100690005DFF387890B1306820F00400306001F0E0
:1006A000FBF802280DD00128DCD00028E8D128462C
:1006B00009F0B0FD01F01EF906E000BF00F030F8CF
:1006C000E3E7404609F0A6FD01F0A0FB01F03CFA8B
:1006D00001F070F8D4E700BF0D0A41434454494D7E
:1006E00045525F4952513A5265636F6E666967754C
:1006F000726520746865207265676973746572003D
:100700000D0A4F7468657220495251204F6363751A
:100710007200000080B501F017FA01F04BF880BDBF
:1007200045A009F0CDFF00F035FD00285DD047A0C1
:1007300009F070FD00F036FD800744BF4BA009F0C2
:10074000BFFF00F02FFD400744BF50A009F0B8FFE5
:1007500000F028FD000705D54CF21730C0F200006C
:1007600009F0AEFF00F01EFDC00605D54CF2353095
:10077000C0F2000009F0A4FF00F014FD800605D5CA
:100780004CF25330C0F2000009F09AFF00F00AFD6D
:10079000400605D54CF27130C0F2000009F090FF20
:1007A00000F000FD400544BF40A009F089FF00F0C3
:1007B000F9FC000505D54CF2DA30C0F2000009F072
:1007C0007FFF00F0EFFCC00405D54CF28F30C0F283
:1007D000000009F075FF00F0E5FC800405D54CF23F
:1007E000F830C0F2000009F06BFF41F2883001F0F0
:1007F0002BFE40F258400421C2F2000000220523E3
:1008000080E80E0000F076FC4CF2AC30C0F2000044
:1008100009F056FF00F0CEFF012001F015FE4FF465
:100820008020012100F0C4FC4CF2C534C0F2000469
:10083000204609F045FFFBE74D4355205374616E98
:100840006462792054657374200D00004D43552077
:10085000456E7465726564205374616E64627920BC
:100860004D6F646520202020200000004D4355205E
:1008700057616B65757020736F75726365202D2DE0
:100880003E20574B555031200D0000004D43552060
:1008900057616B65757020736F75726365202D2DC0
:1008A0003E20574B555032200D0000004D4355203F
:1008B00057616B65757020736F75726365202D2DA0
:1008C0003E20525443200D0070B5064605201446C4
:1008D0000D4600F067FF00F0FB01052000F066FF09
:1008E0000120002100F062FF0A2000F05BFF40F0D1
:1008F00080010A2000F05AFF3DB1013E16F8011FA9
:10090000092000F053FF013DF8D10120032100F040
:100910004DFFFF25052000F045FF013D290602D0CF
:1009200010F00400F6D0222000F03CFF20702120BF
:1009300000F038FF607070BD2DE9F04141F208050C
:10094000C4F2020506F012F940F690310020C2F21E
:10095000000101220C18EF68A36CDE68F668F7400E
:10096000FF070ED1EF681B69DB6802FA03F33B4215
:1009700042D1E430B0F5647FECD106F01BF9BDE85C
:10098000F081D4F8DC80FFF7C9FB274637F8D91F80
:10099000BA7857F8993C41EA02411A6857F8913CF5
:1009A000D268C1F38F016FF31F328E1ADA6800210B
:1009B00047F8651CD16801222B6802FA01F119433E
:1009C0002960FFF7AFFB2EB1310204F1A40003311F
:1009D00005F056FEB8783988D8F8003041EA004072
:1009E000B8F80410C0F38F021944204600F062FDED
:1009F00006F0E0F8BDE8F08128681843286006F0AA
:100A0000D9F8BDE8F0810000B0B540F21445C4F259
:100A1000010506F0ABF840F2B400C2F2000040F26B
:100A2000741204300021C2F2000200BF2C68535A35
:100A30001C4208D11431B1F5A07F00F10C00F5D1B2
:100A400006F0B8F8B0BD2B6001680029F8D0406806
:100A5000884706F0AFF8B0BDB0B5044600684EF662
:100A60000071CBF6FD7108444FEA7010072839D8A1
:100A7000A068002818BFB0F5805F2CD1E06832284C
:100A800030D8A069002818BFB0F5002F27D1E06941
:100A90000125002818BFB0F5800F25D11A2001F0DC
:100AA0004FFD4EF20010CEF200004FF40071C0F87E
:100AB0008011016041F23000C4F202000560A168BB
:100AC00020680022B1F5006F026112D0B1F5805F9D
:100AD00014D101220EE0B0F5006F03D1CEE7B0F5DE
:100AE000802FD4D00120B0BDB0F5001FD6D028464D
:100AF000B0BD1322E36803FA02F2E26004F10C0CC9
:100B00009CE82C10114301614FF00041C160C168A5
:100B100043EA05021143C160E169C26841EA0C0180
:100B200011430025C1602846B0BD000070B5D0F863
:100B300004E0BEF1010F3DD804684EF60070CBF61C
:100B4000FD7004EB000CBEF1000F4FEA7C1E1FD0BD
:100B5000BEF1070F2ED86FF00F0000EA5C0E40F2D6
:100B6000B43CC2F2000C0CEB0E0021606260A0608D
:100B7000E56840F6FF76B5431D43E5604CF80E107E
:100B8000C0E90120E1686FF30B011943C1600AE07D
:100B9000BEF1070F0ED821606260E06840F6FF7179
:100BA00088431843E06020694CF20101084320614A
:100BB000002070BD012070BD7047000040F214405D
:100BC000C4F20100016861F07F41016070470000DC
:100BD00080B54368591E012926D881680139022948
:100BE00022D801680022B2EB114F02D1C268052A57
:100BF0001AD840F2084C022BC4F2010C16D0012B7B
:100C00001ED15CF8082C20230A434CF8082C5CF811
:100C1000042C8A434CF8042C4EF20012CEF200024F
:100C2000C2F8803113600BE0012080BD5CF8042C19
:100C30000A434CF8042C5CF8082C8A434CF8082C26
:100C40008268022A0DD0012A15D1DCF800200A435F
:100C5000CCF80020DCF8042022EA0101CCF80410D2
:100C600013E0DCF804200A43CCF80420DCF8002070
:100C700022EA010107E0DCF804200A43CCF8042052
:100C8000DCF800201143CCF80010D0F800E000217F
:100C9000B1EB1E4F25D16FF003014FF0FF3200BFC3
:100CA00001322EFA02F3012B01F10401F8D1072AD7
:100CB0000BD8DCF810200F23C0688B409A43884083
:100CC0001043CCF81000002080BDDCF8142020393F
:100CD0000F23C0688B409A43884010430021CCF812
:100CE0001400084680BD00002DE9F04F85B00528AE
:100CF00000F2A881054608680C460021B1EB104FB0
:100D000040F0A08180B2002800F09C81606841F230
:100D10000101C0F20101884240F20001CEF6FF71EC
:100D200009DCB0F5803F10DA032818BF052811D080
:100D300041F2040106E0014405290BD341F202010E
:100D4000C0F20101884205D07CE1A0F58030022884
:100D500080F07881052D5ED80120A840810720D140
:100D600010F00C0F36D0012001F0EAFB40F67007BE
:100D70004FF20006C4F20107C4F2010607F1300089
:100D800007F1340207F1440C07F14803032D06F57F
:100D9000806503904AD107F12800029007F12C00EA
:100DA00034E0002001F0CCFB40F67000C4F20100FA
:100DB000012D4FF2000500F1040200F1140C00F1C6
:100DC0001803C4F20105039036D1A0F10801029185
:100DD00004381BE00C2001F0B3FB40F670074FF223
:100DE0000006C4F20107C4F2010607F1600007F132
:100DF000640207F1740C07F17803052D06F5006510
:100E000003901ED107F1580002900020276801903E
:100E10003F0427601BE0002002900020019000208A
:100E2000039000224FF0000C002310E007F1200097
:100E3000029007F1240009E0A0F110010C380291A2
:100E400004E007F15000029007F154000190276878
:100E5000002F00F0F7804FF0010804921BE06FF0C4
:100E60001F00019A00EB8A0011680F2707FA00F0B3
:100E700021EA0000106060680528186814BF20EAA5
:100E80000B0740EA0B071F60276837FA08F008F1E4
:100E9000010800F0D780A8F1010A012000FA0AF643
:100EA00017EA060BF0D0D4F804E0BEF5803F0FDC63
:100EB000BEF1030F57D041F20400864553D0BEF572
:100EC000803F40F07F802F6827EA0B072F6079E092
:100ED0000020CEF6FF700EEB00060022052EC1F2B8
:100EE000010253D228682EF0010120EA0B0028608D
:100EF000A86991426FEA0B0940EA0B00A8610FD183
:100F0000E869964500EA0900E861286A00EA0900F4
:100F10002862686A14BF00EA090040EA0B006862B0
:100F2000901C864507D1E86900EA0900E861286A53
:100F300040EA0B0028624FF6FD70CEF6FE7070445A
:100F400001283FD8E869002140EA0B00C1F2010105
:100F5000E8610331686A8E4514BF00EA090040EA7F
:100F60000B0068622EE0BAF1100F574628BFA8F1B7
:100F70001107072F18D8029ABF000F20166800FA31
:100F800007F1E06826EA0101B84019E0BEF1011F4F
:100F900005D041F20200C0F20100864512D12F684F
:100FA00047EA0B072F600DE06FF01F00019A00EB7E
:100FB000870011680F27E6688740B94306FA00F0FA
:100FC00008431060A768022F08D00499012F0FD0A2
:100FD000BFB9039F386820EA0B000DE00399086849
:100FE00020EA0B0008600499086840EA0B0707E054
:100FF000039F386840EA0B003860086820EA0B0756
:101000000F606079C006DCF8000054BF20EA0B07CF
:1010100040EA0B07CCF80070A079C0073FF42BAF73
:10102000BAF1100F28BFA8F1110ABAF1070F3FF665
:1010300016AF029A4FEA8A0110680F2707FA01F1EA
:10104000884317E705B0BDE8F08F0000021F022AB1
:101050004FF20002C4F2010212D3831E012B98BF8B
:1010600002F58062052806D8012303FA00F010F08B
:101070002A0F18BF09045069084018BF01207047A3
:1010800002F500620528EFD9F5E7000005282AD807
:101090000023B3EB114F26D18BB223B3012A88BFB3
:1010A0007047031F4FF2000C022BC4F2010C1BD33C
:1010B000831E012B98BF0CF5806C052806D80123F0
:1010C00003FA00F010F02A0F18BF0904012A05D115
:1010D000DCF810000843CCF810007047DCF8100072
:1010E0008843CCF8100070470CF5006C0528E6D951
:1010F000ECE7000080B5036843F00401042929D11E
:10110000D0F804C04CF48062B2F5806F22D140F672
:101110004C0EC4F2010EDEF80020042B42F0010157
:1011200042F21042C4F20002CEF8001052F8101C35
:1011300041F0200142F8101C0ED003BB116841F4AD
:101140008071116011688905FCD552F8101C21F0DE
:10115000040312E0012080BD1168032363F3C5017D
:101160001160116841F00101116000BF1168890729
:10117000FCD552F8101C41F0040342F8103C806882
:10118000002804BF002080BD40EA0C00C2F8200403
:10119000002080BD42F20440C4F20000006800F06C
:1011A0000100704742F20440C4F20000006870473A
:1011B00080B5B0F5C03F0ADAB0F5805F14DA0828D0
:1011C0005AD80121814011F48B7F11D154E0B0F540
:1011D000002F21DAB0F5C03F0AD0B0F5003F23D090
:1011E000B0F5802F20D047E018BFB0F5C04F44D1F4
:1011F00042F20041C4F200010A6840F203131A43AC
:101200000A6042F60401C4F200014A6802434A60DF
:101210000A68104308602DE018BFB0F5001F03D026
:10122000B0F5801F18BF80BD42F20042C4F2000238
:10123000D2F800C040F2031343EA0C0313601368B2
:10124000B0F5003F43EA00231360136843EA00034C
:10125000136003D1D36823F04003D360000C00294E
:1012600051690CBF21EA000008435061106840F04A
:101270000200106001F0F8F880BDB0F5803FD3D0D7
:10128000FAE700002DE9F0470446006844F6FF3114
:10129000C4F2000188424FF0010508DC44F200412D
:1012A000C4F2000188420FD044F6000107E043F683
:1012B0000001C4F20101884206D044F60041C4F2A4
:1012C0000001884240F08780A0684FEA7010032830
:1012D0007BD8E06840F40040B0F5004F75D120693C
:1012E0000125062877D805FA00F010F0450F72D0D6
:1012F00060690125B0F5407F0DDB12D040F200316E
:10130000C2F2000188420CD040F20031C1F200016B
:10131000884206D05FE0B0F5807F02D0B0F5007F54
:1013200059D1A0694FEAB03003284ED8204600F0CA
:1013300055F801F0D3F8D4E9007144F24029C0F225
:101340000F09D4F808800A01B0FBF2F6D4F80CA01B
:1013500006FB12000023A0FB09010025FEF7CCFFCD
:1013600089014AF2201241EA9061C0F2070212EBB1
:10137000801041F100014A460023FEF7BDFF3F28DF
:1013800084BF013600207E62B86220694AEA080103
:101390000843F862D4E9050140F20032C2F20002CB
:1013A000904241EA000141F00101396310D040F25E
:1013B0000031C1F2000188420DD140F26440C2F216
:1013C000000007600020BDE8F0870120BDE8F0873D
:1013D0000220002578652846BDE8F0872DE9F04316
:1013E00085B0044628B929A02DA140F27B2203F044
:1013F000DDFFA06C4EF20018407ACEF2000801F03A
:101400009FF8A06C01AD8169007D019103264FF02A
:101410000109022729460296CDF80C900497FFF7A0
:1014200063FCA06C01AAC169407D82E842022946A2
:101430000497FFF759FCA06C90F9080000280CD421
:10144000420900F01F0108EB820209FA01F1404451
:10145000C2F8801100F5407006E04EF6145100F01D
:101460000F00CEF200010844A0210170A06C90F999
:101470000800002807D400F01F01012202FA01F140
:10148000400948F8201005B0BDE8F0836875617226
:101490007420213D2052545F4E554C4C00000000FA
:1014A00048414C5F554152545F4D7370496E6974A9
:1014B0000000000080B503688E4644F6FF31C4F298
:1014C000000194468B424FF0010108DC44F20042D7
:1014D000C4F2000293420ED044F6000207E043F645
:1014E0000002C4F20102934205D044F60042C4F265
:1014F000000293420DD190F83910012904BF022057
:1015000080BDBEF1000F4FF0010118BFBCF1000F0C
:1015100001D1084680BD996C724641F00101996481
:10152000006C19466346FFF701FB0146002818BF0F
:101530000121084680BD000080B59446026844F64B
:10154000FF33C4F200039A424FF0010E08DC44F26C
:101550000043C4F200039A420ED044F6000307E0B1
:1015600043F60003C4F201039A4205D044F6004357
:10157000C4F200039A420CD190F83830012B04BF1A
:10158000022080BD00294FF0010E18BFBCF1000FF2
:1015900001D1704680BD936C43F002039364C06B2D
:1015A0006346FFF7C3FA8646002818BF4FF0010EC6
:1015B000704680BDF0B581B04FF20006C4F201065E
:1015C0003168044621F0100000250027306000BF7C
:1015D000002020210022FFF759FD082001F0BAFF6A
:1015E000002020210122FFF751FD00201021FFF7EC
:1015F0002DFD002818BF012040EA45050A2001F012
:10160000A9FF072F07F10107E2D3B4FA84F04409D8
:10161000002020210022FFF739FD3068102140F022
:101620001000306000202246FFF730FD082001F056
:1016300091FF002020210122FFF728FD082001F062
:1016400089FF002020210022FFF720FDE8B201B031
:10165000F0BD0000B0B54FF20001C4F201010A680C
:10166000044642F0100008600020202100220025DE
:10167000FFF70CFDE0B2C20900201021FFF706FDC4
:101680000820640001F066FF002020210122FFF7FE
:10169000FDFC082001F05EFF002020210022FFF762
:1016A000F5FC082001F056FF072D05F10105E1D3F7
:1016B000B0BD0000B0B54FF20004C4F201042068D0
:1016C000102120F010002060002001220025FFF7EB
:1016D000DDFC0A2001F03EFF002020210122FFF75F
:1016E000D5FC0A2001F036FF00201021FFF7AEFCE8
:1016F00038B3FA2D05F10105F6D32068202140F01A
:101700001000206000200022FFF7C0FC0020102104
:101710000022FFF7BBFC0A2001F01CFF0020202163
:1017200001220124FFF7B2FC0A2001F013FF002080
:1017300010210122FFF7AAFC0A2001F00BFF20462E
:10174000B0BD0020202100220024FFF79FFC20468E
:10175000B0BD000070B588B0082000904FF00114B3
:1017600000256946002001940395FFF7BDFA00208B
:1017700008210022FFF78AFC00200821012201260F
:10178000FFF784FC302004A951C104A9002007956B
:10179000FFF7AAFA002030210122FFF777FC08B0FA
:1017A00070BD000080B500F037FC80BD80B500F052
:1017B000ABFC80BD80B505206021FFF7F7FF20203E
:1017C0006421FFF7F3FF0F205521FFF7EFFF2020E3
:1017D0004021FFF7EBFF0F200221FFF7E7FF20205A
:1017E0004421FFF7E3FF0F20A821FFF7DFFF2020B0
:1017F0004821FFF7DBFF40F2B030C2F20000017871
:101800000F20FFF7D3FF20204C21FFF7CFFF0F2041
:101810000421FFF7CBFF20205C21FFF7C7FF0F203B
:101820002621FFF7C3FF20206021FFF7BFFF0F2015
:101830000021FFF7BBFF20206821FFF7B7FF40F230
:101840000800C2F2000001780F20FFF7AFFF202050
:101850007021FFF7ABFF0F200121FFF7A7FF20202A
:101860007821FFF7A3FF0F200021FFF79FFF022041
:101870008021FFF79BFF0320C021FFF797FF202067
:101880006421FFF793FF0F205521FFF78FFF012001
:10189000B021FFF78BFF80BD80B50520FFF782FFE9
:1018A00041061BD480061FD405204021FFF77EFF90
:1018B00005202021FFF77AFF20207C21FFF776FF0B
:1018C0000F200A21FFF772FF20206421FFF76EFF2F
:1018D0000F205521FFF76AFF002080BD0520402121
:1018E000FFF764FF012080BD05202021FFF75EFF88
:1018F000022080BDF0B58BB000208DF81D002620A1
:101900007821FFF753FF0DF12A01262000F04EFA4F
:10191000C0B126204821FFF749FF0DF12A012620FA
:1019200000F044FA90B126205821FFF73FFF0DF157
:101930002A01262000F03AFA60B14CF21B20C0F2D6
:1019400000001FE09DF82A106AA006E09DF82A100A
:1019500060A002E09DF82A1056A09DF82B2008F008
:1019600059FC0DF11E00932100F038F908B169A06F
:1019700008E00DF11E040DF11D01204600F066FA8D
:1019800028B169A008F046FC01200BB0F0BD9DF81D
:101990001D504CF2CF20C0F20000294608F03AFC5E
:1019A000680711D49DF81E109DF81F209DF8203067
:1019B0009DF821704CF2A720C0F20000009708F0BB
:1019C00029FC00200BB0F0BD251D2846952100F014
:1019D00005F920B14CF2EA10C0F20000D2E70DF197
:1019E0001D01284600F06EFA08B153A0CAE79DF821
:1019F0001D504CF2E720C0F20000294608F00AFC16
:101A0000680716D49DF822009DF823709DF8246085
:101A10009DF825509DF81F109DF820209DF821303D
:101A2000CDE900074CF270200296C0F20000039549
:101A3000C5E708342046972100F0D0F820B14CF2D9
:101A4000FB10C0F200009DE70DF11D01204600F0E3
:101A500075FA20B14CF20C20C0F2000092E79DF81C
:101A60001D404CF2FF20C0F20000214608F0D2FBDE
:101A70006007A6D49DF823009DF824509DF82540CA
:101A80009DF828609DF82970CDE9000502A89DF811
:101A90001F109DF820209DF821309DF826C09DF84C
:101AA00027E080E810504CF22A200596C0F2000092
:101AB000069784E70D0A52657175657374313A6F44
:101AC0006B2020415451413A253032782025303264
:101AD000780000000D0A52657175657374323A6FB3
:101AE0006B2020415451413A253032782025303244
:101AF000780000000D0A52657175657374333A6F92
:101B00006B2020415451413A253032782025303223
:101B1000780000000D0A416E7469636F6C6C313A95
:101B20006661696C000000000D0A53656C656374A2
:101B3000313A6661696C00000D0A53656C65637427
:101B4000323A6661696C000080B5FFF703FE4FF41E
:101B5000FA7001F0FBFC0820FFF724FE00F0F7010B
:101B60000820FFF723FE12200021FFF71FFE13209D
:101B70000021FFF71BFE24202621FFF717FE262059
:101B80007821FFF713FE2A208021FFF70FFE2B207C
:101B9000A921FFF70BFE2C200321FFF707FE2D20C4
:101BA000E821FFF703FE15204021FFF7FFFD11207C
:101BB0003D21FFF7FBFD01200021FFF7F7FD142079
:101BC000FFF7F0FD800718BF80BD1420FFF7EAFD86
:101BD00040F003011420FFF7E9FD80BD70B588B027
:101BE000044608200D46FFF7DDFD00F0F701082050
:101BF000FFF7DCFD0D200021FFF7D8FD0E20FFF7D9
:101C0000D1FD00F07F010E20FFF7D0FD202002AEB5
:101C10008DF808508DF8090007AD0C2031460222DE
:101C20003346009500F020F8054688B902984FF039
:101C3000FF312060002000BF721852780131032963
:101C400080EA0200F8D19DF80C10884218BF0225E6
:101C50000E20FFF7A7FD40F080010E20FFF7A6FD44
:101C6000284608B070BD00002DE9F047984616469A
:101C700005460C280F4606D00E2D0CBF112401245A
:101C80004FF0000902E031244FF001090420FFF772
:101C900089FD00F07F010420FFF788FD012000216D
:101CA000FFF784FD0A20FFF77DFD40F080010A2048
:101CB000FFF77CFD3EB1013F17F8011F0920FFF738
:101CC00075FD013EF8D101202946FFF76FFD0C2D6F
:101CD00007D10D20FFF766FD40F080010D20FFF7D2
:101CE00065FDDDF820A04FF63007CFF6FF7700BF87
:101CF0000420FFF757FD01371AD206460442F7D0F9
:101D00000D20FFF74FFD00F07F010D20FFF74EFD86
:101D10000620FFF747FD40F26471C2F2000108702F
:101D20000620FFF73FFD10F01B0F19D0022508E039
:101D30000D20FFF737FD00F07F010D20FFF736FD86
:101D400002250C20FFF72EFD40F080010C20FFF74C
:101D50002DFD01200021FFF729FD2846BDE8F08771
:101D60000C2D09EA0605ECD10A20FFF71BFD0646FB
:101D70000C20FFF717FD10F0070040EAC600A8F19D
:101D80000104A0F1080008BFF000CAF80000002E0E
:101D900008BF0126122E28BF122600BF0920FFF718
:101DA00001FD04F8010F013EF8D1CAE7B0B588B0D3
:101DB000054608200C46FFF7F5FC00F0F701082067
:101DC000FFF7F4FC0D200721FFF7F0FC1420FFF7CC
:101DD000E9FC40F003011420FFF7E8FC0DF10A01D3
:101DE0008DF80A5007AD0C2001220B460095FFF735
:101DF0003BFF4FF0020130B9079A102A03D1BDF81A
:101E00000A1021800146084608B0B0BD80B5002008
:101E100008210022FFF73AF9642001F09BFB002023
:101E200008210122FFF732F9642001F093FB012021
:101E30000F21FFF7BBFC00BF0120FFF7B3FCC0067A
:101E4000FAD4642001F086FB80BD000070B588B034
:101E500002680E4647F29301ADF80A100021039282
:101E60004FF0FF328DF8101083185B780132032A8F
:101E700081EA0301F8D10DF10A058DF81010EA1D71
:101E800028460721FEF720FD0820FFF78BFC00F015
:101E9000F7010820FFF78AFC07AC0C20294609222D
:101EA0002B460094FFF7E0FE00284FF0020006D119
:101EB0000799182903D19DF80A003070002008B056
:101EC00070BD000070B588B002680E4647F29501FB
:101ED000ADF80A10002103924FF0FF328DF8101078
:101EE00083185B780132032A81EA0301F8D10DF1EE
:101EF0000A058DF81010EA1D28460721FEF7E4FCBC
:101F00000820FFF74FFC00F0F7010820FFF74EFC18
:101F100007AC0C20294609222B460094FFF7A4FEAB
:101F200000284FF0020006D10799182903D19DF827
:101F30000A003070002008B070BD000070B588B095
:101F400002680E4647F29501ADF80A10002103928F
:101F50004FF0FF328DF8101083185B780132032A9E
:101F600081EA0301F8D10DF10A058DF81010EA1D80
:101F700028460721FEF7A8FC0820FFF713FC00F015
:101F8000F7010820FFF712FC07AC0C2029460922B4
:101F90002B460094FFF768FE00284FF0020006D1A0
:101FA0000799182903D19DF80A003070002008B065
:101FB00070BD000070B50420042400F0C1FA40F2A6
:101FC00048414FF48030C2F2000101250026C1E9EA
:101FD00000400020C1E90256FEF786FE00200421E1
:101FE0000022FFF753F840F23840C2F2000002210D
:101FF000C0E90045C0E90216FEF7EAFD02A008F0BC
:1020000009F9FEF7DBFD70BD0A0D4558544920491A
:102010004E4954204F4B2E00B0B54FF20005C4F28C
:1020200001052968044641F01000286000201021B5
:102030000122FFF72BF8002020210122FFF726F8CC
:102040000A2001F087FA002010210022FFF71EF875
:102050000A2001F07FFA002020210022FFF716F865
:102060005020FFF7F7FAFFF725FB2046FFF7F2FABB
:10207000FFF720FB2868102140F0100028600020A6
:102080000122FFF703F8002020210122FEF7FEFFC6
:102090000A2001F05FFA002010210022FEF7F6FF6F
:1020A0000A2001F057FA002020210022FEF7EEFF5F
:1020B0005120FFF7CFFAFFF7FDFA0020FFF77AFA79
:1020C0002968044641F010002860002020210022E9
:1020D000FEF7DCFF002010210022FEF7D7FF0A20C8
:1020E00001F038FA002020210122FEF7CFFF0A205C
:1020F00001F030FA002010210122FEF7C7FF0A206C
:1021000001F028FA2046B0BD70B54FF20006C4F2C7
:1021100001060C463168054641F010003060002091
:1021200010210122FEF7B2FF002020210122FEF73C
:10213000ADFF0A2001F00EFA002010210022FEF768
:10214000A5FF0A2001F006FA002020210022FEF758
:102150009DFF5020FFF77EFAFFF7ACFA2846FFF705
:1021600079FAFFF7A7FA2046FFF774FAFFF7A2FA09
:102170003068202140F01000306000200022FEF77F
:1021800085FF002010210022FEF780FF0A2001F0C9
:10219000E1F9002020210122FEF778FF0A2001F05A
:1021A000D9F9002010210122FEF770FF0A2001F06A
:1021B000D1F970BD80B504F0D9FC07F04BFB04F0F9
:1021C000F9FC80BD80B586B04FF480110A68082301
:1021D00063F3CB120A60002240F62C010092C4F295
:1021E0000101029251F8083C9B0509D451F8083CC2
:1021F00043F0010341F8083C51F8083C9B05FBD52E
:1022000049F2000EC0F2D03E0EF1010340F2F47C20
:102210009842C2F2000C41F81C2C19D251F8082C3B
:10222000D20509D551F8082C22F4807241F8082C07
:1022300051F8082C9205FBD544F60002C0F2E812D2
:10224000904222D10220CCF800200590012020E00D
:10225000029A52B3029A012A56D1002203920D2209
:1022600041F8042C51F8042CD2065FD444F24023E8
:10227000C0F20F03039A9A4256D0039A0132039296
:1022800051F8042CD206F5D550E00120CCF800E03E
:1022900005900490DCF80000049AB0FBF2F040F2E4
:1022A000F072C2F20002106094E051F8082C42F47F
:1022B000807241F8082C00BF51F8082C9205FBD51C
:1022C0000A6842F001020A600A6822F400120A60F9
:1022D0000A685200FCD540F60062C0F227729042B4
:1022E00015D049F20052C0F6BA2290424CD10A6889
:1022F000212363F3D3020A600A6842F480020A6071
:102300000A685200FCD554E00320009062E00A689D
:10231000122363F3D3020A600A6842F480020A605F
:102320000A685200FCD544E002220092009A002A7A
:1023300043D10A6842F001020A600A6822F40012DE
:102340000A6000BF0A685200FCD540F60062C0F285
:10235000277290421BD049F20052C0F6BA22904236
:1023600012D10A6840F2122363F3D3020A600A68AA
:1023700042F006020A600A6842F480020A6000BF66
:102380000A685200FCD514E00122009215E00A68A8
:1023900040F2124363F3D3020A600A6842F0060275
:1023A0000A600A6842F480020A6000BF0A685200AC
:1023B000FCD50122059202220492CCF80000049A76
:1023C000B0FBF2F040F2F072C2F2000210600420A2
:1023D00041F81C0C009810B10120059002E004980F
:1023E00001281ED10020019051F8180C059B40F2E5
:1023F000FF7290435A1E019B104340EA032041F8AC
:10240000180C00BF51F8180CB0F1FF3FFADCDCF8F3
:102410000000FEF7D1FB0098B0FA80F0400906B04A
:1024200080BD0498022814BF05200420DBE70000CB
:102430004EF68850CEF20000016841F47001016050
:10244000002140F8801C704781B0009040F2F87085
:10245000C2F20000016800BF0268009B521A9A4253
:10246000FAD301B07047000080B582B0012080F33C
:1024700010884FF200304EF61051CFF6FF70CEF2BA
:10248000000100220A5040F64C00C4F2010002682C
:1024900042F400620260086840F00400086030BF47
:1024A000086820F004000860642001900198411E33
:1024B00000280191FAD102A008F002F902B080BD13
:1024C000456E746572205374616E646279204D6F3D
:1024D0006465204661696C656421200040F2F070FB
:1024E000C2F200000068704740F2F470C2F20000CF
:1024F0000068704780B540F60000C4F20100016832
:102500004FF6FF0241F480310160C16B21F40001FC
:10251000C1634EF60C50CEF200000168114041F04C
:10252000BF6141F40131016049F20050C0F6BA20A8
:10253000FFF748FE002818BF80BD00BFFEE700007F
:1025400081B040F61C010E28C4F2010107D30E38F9
:1025500001220B6802FA00F01843086005E001222E
:102560004B6802FA00F0184348600220009000BF58
:102570000098411E00280091FAD101B07047000078
:1025800080B504F0F3FA40F69030C2F20000A430B7
:1025900007F0C8FD04F00EFB80BD000080B504F01C
:1025A000E5FA40F69030C2F2000000F5C47007F082
:1025B000B9FD04F0FFFA80BD80B504F0D7FA40F60B
:1025C0009030C2F2000000F51B7007F0ABFD04F084
:1025D000F1FA80BD80B504F0C9FA40F69030C2F23D
:1025E000000000F5547007F09DFD04F0E3FA80BD93
:1025F000002804BF00207047C1B209B101200CE0DF
:1026000010F47F4102D0090A092006E010F47F018E
:1026100007BF010E1920090C11204AF26C72C0F29A
:102620000002515C084470472DE9F041C8B25428BB
:1026300084BF0620BDE8F081C81701EB1070DDF8FB
:10264000188020F00F001C460D4616460F1AFDF7A5
:1026500065FD07EB470140F2B403C2F2000333F813
:10266000212003EB810117B2AF4208D14B68A3428E
:1026700005D14B88B34202D18B68434509D04FF650
:10268000FF739A4201D0072404E00D804E80C1E917
:1026900001480024FDF746FD2046BDE8F08100001A
:1026A00070B5022830DC4BF25730C0F2000004F065
:1026B00099FA4BF2C630C0F2000004F093FA4BF2E4
:1026C000B620C0F2000004F08DFA4BF23A30C0F2AE
:1026D000000004F087FA4BF20740C0F2000004F05B
:1026E00081FA4BF2F520C0F2000004F07BFA4BF2C5
:1026F0006530C0F2000004F075FA4BF2EF30C0F222
:10270000000004F06FFA70BD0C464968054673A0DE
:1027100006F0BEFBE0B1616871A006F0B9FB20B322
:10272000616871A006F0B4FB58B3616870A006F050
:10273000AFFB0028B7D1032DB5DDA06802F0C4FCC3
:102740000146A068002973D0FDF775FE054675E0C7
:10275000A06800F00FF9A168B0F1FF3F40F3878057
:10276000024681A004F03EFA70BD032D9BDDA068F7
:1027700002F0AAFC0146A06889B3FDF75CFE05469D
:1027800033E0A06802F0A0FC0146A06819B1FDF793
:1027900052FE054605E000F0EDF80546B0F1FF3FBA
:1027A00064DD40F27044C2F20004E06A50B94BF2BA
:1027B00086404BF29D41C0F20000C0F2000196221B
:1027C00002F0F4FDE06A29468268204690472946D7
:1027D00001280CBF51A04DA004F004FA70BD00F018
:1027E000C9F80546B0F1FF3F40DDE1684FA006F0B3
:1027F0004FFBC8B1E1684FA006F04AFBB0B1E168F9
:102800004EA006F045FB00284DD0E1684FA006F031
:102810003FFB002849D0E16850A006F039FB0028B2
:102820007FF441AF042441E000243FE001243DE077
:1028300000F0A0F80546B0F1FF3F17DDE1682EA0DB
:1028400006F026FBD0B1E1682DA006F021FBA8B16F
:10285000E1682CA006F01CFB30B1E1682AA006F06C
:1028600017FB00287FF41FAF002408E0A1684BF29B
:102870009D20C0F2000004F0B5F914E7012440F2F5
:102880007046C2F20006F06A50B94BF286404BF235
:10289000B541C0F20000C0F20001902202F086FDB6
:1028A000F06A436815E0022400E0032440F2704619
:1028B000C2F20006F06A50B94BF286404BF2A941D1
:1028C000C0F20000C0F200018A2202F06FFDF06A3F
:1028D0000368304629462246984770BD6E756D00E4
:1028E0006D6F6465000000007265616400000000A7
:1028F000777269746500000068696768000000000D
:102900006F6E00006C6F77006F66660070696E5BBB
:1029100025645D203D206F66660A000070696E5B6D
:1029200025645D203D206F6E0A0000006F75747095
:1029300075740000696E707574000000696E7075C2
:10294000745F70756C6C757000000000696E707556
:10295000745F70756C6C646F776E00006F75747067
:1029600075745F6F640000002573203A2025640AA7
:102970000000000010B582B0044600780021ADF8D8
:1029800004100091FDF7EEFC61788DF80000084618
:10299000FDF7E8FC8DF80100204606F0AFFA14F8C8
:1029A000021F2E291CBF2E218DF802100528A8BF5A
:1029B0000520821E68462146FDF71AFD40F270444C
:1029C000C2F20004E06A50B94BF286404BF2C241B9
:1029D000C0F20000C0F200019D2202F0E7FC9DF869
:1029E000000040F02000702809D1E06A81690029C8
:1029F0000EBF6FF005006846884702B010BD6FF04B
:102A0000090002B010BD0000B0B50446154638B943
:102A10004BF27740C0F2000008A1372202F0C6FC5A
:102A2000002D04BF4FF0FF30B0BDE06A2988036875
:102A30006A88204698470020B0BD00BF5F70696E6D
:102A40005F636F6E74726F6C00000000C8B2542830
:102A500084BF06207047B0B5C81701EB10704FF661
:102A6000FF7420F00F000D1AFDF758FB05EB450130
:102A700040F2B402C2F2000232F82130A34206D082
:102A800002EB810100220C804A80C1E90122FDF79E
:102A900049FB0020B0BD00002DE9F04784B0C8B26A
:102AA00054285FD8400050FA81F04AF63433C0F21F
:102AB000000353F82070B7F1FF3718BF03EB80070E
:102AC000002F52D0C81701EB1074002A24F00F0019
:102AD000A1EB000606EB860040F27411C2F2000181
:102AE00001EB800543D0012A5AD1FDF717FB06EB15
:102AF000460140F2B40CC2F2000C3CF821304FF613
:102B0000FF72934280464ED0B8680CEB8101009072
:102B1000002003904FF48030019028884FEA241958
:102B20002C4644F8040F48884FF0010A0228C4F8E4
:102B300004A004D8C0F1020101300291E8603879A4
:102B40006946FEF7D1F82046C5F81090FEF740F828
:102B500040F68C00C2F2000001680AFA06F2114346
:102B600001601BE00027002FACD106251FE040F6D6
:102B70008C00C2F200000068F040C0071BD0FDF7D7
:102B8000CDFA40F20042C4F201022988136880465F
:102B90008B431360536823EA01005060002503E073
:102BA0006FF0050503E006254046FDF7BBFA284611
:102BB00004B0BDE8F0870625F9E7000080B584B0D1
:102BC000C8B2542810D8400050FA81F14AF6343384
:102BD000C0F2000353F82100B0F1FF3018BF03EB3F
:102BE000810020B904B080BD00200028FAD081689F
:102BF000042A00914FF0011101914FF00001029160
:102C0000039107D80AA10FA351F8221053F82220EC
:102C1000CDE9011242F20C41C4F200010A6822F02F
:102C200040020A6000796946FEF75EF804B080BD94
:102C3000010001000000010000000100000001008F
:102C40000210010000000000000000000100000070
:102C5000020000000000000070B51E460546144644
:102C600038B94BF27740C0F2000009A1162202F0F9
:102C70009DFB4FF000004CB1042E18BF70BDE86AF8
:102C800021888268284690476080042070BD00BF7C
:102C90005F70696E5F7265616400000080B5C8B2E4
:102CA00054280ED8400050FA81F04AF63432C0F26F
:102CB000000252F82010B1F1FF3118BF02EB800181
:102CC00000E00021002904BF002080BD0879896848
:102CD000FEF7BCF980BD000070B51E4604461546DF
:102CE00038B94BF27740C0F2000009A1262202F069
:102CF0005DFB4FF000004DB1042E18BF70BDE06ABF
:102D0000298843686A8820469847042070BD00BF20
:102D10005F70696E5F7772697465000080B5C8B2D4
:102D200054280ED8400050FA81F04AF63433C0F2ED
:102D3000000353F82010B1F1FF3118BF03EB8001FD
:102D400000E00021002908BF80BD08798968D2B25F
:102D5000FEF79CF980BD0000B0B540F69800C2F2C5
:102D600000000468FDF7DAF90546204604F050FE3D
:102D700004F14C0006F086FE042084F8340020465E
:102D800006F04EFA2846FDF7CDF904F085FCB0BDFB
:102D900070B582B00446DDE906C61430C4E905000A
:102DA00004F12000089D80E80E1018462321624699
:102DB00004F05AF804F120030FCB1A4442F6595399
:102DC000043AC0F2000303F02BFE202EE06104D38E
:102DD00014A01DA1BD2202F0E9FA42F6596284F85E
:102DE0003560002604F14C00C0F200022146234663
:102DF000C4E90E6684F84060C4E91155266384F87E
:102E00003460C4E91E660096019606F095FE40F611
:102E10005C10C2F20000016800291CBF20468847F0
:102E200002B070BD7072696F72697479203C205273
:102E3000545F5448524541445F5052494F5249549F
:102E4000595F4D41580000005F7468726561645FAE
:102E5000696E697400000000B0B5044650B94CF2C8
:102E600007004CF21711C0F20000C0F200018622E8
:102E700002F09CFA94F8340000F00700022807D012
:102E80004CF2171116A0C0F20001872202F08EFA50
:102E9000204604F065FB01280AD04CF24D004CF2AC
:102EA0001711C0F20000C0F20001882202F07EFA81
:102EB000FDF734F921460546A06951F8142F6FF04B
:102EC00001035060A069236302602046A16109608C
:102ED00004F05AFD2846FDF725F904F0DDFBB0BDEE
:102EE000287468726561642D3E73746174202620B5
:102EF00052545F5448524541445F535441545F4DCE
:102F000041534B29203D3D2052545F544852454186
:102F1000445F53555350454E4400000040F2C845AD
:102F20004FF6FE76C2F20005C7F6FF7602E000BF5C
:102F300005F014FFFDF7F2F82C68AC421CBF2968BD
:102F40004F69FDF7EFF8AC420AD006F07DFC3C1A61
:102F5000B442EDD8204606F06FF92746E8E700BFF7
:102F600006F040FB06F0E8FB04F096FB05F0F6FEE9
:102F7000E0E70000B0B504460D46C8B12DB354F8E3
:102F80005C0C4168204640F8A41D296841602979FD
:102F900001F00F0108292ED1602144F89C1C2979E9
:102FA000C1F30111D1B1012925D14FF4004116E03F
:102FB0004BF25E504BF26461C0F20000C0F20001BF
:102FC000532202F0F3F9002DD9D14BF2646114A021
:102FD000C0F20001542202F0E9F9D0E7002144F8E0
:102FE000981C29790025890908D0012908D00229CF
:102FF00001D1062105E06FF00900B0BD002100E01D
:103000000221A4F194034FF4407226C3FEF73AF96B
:1030100054F8A40CC16A21F01001C1622846B0BD69
:1030200063666720213D2052545F4E554C4C000092
:10303000F0B581B0164604460F4638B94BF25E50E3
:10304000C0F2000064A1922202F0B0F9032FA4F1B3
:10305000A40522D0102F2ED0112F40F0BA8054F8A2
:103060005C0C90F90800002811D44EF2001200F018
:103070001F014009CEF2000202EB8000012202FA99
:1030800001F1C0F88010BFF34F8FBFF36F8F286836
:10309000816B21F0100181639BE024B3B6F5007FC2
:1030A00030D0B6F5006F40F08D8054F85C1CA4F170
:1030B0002C0010312BE054F85C0C90F9080000282B
:1030C0000BD400F01F01012202FA01F14EF20012AE
:1030D0004009CEF2000242F820102868816B41F0CE
:1030E0001001816375E04BF25E504BF27461C0F2E7
:1030F0000000C0F200014FF4A27202F057F9B6F5D9
:10310000007FCED154F85C1CA4F158000C31096842
:10311000B6F5007F0A684FF0000C026008D0B6F5E3
:10312000006F0ED100234FF080624FF4006704E07F
:103130004FF000634FF480570022C0E901C7C0E997
:1031400004230969C1600021C0E90611FDF784FC70
:1031500058B14BF6FC504BF27461C0F20000C0F263
:10316000000140F26F1202F021F9B6F5007F07D09E
:10317000B6F5006F09D1A4F12C00A4F1680103E0B9
:10318000A4F15800A4F164010860B6F5007F19D1DC
:1031900094F83700B4F83510A26B41EA004011688A
:1031A000C0F38F022846FEF785F958B14BF6FC5064
:1031B0004BF27461C0F20000C0F200014FF4C17222
:1031C00002F0F4F84AF20521C0F20001204602F0B4
:1031D0004DFF002001B0F0BD5F756172745F636FD9
:1031E0006E74726F6C000000F0B581B01F4614461B
:1031F00005460E4640B94BF25E50C0F200000EA1EB
:103200004FF48C7202F0D2F84FF000008CB1022F14
:103210000FD1A5F1A40031462246FEF78DF9002812
:103220001EBF002001B0F0BD2846042103F028FA9B
:10323000204601B0F0BD00BF5F756172745F646DC0
:10324000615F7472616E736D6974000010B504463D
:1032500038B94BF25E50C0F2000007A1C42202F060
:10326000A5F854F8A40C8169C9064EBF4FF0FF3091
:103270000068C0B210BD00BF5F756172745F6765A2
:1032800074630000B0B505460C4638B94BF25E5089
:10329000C0F2000007A1B32202F088F855F8A40C90
:1032A00081698906FCD4046081690907FCD4012086
:1032B000B0BD00BF5F756172745F707574630000AC
:1032C00080B502A003F08EFC002080BD1B5B324A5B
:1032D0001B5B480080B584B000200390CDE901005D
:1032E00003A802A901AA03F067FD039909A003F04E
:1032F00079FC02990BA003F075FC01990DA003F075
:1033000071FCDDE90210411A0EA003F06BFC0020F5
:1033100004B080BD746F74616C202020203A202599
:10332000640A00007573656420202020203A20255F
:10333000640A00006D6178696D756D20203A202562
:10334000640A0000617661696C61626C653A2025EF
:10335000640A000010B502284ED14C684CF24601B8
:10336000C0F200012046FDF728F8002879D04BF67E
:10337000A211C0F200012046FDF71FF8002874D00A
:103380004AA12046FDF719F8002872D04BF6DF114C
:10339000C0F200012046FDF710F800286DD04BF672
:1033A000E511C0F200012046FDF707F8002868D0BB
:1033B0004BF6EB11C0F200012046FCF7FEFF00289F
:1033C00063D04BF68811C0F200012046FCF7F5FFF0
:1033D00000285ED04BF69A11C0F200012046FCF79F
:1033E000ECFF002859D04BF67C11C0F200012046BA
:1033F000FCF7E3FF002854D04BF2E160C0F200007C
:1034000003F0F0FB2AA003F0EDFB4BF26270C0F278
:10341000000003F0E7FB4BF29870C0F2000003F0ED
:10342000E1FB4BF27D70C0F2000003F0DBFB4BF2DE
:10343000CA70C0F2000003F0D5FB4BF2B170C0F2CD
:10344000000003F0CFFB1DA003F0CCFB23A003F092
:10345000C9FB2BA003F0C6FB32A003F0C3FB002086
:1034600010BD01F071FA002010BD01F057FB0020E3
:1034700010BD01F08BF9002010BD00F03FFD0020D1
:1034800010BD01F0DFF8002010BD00F019FE002093
:1034900010BD00F0F7FF002010BD00F0FFFE00207F
:1034A00010BD00F081FC002010BD00BF73656D00F1
:1034B0005B6F7074696F6E735D3A0A002020202084
:1034C0006D61696C626F78202D206C697374206D5A
:1034D00061696C626F78730A000000002020202070
:1034E0006D73677175657565202D206C6973742027
:1034F0006D657373616765207175657565730A0025
:10350000202020206D656D706F6F6C202D206C6900
:103510007374206D656D6F727920706F6F6C730AB4
:103520000000000020202020646576696365202D5E
:10353000206C69737420646576696365730A0000A2
:1035400080B501F001FA002080BD000080B505F0D3
:10355000F7FF80BD7047000070B582B040F6883636
:10356000C2F20006306800218DF8071038B94BF21E
:103570008E60C0F2000019A1A42201F017FF30688C
:10358000D0F80C4234B30DF1070220464FF0FF3162
:10359000012302F019FD012803D19DF8070002B0B4
:1035A00070BD0DF1070508E020464FF0FF312A46B7
:1035B000012302F009FD0128EFD030684FF0FF3100
:1035C00004F010FB3068D0F80C02A042ECD00028C8
:1035D0000446E9D14FF0FF3002B070BD66696E73EA
:1035E000685F6765746368617200000010B540F63B
:1035F0008834C2F20004206838B94BF28E60C0F201
:10360000000004A1C32201F0D1FE206804F09CFA5E
:10361000002010BD66696E73685F72785F696E64C2
:103620000000000070B540F68836C2F2000631682E
:10363000054639B94BF28E60C0F200001CA1D622BB
:1036400001F0B4FE284602F031FC60B30446306855
:10365000D0F80C02844225D0204640F2431102F0FB
:103660002BFC002818BF70BD3068D0F80C0238B1B0
:1036700002F0E2FB30680021D0F80C0202F0F6FC08
:103680003068002100F5DB705122002503F0ECFBCF
:10369000306843F2ED51C0E98254C0F20001204687
:1036A00002F0E4FC70BD07A0294603F09BFA70BD50
:1036B00066696E73685F7365745F64657669636578
:1036C0000000000066696E73683A2063616E206EC8
:1036D0006F742066696E64206465766963653A205C
:1036E00025730A00B0B582B040F2D4404CF23441A8
:1036F000C2F20000C0F20001016040F2D8404CF27A
:10370000F441C2F20000C0F20001016001204FF458
:10371000047101F06BFE40F68835C2F200052860A6
:1037200088B3142043F2BD710A24009019A0C0F29E
:10373000000100224FF48053019405F04BFD2A68EC
:10374000044616A110460022002304F0B9F92868A7
:1037500050B94BF28E604BF29F61C0F20000C0F294
:103760000001902201F022FE2868002C90F8211020
:1037700041F0020180F821101CBF204605F07CFFBB
:10378000002002B0B0BD07A003F02CFA4FF0FF30CC
:1037900002B0B0BD747368656C6C000073687278B9
:1037A000000000006E6F206D656D6F727920666F8E
:1037B00072207368656C6C0A0000000040F688395E
:1037C000C2F20009D9F8000090F82110D0F80C22BC
:1037D00041F0010180F821102AB901F05FFF0028B3
:1037E00018BFFFF71FFFD9F8000040F2687690F885
:1037F0002100C2F20006800740F2EC70C2F2000025
:1038000002D40020307015E0016839B140F26870D0
:10381000C2F200008022FCF7BDFD06E000203071FE
:1038200047F26D30C2F2680030603046FCF7BEFDF2
:103830003E213152304603F0D5F94BF286674FF006
:10384000010A4FF0000BC0F2000701E084F820A04D
:10385000FFF782FE0028FBD4D9F8004080461B28E1
:10386000F4D094F8200002280AD0012840F05E80AD
:10387000B8F15B0F40F05880022084F82000E7E7A1
:10388000B8F1440F84F820B000F28D80DFE818F022
:1038900045009200920092009200920092009200E5
:1038A000D10011015B00920092005B009200920037
:1038B0009200920092009200920092009200920078
:1038C0009200920092009200920092009200920068
:1038D0009200920092009200920092009200920058
:1038E0009200920092009200920092009200920048
:1038F0009200920092009200920092009200920038
:103900009200920092009200920092009200920027
:1039100092004600DF01E601FE0199E7608C002875
:1039200000F018820138E3E184F820B0B8F10D0FFF
:1039300039D8DFE808F0073F3F3F3F3F3F3F7EBEBB
:10394000083F3F0884E7B4F80802002800F000812F
:10395000A58C052DC0F0D38004F5B37504F5DB7894
:10396000284641465022FCF736FD002800F0F08042
:103970004FF6C066CFF6FF76A11901F5B37001F5D9
:10398000DB71502203F0BCF95036F5D128460021F6
:10399000502203F069FAB4F808222846414603F0A1
:1039A000AFF90520CFE0B8F17F0F42D0B8F1FF0F9B
:1039B0003FF44EAFB4F80802502828BFA4F808B26C
:1039C000B4F80A32B4F808229A4240F2EB80E118C7
:1039D00001F2B71001F5DB71D21A03F0CFF9D9F873
:1039E0000000B0F80A12084480F8B681D9F8000047
:1039F00090F82110C90707D0B0F80A12084400F562
:103A0000DB71E3A003F0EEF8D9F80000B0F80A4249
:103A1000B0F80802844280F0D58000BF384603F039
:103A2000E1F8D9F800000134B0F808028442F5D377
:103A3000C8E0B4F80A0200283FF40AAFB4F808124C
:103A4000013801398AB283B2A4F808129A42A4F864
:103A50000A0240F2C980E11801F5DB7001F2B711EA
:103A6000D21A03F08BF9D9F80000B0F80812084414
:103A700080F8B6B1D9F80000B0F80A12084400F591
:103A8000DB71C1A003F0AEF8D9F80010B1F80A025A
:103A9000B1F8081288423FF6DBAE441E384603F008
:103AA000A1F8D9F800000134B0F808028442F5D337
:103AB000CEE6D9F80000B0F80A1259B1002400BFD0
:103AC000384603F08FF8D9F800000134B0F80A1234
:103AD0008C42F5D300F5DB754BF60000C0F2000018
:103AE00003F080F8284601F02BF9D9F8000090F88F
:103AF0002100800700F1838086F800B0E2E055B134
:103B000005EB850004F5DB7104EB001050222A3828
:103B1000FCF761FCE0B105EB850004F1260606EB3D
:103B2000001000215022658403F09EF9A08CB4F8A7
:103B3000082200EB800004F5DB7106EB001003F0B7
:103B4000DFF8A08C013040F26876C2F20006A08453
:103B5000A08CD9F80010608491F82100C00705D02E
:103B60004BF60000C0F2000003F03CF8D9F800006A
:103B7000B0F8081200F5DB7001F06AF9D9F800001E
:103B800090F82100800702D486F800B04FE040F2A0
:103B9000EC70C2F200000168E9B330468022FCF705
:103BA000F9FB3FE0A01880F8B681D9F8000090F842
:103BB0002100C00706D04AF64870C0F20000414616
:103BC00003F010F8D9F80000B0F80812B0F80A2293
:103BD0000131A0F8081289B201325029A0F80A2256
:103BE00028BFC0F808B233E666A002F0FBFFD9F8A0
:103BF0000000B0F80812084480F8B6B128E640F298
:103C0000EC70C2F20000016800294FD030468022DB
:103C1000FCF7C0FB51E047F26D30C2F2680086F855
:103C200004B030603046FCF7C1FB3E2131523046D3
:103C300002F0D8FFD9F80000002100F5DB70512216
:103C400003F012F9D9F80000C0F808B200E6A18C20
:103C5000628C481E904248DD501C49E0B4F80A02CC
:103C6000B4F808128842BFF4F3AD204490F8B611BE
:103C70004AF64870C0F2000002F0B4FFD9F8000024
:103C8000B0F80A120131A0F80A12E1E5B4F80A020C
:103C900000283FF4DDAD384602F0A4FFD9F800005B
:103CA000B0F80A120139A0F80A12D1E547F26D30D6
:103CB000C2F2680086F804B030603046FCF776FB4C
:103CC0003E2131524BF2B560C0F2000031462A4627
:103CD00002F088FFD9F8004004F5DB70FCF766FBC2
:103CE000A4F80802A4F80A02B2E500293FF4B0AD36
:103CF00081B26084890011FA80F104F5DB7004EB75
:103D000001115022263102F0FBFFD9F8004004F5E2
:103D1000DB752846FCF74AFBA4F80802A4F80A025F
:103D20004BF28860C0F2000002F05CFFD9F800009E
:103D300090F82100800702D486F800B019E040F224
:103D4000EC70C2F20000016839B130468022FCF705
:103D500021FB09E0A4F822B07AE547F26D30C2F207
:103D6000680086F804B030603046FCF71FFB3E2147
:103D700031524BF2B560C0F2000031462A4602F0E3
:103D800031FF65E5082008000825732020080000A1
:103D90002573000080B5C1B24AF64870C0F2000039
:103DA00002F020FF012080BD2DE9F04F8BB00920EB
:103DB00003F0C4FB4BF67C12044636A0C0F20002AE
:103DC000082102F00FFF4BF633056FF00706C0F233
:103DD000000500BF284602F005FF0136FAD337A0E0
:103DE00004F1040902F0FEFE00270DF10C0B0FF2A6
:103DF000F80A01E0002F48D03C46002F08BF4F468C
:103E0000FCF78CF954B900243F684F450DD04BF8AE
:103E100024700134082CF7D1082407E017F8041C9B
:103E200001F07F010929EED000240027FCF77AF980
:103E3000012CDFDB5E461BE0FCF774F998F80810F4
:103E400027A01D299EBF4AF69C00C0F2000050F832
:103E5000210098F80E50A8F10C030090504608215C
:103E60000822019502F0BEFE013C06F10406C1D015
:103E7000D6F80080FCF752F918F8041C01F07F0115
:103E80000929D9D0FCF74EF9EEE700200BB0BDE8C8
:103E9000F08F00BF252D2A2E7320202020202020E7
:103EA000202074797065202020202020202020727E
:103EB000656620636F756E740A000000202D2D2D3D
:103EC0002D2D2D2D2D2D2D2D2D2D2D2D2D2D2D2D22
:103ED0002D202D2D2D2D2D2D2D2D2D2D0A000000C9
:103EE000556E6B6E6F776E00252D2A2E2A73202556
:103EF0002D32307320252D38640A00002DE9F04F53
:103F00008BB0042003F01AFB4BF6DF12044650A0DE
:103F1000C0F20002082102F065FE4BF633056FF097
:103F20000706C0F2000500BF284602F05BFE01361E
:103F3000FAD350A0261D02F055FE4BF6A8174BF6FB
:103F4000350B0025C0F20007C0F2000B029602E01C
:103F5000029E002D77D02C46002D08BF3546FCF779
:103F6000DDF89CB94FF0000803AC00BF2D68B542E6
:103F70000AD044F8285008F10108B8F1080FF5D12B
:103F80004FF008080CE000BF002509E015F8041CFC
:103F900001F07F010429E5D04FF00008002503ACB3
:103FA000FCF7C0F8B8F1010FD2DB4FF0000905E0D3
:103FB000FCF7B8F809F10109C145C9D054F829A0A6
:103FC000FCF7ACF81AF8041C01F07F010429EFD1CA
:103FD000FCF7A8F85AF8080FDAF808605045AAF17B
:103FE000140329D04FF0FF34504600BF006801345D
:103FF0005045FBD127A0082108220096019402F029
:10400000F1FDDAF8006003AC56450ED0A6F11402BB
:104010003846082102F0E6FD306850451CBF58467E
:1040200002F0E0FD36685645F0D14BF60000C0F2D4
:10403000000002F0D7FDBDE71CA008210822009671
:1040400002F0D0FDB6E700200BB0BDE8F08F00BF56
:10405000252D2A2E732020202020207365742020F7
:10406000202073757370656E642074687265616476
:104070000A00000020202D2D2D2D2D2D2D2D2D2D34
:10408000202D2D2D2D2D2D2D2D2D2D2D2D2D2D0A90
:1040900000000000252D2A2E2A732020307825309C
:1040A000387820253033643A00000000252D2A2E70
:1040B0002A73202030782530387820300A0000001C
:1040C0002DE9F04F8DB0052003F038FA4BF6EB12D6
:1040D000044656A0C0F20002082102F083FD4BF610
:1040E00033056FF00706C0F2000500BF284602F056
:1040F00079FD0136FAD356A0261D02F073FD4BF66A
:10410000A817002505ACC0F20007049604E000BF24
:10411000049E002D00F08580A846002D08BF35467E
:10412000FBF7FCFFB8F1000F10D14FF0000800BF03
:104130002D68B54212D044F8285008F10108B8F1B2
:10414000080FF5D14FF0080809E000BF15F8041C6E
:1041500001F07F010529E8D04FF000080025FBF7AA
:10416000E1FFB8F1010FD3DB4FF0000906E000BF1B
:10417000FBF7D8FF09F10109C145C9D054F829A0BE
:10418000FBF7CCFF1AF8041C01F07F010529EFD1E1
:10419000FBF7C8FF5AF8082F4FF0FF36BAF80E1099
:1041A000BAF80C005245AAF1140352462CD000BFB5
:1041B000126801365245FBD1CDE900102BA0082131
:1041C0000822029602F00EFDDAF800B04BF6350632
:1041D000D345C0F2000610D0ABF1140238460821D6
:1041E00002F000FDDBF8000050451CBF304602F035
:1041F000F9FCDBF800B0D345EED14BF60000C0F27D
:10420000000002F0EFFCB5E7126801365245FBD121
:10421000CDE900101BA008210822029602F0E2FC62
:10422000A8E700200DB0BDE8F08F00BF252D2A2E95
:104230007320656E7472792073697A652073757363
:1042400070656E64207468726561640A0000000025
:10425000202D2D2D2D20202D2D2D2D202D2D2D2DC2
:104260002D2D2D2D2D2D2D2D2D2D0A00252D2A2ED8
:104270002A732025303464202025303464202564BE
:104280003A000000252D2A2E2A7320253034642080
:1042900020253034642025640A0000002DE9F04F09
:1042A0008DB0082003F04AF94BF69A12044654A048
:1042B000C0F20002082102F095FC4BF633056FF0C6
:1042C0000706C0F2000500BF284602F08BFC01364D
:1042D000FAD355A0261D02F085FC4BF6A815002444
:1042E00005AFC0F20005049604E000BF049E002C58
:1042F00000F08180A046002C08BF3446FBF70EFF7B
:10430000B8F1000F10D14FF0000800BF2468B4428C
:1043100012D047F8284008F10108B8F1080FF5D18C
:104320004FF0080809E000BF14F8041C01F07F01F9
:104330000829E8D04FF000080024FBF7F3FEB8F19D
:10434000010FD3DB4FF0000906E000BFFBF7EAFEE8
:1043500009F10109C145C9D057F829B0FBF7DEFEC4
:104360001BF8041C01F07F010829EFD1FBF7DAFEEE
:10437000DA465AF8201F0020514503D00968013061
:104380005145FBD1DBE90616DBF81020AAF12C031E
:1043900030B3CDE9002103902CA008210822029619
:1043A00002F020FCDAF800604BF635075645C0F203
:1043B00000070ED0A6F114022846082102F012FCD4
:1043C000306850451CBF384602F00CFC3668564534
:1043D000F0D14BF60000C0F2000002F003FC08E050
:1043E000CDE90021039020A008210822029602F0C6
:1043F000F9FB05AFACE700200DB0BDE8F08F00BFC2
:10440000252D2A2E7320626C6F636B20746F74618C
:104410006C20667265652073757370656E642074B8
:1044200068726561640A0000202D2D2D2D20202D3D
:104430002D2D2D20202D2D2D2D202D2D2D2D2D2DD3
:104440002D2D2D2D2D2D2D2D0A000000252D2A2E50
:104450002A73202530346420202530346420202520
:104460003034642025643A00252D2A2E2A73202515
:1044700030346420202530346420202530346420FA
:1044800025640A002DE9F04F8BB0062003F056F8A2
:104490004BF68812044654A0C0F20002082102F034
:1044A000A1FB4BF633056FF00706C0F2000500BF15
:1044B000284602F097FB0136FAD352A0261D02F0DF
:1044C00091FB4BF6A817002503ACC0F2000702963B
:1044D00004E000BF029E002D00F08280A846002D5F
:1044E00008BF3546FBF71AFEB8F1000F10D14FF0A8
:1044F000000800BF2D68B54212D044F8285008F1DA
:104500000108B8F1080FF5D14FF0080809E000BF25
:1045100015F8041C01F07F010629E8D04FF00008CF
:104520000025FBF7FFFDB8F1010FD3DB4FF00009C9
:1045300006E000BFFBF7F6FD09F10109C145C9D04E
:1045400054F829A0FBF7EAFD1AF8041C01F07F01DA
:104550000629EFD1FBF7E6FD5AF8081F4FF0FF36AA
:10456000BAF810005145AAF1140351462CD000BFEF
:10457000096801365145FBD1009028A00821082286
:10458000019602F02FFBDAF800B04BF63506D34562
:10459000C0F2000611D000BFABF11402384608216A
:1045A00002F020FBDBF8000050451CBF304602F053
:1045B00019FBDBF800B0D345EED14BF60000C0F29A
:1045C000000002F00FFBB7E7096801365145FBD147
:1045D000009017A008210822019602F003FBABE728
:1045E00000200BB0BDE8F08F252D2A2E7320656EBC
:1045F0007472792073757370656E64207468726567
:1046000061640A00202D2D2D2D20202D2D2D2D2DE6
:104610002D2D2D2D2D2D2D2D2D0A0000252D2A2E51
:104620002A732025303464202025643A00000000DD
:10463000252D2A2E2A732025303464202025640A53
:10464000000000002DE9F04F8DB0032002F076FF4E
:104650004BF6E512044636A0C0F20002082102F033
:10466000C1FA4BF633056FF00706C0F2000500BF34
:10467000284602F0B7FA0136FAD336A004F1040A4C
:1046800002F0B0FA00270DF1140B0FF2E80901E077
:10469000002F48D03C46002F08BF5746FBF73EFD91
:1046A00054B900243F6857450DD04BF824700134AD
:1046B000082CF7D1082407E017F8041C01F07F014B
:1046C0000329EED000240027FBF72CFD012CDFDBB3
:1046D000002502E00135A542DAD05BF82560FBF742
:1046E0001DFD16F8041C01F07F08FBF71BFDB8F157
:1046F000030FEFD1D6F814C0F17C06F108004FF09B
:10470000FF3203461B6801328342FBD1A6F10C0342
:10471000CDE901C1039248460821082208260096E7
:1047200002F060FAD6E700200DB0BDE8F08F00BFC0
:10473000252D2A2E732020206F776E657220206829
:104740006F6C642073757370656E64207468726535
:1047500061640A00202D2D2D2D2D2D2D2D202D2D88
:104760002D2D202D2D2D2D2D2D2D2D2D2D2D2D2D86
:104770002D0A0000252D2A2E2A7320252D382E2AB9
:104780007320253034642025640A00002DE9F04FA1
:104790008BB0022002F0D2FE044653A059A2082199
:1047A00002F020FA4BF633056FF00706C0F2000561
:1047B000284602F017FA0136FAD355A0261D02F05A
:1047C00011FA4BF6A817002503ACC0F200070296B9
:1047D00004E000BF029E002D00F08280A846002D5C
:1047E00008BF3546FBF79AFCB8F1000F10D14FF027
:1047F000000800BF2D68B54212D044F8285008F1D7
:104800000108B8F1080FF5D14FF0080809E000BF22
:1048100015F8041C01F07F010229E8D04FF00008D0
:104820000025FBF77FFCB8F1010FD3DB4FF0000947
:1048300006E000BFFBF776FC09F10109C145C9D0CC
:1048400054F829A0FBF76AFC1AF8041C01F07F0158
:104850000229EFD1FBF766FC5AF8081F4FF0FF362C
:10486000BAF808005145AAF1140351462CD000BFF4
:10487000096801365145FBD100902BA00821082280
:10488000019602F0AFF9DAF800B04BF63506D345E1
:10489000C0F2000611D000BFABF114023846082167
:1048A00002F0A0F9DBF8000050451CBF304602F0D2
:1048B00099F9DBF800B0D345EED14BF60000C0F219
:1048C000000002F08FF9B7E7096801365145FBD1C6
:1048D000009019A008210822019602F083F9ABE7A5
:1048E00000200BB0BDE8F08F252D2A2E73207620F6
:1048F000202073757370656E6420746872656164DE
:104900000A00000073656D6170686F7265000000D9
:10491000202D2D2D202D2D2D2D2D2D2D2D2D2D2DE1
:104920002D2D2D0A00000000252D2A2E2A7320256A
:104930003033642025643A00252D2A2E2A73202541
:104940003033642025640A002DE9F04FABB001201C
:1049500002F0F4FD04464BF2F8604CF24602C0F25D
:104960000000C0F20002082102F03CF94BF63305CA
:104970006FF00706C0F20005284602F033F9013651
:10498000FAD34BA0251D02F02DF94FF0000923AEFC
:10499000029504E0029DB9F1000F00F084804C46BE
:1049A000B9F1000F08BFA946FBF7B8FB84B94FF077
:1049B000000A00BFD9F80090A94511D046F82A9006
:1049C0000AF1010ABAF1080FF4D14FF0080A09E020
:1049D00019F8041C01F07F010129E8D04FF0000A0A
:1049E0004FF00009FBF79EFBBAF1010FD2DB4FF04D
:1049F000000B06E03846FBF795FB0BF1010BD345A6
:104A0000C8D056F82B50FBF789FB15F8041C074655
:104A100001F07F010129EDD1A5F10C0403A8214685
:104A2000802202F06DF93846FBF77CFB95F829707F
:104A30002FA0082108222346009702F0D3F895F80A
:104A40002800F12100F0070080F00400C140C907F0
:104A500004D02AA151F8200002F0C4F8E96900222C
:104A6000885C01322328FBD0D5E908406427A21ACC
:104A700002FB07F22B69D5F83C8021446432B2FB7B
:104A8000F4F7CD1A04F014FA06464BF23C70C0F26B
:104A90000000294622463B46CDF80080019602F0F0
:104AA000A1F823AEA9E700202BB0BDE8F08F00BF2E
:104AB000202D2D2D20202D2D2D2D2D2D2D202D2D5A
:104AC0002D2D2D2D2D2D2D2D202D2D2D2D2D2D2D23
:104AD0002D2D2D20202D2D2D2D2D2D20202D2D2D3A
:104AE0002D2D2D2D2D2D2D202D2D2D0A00000000DA
:104AF000252D2A2E2A732025336420000BB80000B0
:104B000014B8000014B8000014B8000002B8000087
:104B100014B800003BB8000091B900002DE9F04F37
:104B20008BB00A2002F00AFD4BF6A212044644A004
:104B3000C0F20002082102F055F84BF633056FF081
:104B40000706C0F2000500BF284602F04BF8013608
:104B5000FAD348A004F1040802F044F800240DF14F
:104B60000C0A01E0002C5ED02646002C08BF44460B
:104B7000FBF7D4FA86B94FF0000900BF246844451A
:104B800012D04AF8294009F10109B9F1080FF5D10D
:104B90004FF0080909E000BF14F8041C01F07F0180
:104BA0000A29E8D04FF000090024FBF7BBFAB9F15D
:104BB000010FD7DB564629E0ABF10C07FBF7B2FA41
:104BC000DBE90605082100904BF61D00C0F200004D
:104BD00008223B46019502F005F81BF8030C31A1B1
:104BE000C00734A008BF084601F0FCFF1BF8030C07
:104BF00080075ABF4BF2E370C0F2000031A001F011
:104C0000F1FFB9F1010906F10406ABD0D6F800B006
:104C1000FBF784FA1BF8041C01F07F010A29CBD0B2
:104C2000FBF780FAEDE704F00FFE01464BF2ED7062
:104C3000C0F2000001F0D6FF00200BB0BDE8F08FFD
:104C4000252D2A2E732020706572696F6469632098
:104C5000202074696D656F75742020202061637455
:104C600069766174656420202020206D6F64650A78
:104C700000000000202D2D2D2D2D2D2D2D2D2D2032
:104C80002D2D2D2D2D2D2D2D2D2D202D2D2D2D2D61
:104C90002D2D2D2D2D2D202D2D2D2D2D2D2D2D2D51
:104CA0000A0000006465616374697661746564205C
:104CB00000000000616374697661746564202020DF
:104CC00000000000706572696F6469630A0000008B
:104CD00008A005F09FFAFDF76DF9FBF71BFDFBF748
:104CE000AFFC07A4204605F095FA0820FEF732FC39
:104CF000F8E700BF4150502053746172742E0000D9
:104D00000A0D4150502053746172742E000000004F
:104D1000B0B54CF230444CF22840C0F20004C0F26E
:104D20000000A04209D24CF22845C0F2000500BFA5
:104D300055F8040B8047A542FAD3FFF7C9FFB0BD71
:104D40002DE9F04704460078002844D040F2D440D2
:104D500040F2D84AC2F20000C2F2000A0768DAF84C
:104D60000000874263D200250FF2E0084FF00009EF
:104D70000EE000BFA0EB0900A842B8BF05464046C0
:104D8000314601F02FFFDAF800000C37874251D28C
:104D90003E682046FBF70AFB024620463146FBF7F9
:104DA0003BFB0028EFD125B93046FBF7FFFA05465B
:104DB000B14699F8001048460029DBD048463246F3
:104DC0001378002BD6D09942D4D110F8011F0132AC
:104DD0000029F5D1CEE74BF2BA60C0F2000001F035
:104DE00001FF40F2D44040F2D845C2F20000C2F2C6
:104DF000000500682968884211D24BF2D564A0F101
:104E00000C06C0F2000400BF56F80C1F2046726862
:104E100001F0E8FE286806F10C018142F4D34BF65C
:104E20000000C0F2000001F0DDFEBDE8F0874FF0A9
:104E300000090025B9F1000F08BFBDE8F087204642
:104E400049462A4604F07CF8BDE8F08725730A003D
:104E50002DE9F04F8BB059B10C4683469BF800000A
:104E6000202818BF092807D1013C0BF1010BF5D10F
:104E700000200BB0BDE8F08F002603E0B44200F044
:104E8000BA8001361BF80600092818BF2028F5D182
:104E9000002E00F0B48040F2D440C2F20000076857
:104EA00040F2D840C2F20000056800E00C37AF4283
:104EB0000ED2D7F80080594640463246FBF7ACFA8E
:104EC0000028F3D118F806000028EFD1B86800E0F8
:104ED000002000284FF0000800F093800DF1040935
:104EE000009048460021282201F0BEFF4FF0000A42
:104EF0000023594602E000BFA3426DD225460A4670
:104F00001846A34288BF1D461178202918BF0929D9
:104F100007D1854204D002F8018B0130F4E700BFCD
:104F20002846BAF10A0F44D2A04255D222291DD1F7
:104F3000511C49F82A105678431C03E011F8016F00
:104F400018460133A3424FF0000238BF0122222E3F
:104F500022D0A34220D25C2EF0D10A4612F8017F63
:104F6000222F04BF1146831CE8E700BF234649F8FF
:104F70002A20A04288BF0346191A0AF1010A1144E7
:104F8000C51A0026975D092F18BF202F0CD0AF1926
:104F90000CD00136F6E700BF0AF1010AE2B101F8D0
:104FA000018B831CA8E700BF91198319A342A3D3E7
:104FB00012E01FA001F016FE002425A559F82410C8
:104FC000284601F00FFE0134A245F7D14BF6000050
:104FD000C0F2000001F006FEBAF1000F0FD0009AF7
:104FE00001A9504690474FF00108B8F1000F0BD0CF
:104FF0000BB0BDE8F08F2646002E7FF44CAF4FF08B
:105000000008B8F1000FF3D1584600BF017841F015
:105010002001202901D00130F8E7002101700DA006
:10502000594601F0DFFD4FF0FF300BB0BDE8F08FC7
:10503000546F6F206D616E7920617267732021203B
:105040005765206F6E6C79205573653A0A00000031
:105050002573200025733A20636F6D6D616E6420A7
:105060006E6F7420666F756E642E0A0070B54BF219
:10507000BA60C0F2000001F0B5FD40F2D44040F249
:10508000D845C2F20000C2F20005006829688842D3
:1050900011D24BF2D564A0F10C06C0F2000400BF9F
:1050A00056F80C1F2046726801F09CFD286806F136
:1050B0000C018142F4D34BF60000C0F2000001F075
:1050C00091FD002070BD0000B0B5C8B10446007865
:1050D000B0B12D2814BF2B2801342578002D04BF32
:1050E0000120B0BDFBF73AF90068611C425D202A3F
:1050F00006D111F8015B002D04BF0120B0BDF5E71A
:105100000020B0BDB0B50546806A0C46884207D97C
:105110004BF610711DA0C0F20001822200F046F98A
:10512000E86AA04207D84BF6107121A0C0F2000136
:10513000832200F03BF9A86A61680144A14211D0C2
:105140000A78D2070ED1EA6A91420BD02A6B8A42C2
:1051500008BF2C634B68002263600A604968221A0A
:1051600001448A60A1684218A24208BFB0BD13780A
:10517000DB070AD12B6BA34208BF2A6363680025B3
:1051800053606268256010448160B0BD2872745F0E
:1051900075696E74385F74202A296D656D203E3DF7
:1051A000206D2D3E686561705F70747200000000B4
:1051B0002872745F75696E74385F74202A296D6572
:1051C0006D203C202872745F75696E74385F74209E
:1051D0002A296D2D3E686561705F656E6400000070
:1051E0002DE9F04F88B0DDF84CA00FF2AC1B5FEA60
:1051F0004A6764A758BFBB465FEACA6748BF2AF040
:10520000010A5FEACA774FF0300708BF20270197ED
:105210005FEA8A7705D400270297002701260097C6
:1052200012E0B2F1FF3F07DD5FEA4A7707D45FEA99
:105230000A77F0D5202703E052422D2700E02B27E4
:105240000097002601270297DDF848C0039602B3B5
:105250004CF6CD4E0025CCF6CC4E0DF1100900BF1A
:10526000A2FB0E6702F00F04FE0806EB86060A2B6F
:1052700008BFA2EB46041BF804404FEA121205F1E6
:10528000010808BFFA0809F80540002A4546E7D199
:1052900004E030228DF810204FF00108119AE0450B
:1052A0006346C8BF43461AF0110FA2EB030202D0B7
:1052B000039FB7B11BE00027002AC8BF0127029E49
:1052C0003740D21B012A58DB039F2025884238BF74
:1052D0000570013A002A00F10100F7DC4FF0FF32BF
:1052E0002FB988423CBF009F0770013A01305FEA46
:1052F000CA6702D5E04513DB1CE0012A0DDB019FE4
:10530000884238BF0770013A002A00F10100F7DC3B
:105310004FF0FF32E04503DB0CE0013AE04509DAEB
:10532000302700BF884238BF0770013B984500F125
:105330000100F7DBBCF1000F0FD004AB013B00BF55
:1053400088423CBF13F808700770BCF1000F00F1F1
:10535000010002D0B8F10108F2DC012A0ADB0132B7
:10536000202300BF884238BF0370013A012A00F1B0
:105370000100F7DC08B0BDE8F08F039F013A002F71
:10538000AFD0B4E730313233343536373839616233
:1053900063646566000000003031323334353637DF
:1053A00038394142434445460000000080B582B090
:1053B000944600228DF8072040F69002C2F20002C7
:1053C00013680A46014623B10846114662469847CB
:1053D0000AE04BF62E40C0F20000634601F002FCEA
:1053E0009DF807000028FBD002B080BDB0B501FBDE
:1053F00000F4204601F026FC054620B12846002195
:10540000224601F031FD2846B0BD0000B0B504468B
:1054100038B94BF25C10C0F200000FA17F22FFF7F9
:10542000C5FF2068012808BFB0BDFAF777FE01214B
:10543000216054F8041F0546A14209D020681438A1
:1054400004F084F82846FAF76DFE02F025F9B0BDA5
:105450002846FAF767FEB0BD72745F636F6D706CBB
:105460006574696F6E5F646F6E65000010B5044609
:1054700038B94BF25C10C0F2000007A11B22FFF705
:1054800095FFFAF74BFE0021221DC4E90012A2602D
:10549000FAF748FE10BD00BF72745F636F6D706CE9
:1054A0006574696F6E5F696E697400002DE9F04183
:1054B00082B00446019150B94BF25C104BF272116C
:1054C000C0F20000C0F200013A22FFF76FFF01981E
:1054D00000284DD0FAF722FE804600F0FFF878B1A0
:1054E0004BF27216C0F2000648A0314601F07AFB7A
:1054F0004BF6FC50C0F2000031463D22FFF756FF4C
:10550000FAF70CFE064604F06DF878B94BF2721704
:10551000C0F2000748A0394601F064FB4BF6FC508E
:10552000C0F2000039463D22FFF740FFFAF7F6FDD2
:10553000074601F033FB90B14BF272154BF20610A7
:10554000C0F20005C0F20000294601F04BFB4BF60B
:10555000FC50C0F2000029463D22FFF727FF3846E5
:10556000FAF7E0FD3046FAF7DDFD4046FAF7DAFDDE
:1055700004F038F80646FAF7D1FD216805460129FE
:105580004FF0000801D1002633E0274657F8040FFA
:10559000B8420AD04BF22D104BF27211C0F200004B
:1055A000C0F200014622FFF701FF019820B300205E
:1055B0003063304604F0C0F8A06806F114010160C1
:1055C000B0610198A1600128776109DB06F14C0701
:1055D00001AA3846002104F0E7F9384604F0F6FA4B
:1055E0002846FAF79FFD02F057F8366BFAF796FD5A
:1055F0000546C4F8008001E06FF001062846FAF77E
:1056000091FD304602B0BDE8F08100BF46756E6383
:1056100074696F6E5B25735D3A20736368656475AA
:105620006C6572206973206E6F7420617661696C9D
:1056300061626C650A00000046756E6374696F6E86
:105640005B25735D207368616C6C206E6F742062E3
:10565000652075736564206265666F72652073638B
:10566000686564756C65722073746172740A0000F9
:10567000B0B54CF228444CF22040C0F20004C0F215
:105680000000A04228BFB0BD4CF22045C0F200058A
:1056900055F8040B8047A542FAD3B0BD40F26C40E8
:1056A000C2F200000068704770B540F26C46C2F26A
:1056B0000006346800F0FAFBA04204BF002070BD71
:1056C000054648B13068002818BF00F0B5FB2846F1
:1056D000432100F0F1FB3560204670BD40F65410C8
:1056E000C2F200000088704710B5044658B94BF26A
:1056F00006204BF28821C0F20000C0F200014FF4F6
:10570000DF72FFF753FE206840F60E61CBF6AD6105
:1057100088420BD04BF2E6104BF28821C0F2000019
:10572000C0F2000140F2BF12FFF740FE204600F039
:1057300023FBFAF7F3FC00212160FAF7F3FCE068A1
:1057400000F020FD002010BDF0B581B01D461746C9
:1057500004460E46F8B15EB340F60E60CBF6AD607F
:1057600020604FF40040A06004F1100004F1180123
:10577000C4E90400F000A680E780C4E906112562B0
:1057800001F060FA01460020002908BF6FF0040014
:10579000E16001B0F0BD4BF206204BF27521C0F282
:1057A0000000C0F200012F22FFF700FE002ED3D12F
:1057B0004BF2752103A0C0F200013022FFF7F6FD85
:1057C000CAE700BF73697A65203E20300000000000
:1057D00070B5144605460E4658B94BF206204BF2FA
:1057E0002A21C0F20000C0F2000140F24F12FFF780
:1057F000DDFD286840F60E61CBF6AD6188420BD026
:105800004BF2E6104BF22A21C0F20000C0F2000178
:105810004FF4A872FFF7CAFDB5F90800002844BF8D
:105820006FF0030070BDFAF779FC2989EA686FF31D
:10583000DF3152F8311031602989EA686FF3DF31C6
:1058400002EBC10149682160FAF76CFC002070BDD1
:105850002DE9F04F83B014460D468246029350B9AD
:105860004BF206204BF24F21C0F20000C0F20001C3
:10587000D722FFF79BFDDAF8000040F60E61CBF669
:10588000AD61884240F09D80002D00F0A880002C82
:1058900000F0B0800298CDE90054002853D0FAF708
:1058A0003DFC0746FFF71AFF90B14BF24F244BF235
:1058B0008510C0F20004C0F20000214601F092F908
:1058C0004BF6FC50C0F200002146DD22FFF76EFDD2
:1058D000FAF724FC054603F085FE90B94BF24F24FD
:1058E0004BF2AF10C0F20004C0F20000214601F0FC
:1058F00079F94BF6FC50C0F200002146DD22FFF79B
:1059000055FDFAF70BFC044601F048F990B14BF253
:105910004F264BF20610C0F20006C0F200003146DE
:1059200001F060F94BF6FC50C0F200003146DD2278
:10593000FFF73CFD2046FAF7F5FB2846FAF7F2FBA5
:105940003846FAF7EFFB03F04DFE0546FAF7E6FBA3
:1059500007460AF1180805F1140905F14C064FF045
:10596000000B0BE03846FAF7DDFB01F095FE2C6BDF
:10597000FAF7D4FB002C074640F0BA80BAF90800C9
:10598000B0F1FF3F3FDC0298002800F0A7802846D6
:10599000C5F830B003F0D0FEDAF81C00C0F8009073
:1059A000A8610298CAF81C900128C5F81480D9DBB8
:1059B0003046002102AA03F0F7FF304604F006F952
:1059C000D0E74BF2E6104BF24F21C0F20000C0F2DC
:1059D0000001D822FFF7EAFC002D7FF458AF4BF20C
:1059E0004F2158A0C0F20001D922FFF7DFFC002CA4
:1059F0007FF450AF4BF24F2157A0C0F20001DA22E2
:105A0000FFF7D4FC46E7DAF80C106FF3DF3051F8FB
:105A10003000009947F6FF720860BAF80800DAF81B
:105A20000C106FF3DF3001EBC00001994068BAF849
:105A300004300860BAF80800411C6FF3DF3190436E
:105A4000994218BF0844BAF80A1002466FF3DF31D2
:105A50006FF3DF329142AAF80800AAF80A1004BFD7
:105A600040F40040AAF80800BAF1000F0BD14BF245
:105A700006204BF23D21C0F20000C0F200014FF4BD
:105A8000ED72FFF793FCDAF8000040F60E61CBF6FA
:105A9000AD6188420BD04BF2E6104BF23D21C0F2D3
:105AA0000000C0F2000140F2DB12FFF77FFCBAF900
:105AB0000800002815D4FAF731FBBAF80A10BAF832
:105AC00008206FF3DF316FF3DF3291429CBFBAF8E9
:105AD000043019448C1AFAF725FB03E06FF0010437
