:020000040000FA
:1000000010170020F9000000010100005902000053
:1000100005010000070100000901000000000000C8
:10002000000000000000000000000000DD020000F1
:100030000D010000000000004B010000E51E000063
:100040001301000013010000130100001301000060
:100050001301000055080000130100001301000007
:1000600071220000850700005522000013010000E6
:100070001301000013010000130100001301000030
:100080001301000013010000130100001301000020
:100090001301000013010000130100001301000010
:1000A0001301000013010000130100001D220000D5
:1000B00039220000130100001301000013010000A9
:1000C00013010000130100001301000013010000E0
:1000D00013010000130100001301000013010000D0
:1000E00013010000DFF80CD000F00AFA00480047C6
:1000F00035060000101700200648804706480047D4
:10010000FEE7FEE7FEE7FEE7FEE7FEE7FEE7FEE7C7
:10011000FEE7FEE761210000E5000000EFF310803C
:1001200072B6704780F3108870475D4A1368012BE0
:1001300004D04FF0010313605A4A10605A4A11600C
:100140005A484FF0805101607047EFF3108272B649
:1001500053480168002902D182F31088704704B423
:100160004FF0000101604F48016859B350490968D8
:10017000A1B103B5084609F051FCBDE80340724641
:1001800012F0400F0AD0EFF30B83EFF31484EFF378
:10019000098525E91E000068056013E0EFF3098179
:1001A0001EF0100F08BF21ED108B21E9F00F404A1F
:1001B00012687346EFF30B84EFF3148521E93C00DA
:1001C000006801603849096809683CC984F30B88F4
:1001D00085F314889E46364E3260104640B10AB40C
:1001E00009F01AFC0ABC9E4613F0400F00D006E04E
:1001F000B1E8F00F1EF0100F08BFB1EC108B81F3C7
:10020000098804BC82F31088704727490860EFF31F
:10021000148222F0040282F3148822494FF0000075
:1002200008601F494FF00100086022482249D0F8B9
:10023000002041EA020101601C484FF0805101603A
:100240001E480068006880F3088861B662B6BFF394
:100250004F8FBFF36F8F7047EFF308801EF0040FCE
:1002600001D0EFF3098020E9F00F114A12687346BC
:10027000EFF30B84EFF3148520E93C0040F804ED24
:100280001EF0040F02D080F3098801E080F3088893
:1002900000B505F04FFE5DF804EB4EF0040E70471C
:1002A0005C0B002098080020A408002004ED00E06A
:1002B000740B002020ED00E00000FFFF08ED00E0DF
:1002C00001DF704712B50C460FCC24E90F0007F090
:1002D0001DFABDE81240086070477047EFF30881CF
:1002E0001EF0040F01D0EFF30981886910F8020CA9
:1002F0000028F2D00128E5D02DE9F05F0546002066
:1003000092469B4688460646814640241BE0284686
:1003100041464746224600F0AAF853465A46C01ABC
:10032000914110D311461846224600F091F82D1A3B
:1003300067EB01084F4622460120002100F088F8B3
:1003400017EB00094E41201EA4F10104DFDC4846F2
:1003500031462A464346BDE8F09F000000487047FA
:10036000D0A30000A0F16101192900D820387047FE
:10037000D2B201E000F8012B491EFBD270470022E7
:10038000F6E710B513460A4604461946FFF7F0FF94
:10039000204610BD10B5044604E00B7800F8013B80
:1003A00003B1491C521EF8D2204610BD421C10F861
:1003B000011B0029FBD1801A704710B5002200E014
:1003C000521C835C8C5CA34201D1002BF8D1D8B2C3
:1003D000E1B2401A10BD30B504460020034600E0EB
:1003E0005B1C934203D2E05CCD5C401BF8D030BD77
:1003F00010B5044600E0401C0378002BFBD100E060
:10040000401C521E04D311F8013B0370002BF7D19E
:1004100000210170204610BD30B50546002003467E
:1004200000E05B1C934205D2EC5CC85C201A01D151
:10043000002CF6D130BD70B5064609F043FD0468C6
:1004400005460A220021304600F021F82C6070BDDC
:10045000202A04DB203A00FA02F100207047914084
:10046000C2F1200320FA03F3194390407047202A79
:1004700004DB203A21FA02F00021704721FA02F34E
:10048000D040C2F1200291400843194670472DE93F
:10049000F04791460F4680460446002614F8015B5B
:1004A0002DB1FFF75BFF0068405DC007F6D12B2D33
:1004B00002D02D2D18D0641E4A463946204600F041
:1004C00031F827B13968A14201D1C7F80080710520
:1004D0004FF002040BD54042002803DD09F0F2FC86
:1004E0000460A007BDE8F08746F48066E4E70028D2
:1004F000F8DA09F0E7FC04606FF00040F2E7000072
:10050000064C074D06E0E06840F0010394E8070060
:1005100098471034AC42F6D3FFF7E8FD64C0000002
:1005200084C000002DE9F05F824600780027154660
:100530008B460AF10104B946302801D09DB113E081
:1005400014F8010B0127782803D0582801D045B1B1
:100550000AE00DB1102D07D10027102514F8010B6A
:1005600002E0082500E00A250026B0460EE005FB63
:10057000080005FB06F1012701EB10461FFA80F881
:10058000B6F5803F00D3B94614F8010B294600F0B8
:1005900018F80028EBDABBF1000F05D00FB1641E8C
:1005A00000E05446CBF80040B9F1000F06D009F046
:1005B00089FC02210160C81EBDE8F09F48EA0640A0
:1005C000FAE73A2800D2303820F02002412A01D33D
:1005D000A2F13700884201D34FF0FF30704770B569
:1005E0008C1810F8015B15F0070301D110F8013BDE
:1005F0002A1106D110F8012B03E010F8016B01F865
:10060000016B5B1EF9D12B0705D40023521E0DD4BC
:1006100001F8013BFAE710F8013BCB1A921C03E00A
:1006200013F8015B01F8015B521EF9D5A142D8D342
:10063000002070BD80B509F087FB002080BD000060
:1006400040F20046C4F20106306840F2344740F000
:100650000400C2F2000700240FF2740826A53060DF
:100660003C7016E0012000F0FBFE00F0DF010120ED
:1006700000F0FAFE00F0D4FF0120B02100F0F4FEFB
:10068000306840F0040030603C704FF4FA7002F0C3
:10069000ABFD38780028F8D0306820F004003060D6
:1006A00000F090FF022809D00128DBD00028E7D114
:1006B000284609F0F7FB00F0B3FF02E0404609F0DE
:1006C000F1FB01F039FA01F0D5F800F009FFD7E7A6
:1006D0000D0A41434454494D45525F4952513A52E3
:1006E00065636F6E666967757265207468652072F0
:1006F00065676973746572000D0A4F7468657220CE
:10070000495251204F6363757200000001F0B2F846
:1007100000F0AEFE70B50646052014460D4600F00A
:100720009FFE00F0FB01052000F09EFE012000214D
:1007300000F09AFE0A2000F093FE40F080010A20AB
:1007400000F092FE3DB1013E16F8011F092000F0B5
:100750008BFE013DF8D10120032100F085FEFF252D
:10076000052000F07DFE013D290602D010F00400B6
:10077000F6D0222000F074FE2070212000F070FEE0
:10078000607070BD2DE9F04141F20805C4F2020528
:1007900006F034F840F680310020C2F20001012258
:1007A0000C18EF68A36CDE68F668F740FF070ED1FF
:1007B000EF681B69DB6802FA03F33B4242D1E43085
:1007C000B0F5647FECD106F03DF8BDE8F081D4F8D7
:1007D000DC80FFF7A3FC274637F8D91FBA7857F813
:1007E000993C41EA02411A6857F8913CD268C1F33A
:1007F0008F016FF31F328E1ADA68002147F8651CEB
:10080000D16801222B6802FA01F119432960FFF730
:1008100089FC2EB1310204F1A400033105F078FD0A
:10082000B8783988D8F8003041EA0040B8F80410A8
:10083000C0F38F021944204600F09AFC06F002F83B
:10084000BDE8F08128681843286005F0FBFFBDE88B
:10085000F0810000B0B540F21445C4F2010505F086
:10086000CDFF40F2B400C2F2000040F27412043036
:100870000021C2F2000200BF2C68535A1C4208D16A
:100880001431B1F5A07F00F10C00F5D105F0DAFFCD
:10089000B0BD2B6001680029F8D04068884705F09A
:1008A000D1FFB0BDB0B5044600684EF60071CBF67E
:1008B000FD7108444FEA7010072839D8A068002855
:1008C00018BFB0F5805F2CD1E068322830D8A0691D
:1008D000002818BFB0F5002F27D1E06901250028B6
:1008E00018BFB0F5800F25D11A2001F077FC4EF229
:1008F0000010CEF200004FF40071C0F880110160CA
:1009000041F23000C4F202000560A16820680022B4
:10091000B1F5006F026112D0B1F5805F14D10122F0
:100920000EE0B0F5006F03D1CEE7B0F5802FD4D044
:100930000120B0BDB0F5001FD6D02846B0BD1322AF
:10094000E36803FA02F2E26004F10C0C9CE82C105C
:10095000114301614FF00041C160C16843EA0502E3
:100960001143C160E169C26841EA0C0111430025ED
:10097000C1602846B0BD000070B5D0F804E0BEF1FB
:10098000010F3DD804684EF60070CBF6FD7004EB05
:10099000000CBEF1000F4FEA7C1E1FD0BEF1070F06
:1009A0002ED86FF00F0000EA5C0E40F2B43CC2F2A9
:1009B000000C0CEB0E0021606260A060E56840F660
:1009C000FF76B5431D43E5604CF80E10C0E90120E9
:1009D000E1686FF30B011943C1600AE0BEF1070F34
:1009E0000ED821606260E06840F6FF7188431843CA
:1009F000E06020694CF2010108432061002070BDD5
:100A0000012070BD7047000040F21440C4F20100A4
:100A1000016861F07F4101607047000080B5436864
:100A2000591E012926D881680139022922D8016876
:100A30000022B2EB114F02D1C268052A1AD840F247
:100A4000084C022BC4F2010C16D0012B1ED15CF80D
:100A5000082C20230A434CF8082C5CF8042C8A4309
:100A60004CF8042C4EF20012CEF20002C2F8803193
:100A700013600BE0012080BD5CF8042C0A434CF8A5
:100A8000042C5CF8082C8A434CF8082C8268022A53
:100A90000DD0012A15D1DCF800200A43CCF8002043
:100AA000DCF8042022EA0101CCF8041013E0DCF8A1
:100AB00004200A43CCF80420DCF8002022EA0101DB
:100AC00007E0DCF804200A43CCF80420DCF800201E
:100AD0001143CCF80010D0F800E00021B1EB1E4F1C
:100AE00025D16FF003014FF0FF3200BF01322EFA23
:100AF00002F3012B01F10401F8D1072A0BD8DCF82D
:100B000010200F23C0688B409A4388401043CCF8D4
:100B10001000002080BDDCF8142020390F23C068AD
:100B20008B409A43884010430021CCF814000846BB
:100B300080BD00002DE9F04F85B0052800F2A881A6
:100B4000054608680C460021B1EB104F40F0A0812B
:100B500080B2002800F09C81606841F20101C0F27F
:100B60000101884240F20001CEF6FF7109DCB0F5C8
:100B7000803F10DA032818BF052811D041F2040184
:100B800006E0014405290BD341F20201C0F2010144
:100B9000884205D07CE1A0F58030022880F0788181
:100BA000052D5ED80120A840810720D110F00C0F40
:100BB00036D0012001F012FB40F670074FF200061C
:100BC000C4F20107C4F2010607F1300007F1340254
:100BD00007F1440C07F14803032D06F580650390E7
:100BE0004AD107F12800029007F12C0034E00020E0
:100BF00001F0F4FA40F67000C4F20100012D4FF24A
:100C0000000500F1040200F1140C00F11803C4F215
:100C10000105039036D1A0F10801029104381BE0D0
:100C20000C2001F0DBFA40F670074FF20006C4F228
:100C30000107C4F2010607F1600007F1640207F141
:100C4000740C07F17803052D06F5006503901ED19D
:100C500007F1580002900020276801903F042760A8
:100C60001BE0002002900020019000200390002251
:100C70004FF0000C002310E007F12000029007F174
:100C8000240009E0A0F110010C38029104E007F102
:100C90005000029007F1540001902768002F00F0E7
:100CA000F7804FF0010804921BE06FF01F00019ADB
:100CB00000EB8A0011680F2707FA00F021EA000014
:100CC000106060680528186814BF20EA0B0740EA26
:100CD0000B071F60276837FA08F008F1010800F0D9
:100CE000D780A8F1010A012000FA0AF617EA060BDC
:100CF000F0D0D4F804E0BEF5803F0FDCBEF1030F66
:100D000057D041F20400864553D0BEF5803F40F0F5
:100D10007F802F6827EA0B072F6079E00020CEF64E
:100D2000FF700EEB00060022052EC1F2010253D225
:100D300028682EF0010120EA0B002860A869914282
:100D40006FEA0B0940EA0B00A8610FD1E8699645EC
:100D500000EA0900E861286A00EA09002862686A76
:100D600014BF00EA090040EA0B006862901C864547
:100D700007D1E86900EA0900E861286A40EA0B0047
:100D800028624FF6FD70CEF6FE70704401283FD801
:100D9000E869002140EA0B00C1F20101E86103317A
:100DA000686A8E4514BF00EA090040EA0B006862D9
:100DB0002EE0BAF1100F574628BFA8F11107072FF0
:100DC00018D8029ABF000F20166800FA07F1E068F1
:100DD00026EA0101B84019E0BEF1011F05D041F239
:100DE0000200C0F20100864512D12F6847EA0B07C6
:100DF0002F600DE06FF01F00019A00EB8700116873
:100E00000F27E6688740B94306FA00F008431060F0
:100E1000A768022F08D00499012F0FD0BFB9039FF4
:100E2000386820EA0B000DE00399086820EA0B00FF
:100E300008600499086840EA0B0707E0039F3868D8
:100E400040EA0B003860086820EA0B070F60607901
:100E5000C006DCF8000054BF20EA0B0740EA0B078D
:100E6000CCF80070A079C0073FF42BAFBAF1100F97
:100E700028BFA8F1110ABAF1070F3FF616AF029A80
:100E80004FEA8A0110680F2707FA01F1884317E734
:100E900005B0BDE8F08F0000021F022A4FF20002E9
:100EA000C4F2010212D3831E012B98BF02F58062A7
:100EB000052806D8012303FA00F010F02A0F18BF06
:100EC00009045069084018BF0120704702F500620C
:100ED0000528EFD9F5E7000005282AD80023B3EB51
:100EE000114F26D18BB223B3012A88BF7047031F4D
:100EF0004FF2000C022BC4F2010C1BD3831E012BFA
:100F000098BF0CF5806C052806D8012303FA00F081
:100F100010F02A0F18BF0904012A05D1DCF81000CF
:100F20000843CCF810007047DCF810008843CCF878
:100F3000100070470CF5006C0528E6D9ECE70000BE
:100F40002DE9F0470446006844F6FF31C4F2000181
:100F500088424FF0010508DC44F20041C4F2000170
:100F600088420FD044F6000107E043F60001C4F2C6
:100F70000101884206D044F60041C4F200018842D3
:100F800040F08780A0684FEA701003287BD8E068A3
:100F900040F40040B0F5004F75D1206901250628C6
:100FA00077D805FA00F010F0450F72D0606901257E
:100FB000B0F5407F0DDB12D040F20031C2F20001EB
:100FC00088420CD040F20031C1F20001884206D0C4
:100FD0005FE0B0F5807F02D0B0F5007F59D1A06905
:100FE0004FEAB03003284ED8204600F055F801F003
:100FF000C3F8D4E9007144F24029C0F20F09D4F8D3
:1010000008800A01B0FBF2F6D4F80CA006FB12002F
:101010000023A0FB09010025FFF76EF989014AF2C0
:10102000201241EA9061C0F2070212EB801041F1F8
:1010300000014A460023FFF75FF93F2884BF0136CD
:1010400000207E62B86220694AEA08010843F8621B
:10105000D4E9050140F20032C2F20002904241EAB6
:10106000000141F00101396310D040F20031C1F2BA
:10107000000188420DD140F25840C2F200000760E2
:101080000020BDE8F0870120BDE8F08702200025A0
:1010900078652846BDE8F0872DE9F04385B0044621
:1010A00028B929A02DA140F27B2203F0C7FFA06C34
:1010B0004EF20018407ACEF2000801F08FF8A06CD2
:1010C00001AD8169007D019103264FF001090227DE
:1010D00029460296CDF80C900497FFF72BFDA06CE3
:1010E00001AAC169407D82E8420229460497FFF7C0
:1010F00021FDA06C90F9080000280CD4420900F0F2
:101100001F0108EB820209FA01F14044C2F8801184
:1011100000F5407006E04EF6145100F00F00CEF2DC
:1011200000010844A0210170A06C90F9080000287B
:1011300007D400F01F01012202FA01F1400948F82A
:10114000201005B0BDE8F083687561727420213D00
:101150002052545F4E554C4C0000000048414C5FFB
:10116000554152545F4D7370496E69740000000020
:1011700080B503688E4644F6FF31C4F20001944600
:101180008B424FF0010108DC44F20042C4F200023D
:1011900093420ED044F6000207E043F60002C4F288
:1011A0000102934205D044F60042C4F20002934289
:1011B0000DD190F83910012904BF022080BDBEF185
:1011C000000F4FF0010118BFBCF1000F01D108461C
:1011D00080BD996C724641F001019964006C19461A
:1011E0006346FFF7C9FB0146002818BF01210846E6
:1011F00080BD000080B59446026844F6FF33C4F217
:1012000000039A424FF0010E08DC44F20043C4F29E
:1012100000039A420ED044F6000307E043F60003B1
:10122000C4F201039A4205D044F60043C4F200031D
:101230009A420CD190F83830012B04BF022080BDB7
:1012400000294FF0010E18BFBCF1000F01D170460C
:1012500080BD936C43F002039364C06B6346FFF759
:101260008BFB8646002818BF4FF0010E704680BDEC
:10127000F0B581B04FF20006C4F2010631680446B1
:1012800021F0100000250027306000BF0020202141
:101290000022FFF721FE082001F0AAFF00202021F4
:1012A0000122FFF719FE00201021FFF7F5FD0028AD
:1012B00018BF012040EA45050A2001F099FF072FD9
:1012C00007F10107E2D3B4FA84F044090020202199
:1012D0000022FFF701FE3068102140F0100030605E
:1012E00000202246FFF7F8FD082001F081FF0020D2
:1012F00020210122FFF7F0FD082001F079FF0020F6
:1013000020210022FFF7E8FDE8B201B0F0BD0000A7
:10131000B0B54FF20001C4F201010A68044642F080
:10132000100008600020202100220025FFF7D4FDD6
:10133000E0B2C20900201021FFF7CEFD08206400B2
:1013400001F056FF002020210122FFF7C5FD0820F3
:1013500001F04EFF002020210022FFF7BDFD0820F4
:1013600001F046FF072D05F10105E1D3B0BD0000F6
:10137000B0B54FF20004C4F201042068102120F03F
:1013800010002060002001220025FFF7A5FD0A20A3
:1013900001F02EFF002020210122FFF79DFD0A20F1
:1013A00001F026FF00201021FFF776FD38B3FA2D5B
:1013B00005F10105F6D32068202140F010002060DF
:1013C00000200022FFF788FD002010210022FFF7F7
:1013D00083FD0A2001F00CFF0020202101220124BE
:1013E000FFF77AFD0A2001F003FF002010210122FF
:1013F000FFF772FD0A2001F0FBFE2046B0BD002081
:10140000202100220024FFF767FD2046B0BD000028
:1014100070B588B0082000904FF00114002569468F
:10142000002001940395FFF785FB0020082100228E
:10143000FFF752FD0020082101220126FFF74CFD95
:10144000302004A951C104A900200795FFF772FBC1
:10145000002030210122FFF73FFD08B070BD0000E1
:1014600080B500F071FC80BD80B500F0E5FC80BD6A
:1014700040F2B030C2F200007F21017014208321BD
:10148000FFF7F2FF0120FFF7EBFF40F0060101201C
:10149000FFF7EAFFC82001F0ABFE20206821FFF72C
:1014A000E3FF40F20800C2F2000001780F20FFF7CE
:1014B000DBFF08A420205821FFF7D6FF0F20FFF7FD
:1014C000CFFF0146204608F0EDFC642001F08CFEC1
:1014D000F0E700BF0D0A473A25780D0A000000002A
:1014E00080B505206021FFF7BFFF20206421FFF7B2
:1014F000BBFF0F205521FFF7B7FF20204021FFF74A
:10150000B3FF0F200221FFF7AFFF20204421FFF798
:10151000ABFF0F20A821FFF7A7FF20204821FFF7EE
:10152000A3FF40F2B030C2F2000001780F20FFF7B5
:101530009BFF20204C21FFF797FF0F200421FFF78E
:1015400093FF20205C21FFF78FFF0F202621FFF75C
:101550008BFF20206021FFF787FF0F200021FFF77E
:1015600083FF20206821FFF77FFF40F20800C2F2CE
:10157000000001780F20FFF777FF20207021FFF790
:1015800073FF0F200121FFF76FFF20207821FFF765
:101590006BFF0F200021FFF767FF02208021FFF77C
:1015A00063FF0320C021FFF75FFF20206421FFF7C6
:1015B0005BFF0F205521FFF757FF0120B021FFF7F8
:1015C00053FF80BD80B50520FFF74AFF41061BD4BD
:1015D00080061FD405204021FFF746FF052020216B
:1015E000FFF742FF20207C21FFF73EFF0F200A215A
:1015F000FFF73AFF20206421FFF736FF0F20552127
:10160000FFF732FF002080BD05204021FFF72CFFAF
:10161000012080BD05202021FFF726FF022080BD8C
:10162000F0B58BB000208DF81D0026207821FFF743
:101630001BFF0DF12A01262000F04EFAC0B1262032
:101640004821FFF711FF0DF12A01262000F044FA8E
:1016500090B126205821FFF707FF0DF12A0126201F
:1016600000F03AFA60B14BF68360C0F200001FE070
:101670009DF82A106AA006E09DF82A1060A002E0FA
:101680009DF82A1056A09DF82B2008F00BFC0DF1B8
:101690001E00932100F038F908B169A008E00DF1AF
:1016A0001E040DF11D01204600F066FA28B169A064
:1016B00008F0F8FB01200BB0F0BD9DF81D504BF673
:1016C0003770C0F20000294608F0ECFB680711D41F
:1016D0009DF81E109DF81F209DF820309DF8217068
:1016E0004BF60F70C0F20000009708F0DBFB002003
:1016F0000BB0F0BD251D2846952100F005F920B15D
:101700004BF65260C0F20000D2E70DF11D012846F1
:1017100000F06EFA08B153A0CAE79DF81D504BF6D1
:101720004F70C0F20000294608F0BCFB680716D4D1
:101730009DF822009DF823709DF824609DF82550A7
:101740009DF81F109DF820209DF82130CDE900075D
:101750004BF6D8600296C0F200000395C5E7083446
:101760002046972100F0D0F820B14BF66360C0F21C
:1017700000009DE70DF11D01204600F075FA20B133
:101780004BF67460C0F2000092E79DF81D404BF6E6
:101790006770C0F20000214608F084FB6007A6D401
:1017A0009DF823009DF824509DF825409DF8286061
:1017B0009DF82970CDE9000502A89DF81F109DF83D
:1017C00020209DF821309DF826C09DF827E080E874
:1017D00010504BF692600596C0F20000069784E721
:1017E0000D0A52657175657374313A6F6B20204133
:1017F0005451413A253032782025303278000000AB
:101800000D0A52657175657374323A6F6B20204111
:101810005451413A2530327820253032780000008A
:101820000D0A52657175657374333A6F6B202041F0
:101830005451413A2530327820253032780000006A
:101840000D0A416E7469636F6C6C313A6661696C44
:10185000000000000D0A53656C656374313A6661DF
:10186000696C00000D0A53656C656374323A6661F9
:10187000696C000080B5FFF7CBFD4FF4FA7001F002
:10188000B3FC0820FFF7ECFD00F0F7010820FFF79C
:10189000EBFD12200021FFF7E7FD13200021FFF7E9
:1018A000E3FD24202621FFF7DFFD26207821FFF726
:1018B000DBFD2A208021FFF7D7FD2B20A921FFF790
:1018C000D3FD2C200321FFF7CFFD2D20E821FFF7CA
:1018D000CBFD15204021FFF7C7FD11203D21FFF76B
:1018E000C3FD01200021FFF7BFFD1420FFF7B8FD65
:1018F000800718BF80BD1420FFF7B2FD40F0030140
:101900001420FFF7B1FD80BD70B588B004460820F3
:101910000D46FFF7A5FD00F0F7010820FFF7A4FD35
:101920000D200021FFF7A0FD0E20FFF799FD00F02C
:101930007F010E20FFF798FD202002AE8DF80850A1
:101940008DF8090007AD0C20314602223346009580
:1019500000F020F8054688B902984FF0FF3120606A
:10196000002000BF721852780131032980EA02007A
:10197000F8D19DF80C10884218BF02250E20FFF701
:101980006FFD40F080010E20FFF76EFD284608B085
:1019900070BD00002DE9F0479846164605460C2814
:1019A0000F4606D00E2D0CBF112401244FF0000964
:1019B00002E031244FF001090420FFF751FD00F04F
:1019C0007F010420FFF750FD01200021FFF74CFDAF
:1019D0000A20FFF745FD40F080010A20FFF744FD93
:1019E0003EB1013F17F8011F0920FFF73DFD013E01
:1019F000F8D101202946FFF737FD0C2D07D10D2026
:101A0000FFF72EFD40F080010D20FFF72DFDDDF8E2
:101A100020A04FF63007CFF6FF7700BF0420FFF776
:101A20001FFD01371AD206460442F7D00D20FFF7FA
:101A300017FD00F07F010D20FFF716FD0620FFF7D0
:101A40000FFD40F25871C2F2000108700620FFF746
:101A500007FD10F01B0F19D0022508E00D20FFF73D
:101A6000FFFC00F07F010D20FFF7FEFC02250C209B
:101A7000FFF7F6FC40F080010C20FFF7F5FC012099
:101A80000021FFF7F1FC2846BDE8F0870C2D09EA9C
:101A90000605ECD10A20FFF7E3FC06460C20FFF711
:101AA000DFFC10F0070040EAC600A8F10104A0F135
:101AB000080008BFF000CAF80000002E08BF012689
:101AC000122E28BF122600BF0920FFF7C9FC04F818
:101AD000010F013EF8D1CAE7B0B588B0054608202D
:101AE0000C46FFF7BDFC00F0F7010820FFF7BCFC37
:101AF0000D200721FFF7B8FC1420FFF7B1FC40F0E0
:101B000003011420FFF7B0FC0DF10A018DF80A5013
:101B100007AD0C2001220B460095FFF73BFF4FF06D
:101B2000020130B9079A102A03D1BDF80A102180AA
:101B30000146084608B0B0BD80B50020082100224B
:101B4000FFF7CAF9642001F053FB002008210122AD
:101B5000FFF7C2F9642001F04BFB01200F21FFF7D2
:101B600083FC00BF0120FFF77BFCC006FAD4642091
:101B700001F03EFB80BD000070B588B002680E46E3
:101B800047F29301ADF80A10002103924FF0FF32A3
:101B90008DF8101083185B780132032A81EA030163
:101BA000F8D10DF10A058DF81010EA1D284607211D
:101BB000FEF7B0FD0820FFF753FC00F0F701082006
:101BC000FFF752FC07AC0C20294609222B46009453
:101BD000FFF7E0FE00284FF0020006D10799182910
:101BE00003D19DF80A003070002008B070BD0000DD
:101BF00070B588B002680E4647F29501ADF80A103C
:101C0000002103924FF0FF328DF8101083185B789B
:101C10000132032A81EA0301F8D10DF10A058DF89A
:101C20001010EA1D28460721FEF774FD0820FFF773
:101C300017FC00F0F7010820FFF716FC07AC0C209A
:101C4000294609222B460094FFF7A4FE00284FF0F6
:101C5000020006D10799182903D19DF80A003070B7
:101C6000002008B070BD000070B588B002680E4654
:101C700047F29501ADF80A10002103924FF0FF32B0
:101C80008DF8101083185B780132032A81EA030172
:101C9000F8D10DF10A058DF81010EA1D284607212C
:101CA000FEF738FD0820FFF7DBFB00F0F701082006
:101CB000FFF7DAFB07AC0C20294609222B460094DB
:101CC000FFF768FE00284FF0020006D10799182997
:101CD00003D19DF80A003070002008B070BD0000EC
:101CE00070B50420042400F079FA40F248414FF422
:101CF0008030C2F2000101250026C1E90040002029
:101D0000C1E90256FEF716FF002004210022FFF76A
:101D1000E3F840F23840C2F200000221C0E9004579
:101D2000C0E90216FEF77AFE03A008F0BBF8FEF742
:101D30006BFE002070BD00BF0A0D45585449204974
:101D40004E4954204F4B2E00B0B54FF20005C4F25F
:101D500001052968044641F0100028600020102188
:101D60000122FFF7B9F8002020210122FFF7B4F883
:101D70000A2001F03DFA002010210022FFF7ACF804
:101D80000A2001F035FA002020210022FFF7A4F8F4
:101D90005020FFF7BDFAFFF7EBFA2046FFF7B8FA3D
:101DA000FFF7E6FA2868102140F0100028600020B4
:101DB0000122FFF791F8002020210122FFF78CF883
:101DC0000A2001F015FA002010210022FFF784F804
:101DD0000A2001F00DFA002020210022FFF77CF8F4
:101DE0005120FFF795FAFFF7C3FA0020FFF740FAFA
:101DF0002968044641F010002860002020210022BC
:101E0000FFF76AF8002010210022FFF765F80A208A
:101E100001F0EEF9002020210122FFF75DF80A20F1
:101E200001F0E6F9002010210122FFF755F80A2001
:101E300001F0DEF92046B0BD70B54FF20006C4F2E5
:101E400001060C463168054641F010003060002064
:101E500010210122FFF740F8002020210122FFF786
:101E60003BF80A2001F0C4F9002010210022FFF7FE
:101E700033F80A2001F0BCF9002020210022FFF7EE
:101E80002BF85020FFF744FAFFF772FA2846FFF7C5
:101E90003FFAFFF76DFA2046FFF73AFAFFF768FAC4
:101EA0003068202140F01000306000200022FFF751
:101EB00013F8002010210022FFF70EF80A2001F08D
:101EC00097F9002020210122FFF706F80A2001F0EF
:101ED0008FF9002010210122FEF7FEFF0A2001F0F9
:101EE00087F970BD80B504F089FC07F0FBFA04F0B7
:101EF000A9FC80BD80B586B04FF480110A68082324
:101F000063F3CB120A60002240F62C010092C4F267
:101F10000101029251F8083C9B0509D451F8083C94
:101F200043F0010341F8083C51F8083C9B05FBD500
:101F300049F2000EC0F2D03E0EF1010340F2E87CFF
:101F40009842C2F2000C41F81C2C19D251F8082C0E
:101F5000D20509D551F8082C22F4807241F8082CDA
:101F600051F8082C9205FBD544F60002C0F2E812A5
:101F7000904222D10220CCF800200590012020E0E0
:101F8000029A52B3029A012A56D1002203920D22DC
:101F900041F8042C51F8042CD2065FD444F24023BB
:101FA000C0F20F03039A9A4256D0039A0132039269
:101FB00051F8042CD206F5D550E00120CCF800E011
:101FC00005900490DCF80000049AB0FBF2F040F2B7
:101FD000E472C2F20002106094E051F8082C42F45E
:101FE000807241F8082C00BF51F8082C9205FBD5EF
:101FF0000A6842F001020A600A6822F400120A60CC
:102000000A685200FCD540F60062C0F22772904286
:1020100015D049F20052C0F6BA2290424CD10A685B
:10202000212363F3D3020A600A6842F480020A6043
:102030000A685200FCD554E00320009062E00A6870
:10204000122363F3D3020A600A6842F480020A6032
:102050000A685200FCD544E002220092009A002A4D
:1020600043D10A6842F001020A600A6822F40012B1
:102070000A6000BF0A685200FCD540F60062C0F258
:10208000277290421BD049F20052C0F6BA22904209
:1020900012D10A6840F2122363F3D3020A600A687D
:1020A00042F006020A600A6842F480020A6000BF39
:1020B0000A685200FCD514E00122009215E00A687B
:1020C00040F2124363F3D3020A600A6842F0060248
:1020D0000A600A6842F480020A6000BF0A6852007F
:1020E000FCD50122059202220492CCF80000049A49
:1020F000B0FBF2F040F2E472C2F200021060042081
:1021000041F81C0C009810B10120059002E00498E1
:1021100001281ED10020019051F8180C059B40F2B7
:10212000FF7290435A1E019B104340EA032041F87E
:10213000180C00BF51F8180CB0F1FF3FFADCDCF8C6
:102140000000FEF75FFC0098B0FA80F0400906B08E
:1021500080BD0498022814BF05200420DBE700009E
:102160004EF68850CEF20000016841F47001016023
:10217000002140F8801C704740F2E470C2F2000079
:102180000068704740F2E870C2F2000000687047D3
:1021900080B540F60000C4F2010001684FF6FF026E
:1021A00041F480310160C16B21F40001C1634EF63E
:1021B0000C50CEF200000168114041F0BF6141F4C3
:1021C0000131016049F20050C0F6BA20FFF792FEDB
:1021D000002818BF80BD00BFFEE7000081B040F6B8
:1021E0001C010E28C4F2010107D30E3801220B682E
:1021F00002FA00F01843086005E001224B6802FA79
:1022000000F0184348600220009000BF0098411E73
:1022100000280091FAD101B07047000080B504F0A9
:10222000EDFA40F68030C2F20000A43007F0C2FDA3
:1022300004F008FB80BD000080B504F0DFFA40F632
:102240008030C2F2000000F5C47007F0B3FD04F066
:10225000F9FA80BD80B504F0D1FA40F68030C2F2C0
:10226000000000F51B7007F0A5FD04F0EBFA80BD3F
:1022700080B504F0C3FA40F68030C2F2000000F5E9
:10228000547007F097FD04F0DDFA80BD002804BF0C
:1022900000207047C1B209B101200CE010F47F4169
:1022A00002D0090A092006E010F47F0107BF010EE1
:1022B0001920090C11204AF2D432C0F20002515CFC
:1022C000084470472DE9F041C8B2542884BF062065
:1022D000BDE8F081C81701EB1070DDF8188020F020
:1022E0000F001C460D4616460F1AFDF717FF07EBA9
:1022F000470140F2B403C2F2000333F8212003EB9C
:10230000810117B2AF4208D14B68A34205D14B8877
:10231000B34202D18B68434509D04FF6FF739A420E
:1023200001D0072404E00D804E80C1E9014800245B
:10233000FDF7F8FE2046BDE8F081000070B50228E8
:1023400030DC4AF6BF70C0F2000004F093FA4BF2A2
:102350002E00C0F2000004F08DFA4AF61E70C0F2A2
:10236000000004F087FA4AF6A270C0F2000004F000
:1023700081FA4BF26F00C0F2000004F07BFA4AF6DB
:102380005D70C0F2000004F075FA4AF6CD70C0F23C
:10239000000004F06FFA4BF25700C0F2000004F0A6
:1023A00069FA70BD0C464968054673A006F0B8FB93
:1023B000E0B1616871A006F0B3FB20B3616871A061
:1023C00006F0AEFB58B3616870A006F0A9FB0028C8
:1023D000B7D1032DB5DDA06802F0BEFC0146A068B0
:1023E000002973D0FEF727F8054675E0A06800F0D5
:1023F0000FF9A168B0F1FF3F40F38780024681A04A
:1024000004F038FA70BD032D9BDDA06802F0A4FC37
:102410000146A06889B3FEF70EF8054633E0A068D0
:1024200002F09AFC0146A06819B1FEF704F80546CF
:1024300005E000F0EDF80546B0F1FF3F64DD40F245
:102440006444C2F20004E06A50B94BF2EE004BF271
:102450000511C0F20000C0F20001962202F0EEFD6C
:10246000E06A2946826820469047294601280CBF29
:1024700051A04DA004F0FEF970BD00F0C9F805466A
:10248000B0F1FF3F40DDE1684FA006F049FBC8B165
:10249000E1684FA006F044FBB0B1E1684EA006F041
:1024A0003FFB00284DD0E1684FA006F039FB002823
:1024B00049D0E16850A006F033FB00287FF441AF1B
:1024C000042441E000243FE001243DE000F0A0F8B6
:1024D0000546B0F1FF3F17DDE1682EA006F020FBB6
:1024E000D0B1E1682DA006F01BFBA8B1E1682CA0DB
:1024F00006F016FB30B1E1682AA006F011FB0028B7
:102500007FF41FAF002408E0A1684AF60570C0F20E
:10251000000004F0AFF914E7012440F26446C2F26F
:102520000006F06A50B94BF2EE004BF21D11C0F2FA
:102530000000C0F20001902202F080FDF06A4368C2
:1025400015E0022400E0032440F26446C2F20006D3
:10255000F06A50B94BF2EE004BF21111C0F20000DC
:10256000C0F200018A2202F069FDF06A0368304679
:1025700029462246984770BD6E756D006D6F646583
:1025800000000000726561640000000077726974E9
:102590006500000068696768000000006F6E000059
:1025A0006C6F77006F66660070696E5B25645D20F6
:1025B0003D206F66660A000070696E5B25645D20D1
:1025C0003D206F6E0A0000006F7574707574000016
:1025D000696E707574000000696E7075745F707557
:1025E0006C6C757000000000696E7075745F7075BA
:1025F0006C6C646F776E00006F75747075745F6FCC
:10260000640000002573203A2025640A00000000C1
:1026100010B582B0044600780021ADF80410009196
:10262000FDF7A0FE61788DF800000846FDF79AFEE0
:102630008DF80100204606F0A9FA14F8021F2E2991
:102640001CBF2E218DF802100528A8BF0520821E70
:1026500068462146FDF7CCFE40F26444C2F2000415
:10266000E06A50B94BF2EE004BF22A11C0F20000C2
:10267000C0F200019D2202F0E1FC9DF8000040F054
:102680002000702809D1E06A816900290EBF6FF02F
:1026900005006846884702B010BD6FF0090002B01F
:1026A00010BD0000B0B50446154638B94BF2DF0046
:1026B000C0F2000008A1372202F0C0FC002D04BFC8
:1026C0004FF0FF30B0BDE06A298803686A88204671
:1026D00098470020B0BD00BF5F70696E5F636F6E8A
:1026E00074726F6C00000000C8B2542884BF0620CA
:1026F0007047B0B5C81701EB10704FF6FF7420F0AB
:102700000F000D1AFDF70AFD05EB450140F2B4027A
:10271000C2F2000232F82130A34206D002EB81015E
:1027200000220C804A80C1E90122FDF7FBFC002059
:10273000B0BD00002DE9F04784B0C8B254285FD87E
:10274000400050FA81F04AF29C73C0F2000353F843
:102750002070B7F1FF3718BF03EB8007002F52D06E
:10276000C81701EB1074002A24F00F00A1EB00063B
:1027700006EB860040F27411C2F2000101EB800505
:1027800043D0012A5AD1FDF7C9FC06EB460140F2BD
:10279000B40CC2F2000C3CF821304FF6FF729342A9
:1027A00080464ED0B8680CEB810100900020039069
:1027B0004FF48030019028884FEA24192C4644F8C1
:1027C000040F48884FF0010A0228C4F804A004D876
:1027D000C0F1020101300291E86038796946FEF7E4
:1027E000A9F92046C5F81090FEF718F940F67C00CC
:1027F000C2F2000001680AFA06F2114301601BE010
:102800000027002FACD106251FE040F67C00C2F265
:1028100000000068F040C0071BD0FDF77FFC40F2CD
:102820000042C4F201022988136880468B4313607A
:10283000536823EA01005060002503E06FF00505AE
:1028400003E006254046FDF76DFC284604B0BDE8D0
:10285000F0870625F9E7000080B584B0C8B2542897
:1028600010D8400050FA81F14AF29C73C0F2000384
:1028700053F82100B0F1FF3018BF03EB810020B9FD
:1028800004B080BD00200028FAD08168042A00919D
:102890004FF0011101914FF000010291039107D80F
:1028A0000AA10FA351F8221053F82220CDE90112FA
:1028B00042F20C41C4F200010A6822F040020A60B0
:1028C00000796946FEF736F904B080BD01000100C9
:1028D00000000100000001000000010002100100E2
:1028E00000000000000000000100000002000000E5
:1028F0000000000070B51E460546144638B94BF27C
:10290000DF00C0F2000009A1162202F097FB4FF091
:1029100000004CB1042E18BF70BDE86A218882689F
:10292000284690476080042070BD00BF5F70696ECC
:102930005F7265616400000080B5C8B254280ED88B
:10294000400050FA81F04AF29C72C0F2000252F844
:102950002010B1F1FF3118BF02EB800100E000212F
:10296000002904BF002080BD08798968FEF794FA29
:1029700080BD000070B51E460446154638B94BF2BE
:10298000DF00C0F2000009A1262202F057FB4FF041
:1029900000004DB1042E18BF70BDE06A298843685D
:1029A0006A8820469847042070BD00BF5F70696E3A
:1029B0005F7772697465000080B5C8B254280ED87C
:1029C000400050FA81F04AF29C73C0F2000353F8C1
:1029D0002010B1F1FF3118BF03EB800100E00021AE
:1029E000002908BF80BD08798968D2B2FEF774FA61
:1029F00080BD0000B0B540F68800C2F20000046857
:102A0000FDF78CFB0546204604F04AFE04F14C001D
:102A100006F080FE042084F83400204606F048FAD0
:102A20002846FDF77FFB04F07FFCB0BD70B582B097
:102A30000446DDE906C61430C4E9050004F12000AF
:102A4000089D80E80E1018462321624604F054F8D1
:102A500004F120030FCB1A4442F6F513043AC0F2F6
:102A6000000303F025FE202EE06104D314A01DA175
:102A7000BD2202F0E3FA42F6F52284F83560002622
:102A800004F14C00C0F2000221462346C4E90E6660
:102A900084F84060C4E91155266384F83460C4E9C1
:102AA0001E660096019606F08FFE40F64C10C2F2AC
:102AB0000000016800291CBF2046884702B070BD95
:102AC0007072696F72697479203C2052545F544867
:102AD000524541445F5052494F524954595F4D410C
:102AE000580000005F7468726561645F696E6974A4
:102AF00000000000B0B5044650B94BF66F404BF6ED
:102B00007F51C0F20000C0F20001862202F096FA66
:102B100094F8340000F00700022807D04BF67F51EC
:102B200016A0C0F20001872202F088FA204604F0C5
:102B30005FFB01280AD04BF6B5404BF67F51C0F23F
:102B40000000C0F20001882202F078FAFDF7E6FAF0
:102B500021460546A06951F8142F6FF0010350601B
:102B6000A069236302602046A161096004F054FD5E
:102B70002846FDF7D7FA04F0D7FBB0BD2874687279
:102B80006561642D3E7374617420262052545F5435
:102B900048524541445F535441545F4D41534B2982
:102BA000203D3D2052545F5448524541445F5355A7
:102BB0005350454E4400000040F2BC454FF6FE76AF
:102BC000C2F20005C7F6FF7602E000BF05F00EFF77
:102BD000FDF7A4FA2C68AC421CBF29684F69FDF7C9
:102BE000A1FAAC420AD006F077FC3C1AB442EDD808
:102BF000204606F069F92746E8E700BF06F03AFBF1
:102C000006F0E2FB04F090FB05F0F0FEE0E70000C8
:102C1000B0B504460D46C8B12DB354F85C0C4168FC
:102C2000204640F8A41D29684160297901F00F0170
:102C300008292ED1602144F89C1C2979C1F3011187
:102C4000D1B1012925D14FF4004116E04BF2C61055
:102C50004BF2CC21C0F20000C0F20001532202F07E
:102C6000EDF9002DD9D14BF2CC2114A0C0F2000116
:102C7000542202F0E3F9D0E7002144F8981C2979A6
:102C80000025890908D0012908D0022901D106218F
:102C900005E06FF00900B0BD002100E00221A4F1C1
:102CA00094034FF4407226C3FEF74AF954F8A40C7B
:102CB000C16A21F01001C1622846B0BD6366672079
:102CC000213D2052545F4E554C4C0000F0B581B070
:102CD000164604460F4638B94BF2C610C0F2000043
:102CE00064A1922202F0AAF9032FA4F1A40522D034
:102CF000102F2ED0112F40F0BA8054F85C0C90F9B0
:102D00000800002811D44EF2001200F01F01400903
:102D1000CEF2000202EB8000012202FA01F1C0F8BB
:102D20008010BFF34F8FBFF36F8F2868816B21F046
:102D3000100181639BE024B3B6F5007F30D0B6F577
:102D4000006F40F08D8054F85C1CA4F12C00103111
:102D50002BE054F85C0C90F9080000280BD400F02C
:102D60001F01012202FA01F14EF200124009CEF2D7
:102D7000000242F820102868816B41F01001816345
:102D800075E04BF2C6104BF2DC21C0F20000C0F23D
:102D900000014FF4A27202F051F9B6F5007FCED1D6
:102DA00054F85C1CA4F158000C310968B6F5007F9A
:102DB0000A684FF0000C026008D0B6F5006F0ED123
:102DC00000234FF080624FF4006704E04FF000638F
:102DD0004FF480570022C0E901C7C0E90423096904
:102DE000C1600021C0E90611FDF75CFD58B14BF64A
:102DF00064204BF2DC21C0F20000C0F2000140F27E
:102E00006F1202F01BF9B6F5007F07D0B6F5006F20
:102E100009D1A4F12C00A4F1680103E0A4F1580049
:102E2000A4F164010860B6F5007F19D194F8370069
:102E3000B4F83510A26B41EA00401168C0F38F026C
:102E40002846FEF795F958B14BF664204BF2DC2189
:102E5000C0F20000C0F200014FF4C17202F0EEF8BF
:102E600049F69561C0F20001204602F047FF0020BC
:102E700001B0F0BD5F756172745F636F6E74726FE5
:102E80006C000000F0B581B01F46144605460E46A2
:102E900040B94BF2C610C0F200000EA14FF48C7284
:102EA00002F0CCF84FF000008CB1022F0FD1A5F149
:102EB000A40031462246FEF79DF900281EBF0020DF
:102EC00001B0F0BD2846042103F022FA204601B0EB
:102ED000F0BD00BF5F756172745F646D615F747295
:102EE000616E736D6974000010B5044638B94BF219
:102EF000C610C0F2000007A1C42202F09FF854F8E7
:102F0000A40C8169C9064EBF4FF0FF300068C0B203
:102F100010BD00BF5F756172745F67657463000008
:102F2000B0B505460C4638B94BF2C610C0F20000E9
:102F300007A1B32202F082F855F8A40C8169890632
:102F4000FCD4046081690907FCD40120B0BD00BF36
:102F50005F756172745F70757463000080B502A064
:102F600003F088FC002080BD1B5B324A1B5B4800DD
:102F700080B584B000200390CDE9010003A802A928
:102F800001AA03F061FD039909A003F073FC029903
:102F90000BA003F06FFC01990DA003F06BFCDDE9C1
:102FA0000210411A0EA003F065FC002004B080BDA1
:102FB000746F74616C202020203A2025640A000080
:102FC0007573656420202020203A2025640A0000C3
:102FD0006D6178696D756D20203A2025640A0000C6
:102FE000617661696C61626C653A2025640A000053
:102FF00010B502284ED14C684BF6AE41C0F200012C
:103000002046FDF7DAF9002879D04BF20A61C0F2C8
:1030100000012046FDF7D1F9002874D04AA12046CE
:10302000FDF7CBF9002872D04BF24761C0F20001E6
:103030002046FDF7C2F900286DD04BF24D61C0F279
:1030400000012046FDF7B9F9002868D04BF2536122
:10305000C0F200012046FDF7B0F9002863D04BF222
:10306000F051C0F200012046FDF7A7F900285ED01C
:103070004BF20261C0F200012046FDF79EF90028E4
:1030800059D04BF2E451C0F200012046FDF795F90A
:10309000002854D04BF24930C0F2000003F0EAFBA4
:1030A0002AA003F0E7FB4BF2CA30C0F2000003F0A5
:1030B000E1FB4BF20040C0F2000003F0DBFB4BF2FF
:1030C000E530C0F2000003F0D5FB4BF23240C0F215
:1030D000000003F0CFFB4BF21940C0F2000003F0F8
:1030E000C9FB1DA003F0C6FB23A003F0C3FB2BA06C
:1030F00003F0C0FB32A003F0BDFB002010BD01F0C7
:1031000071FA002010BD01F057FB002010BD01F046
:103110008BF9002010BD00F03FFD002010BD01F034
:10312000DFF8002010BD00F019FE002010BD00F0F7
:10313000F7FF002010BD00F0FFFE002010BD00F0E2
:1031400081FC002010BD00BF73656D005B6F707463
:10315000696F6E735D3A0A00202020206D61696CF2
:10316000626F78202D206C697374206D61696C62C8
:103170006F78730A00000000202020206D736771B3
:1031800075657565202D206C697374206D6573738A
:10319000616765207175657565730A0020202020C0
:1031A0006D656D706F6F6C202D206C697374206D70
:1031B000656D6F727920706F6F6C730A000000008C
:1031C00020202020646576696365202D206C69735A
:1031D0007420646576696365730A000080B501F048
:1031E00001FA002080BD000080B505F0F1FF80BD30
:1031F0007047000070B582B040F67836C2F2000623
:10320000306800218DF8071038B94BF2F620C0F273
:10321000000019A1A42201F011FF3068D0F80C427F
:1032200034B30DF1070220464FF0FF31012302F0C5
:1032300013FD012803D19DF8070002B070BD0DF108
:10324000070508E020464FF0FF312A46012302F02F
:1032500003FD0128EFD030684FF0FF3104F00AFB86
:103260003068D0F80C02A042ECD000280446E9D126
:103270004FF0FF3002B070BD66696E73685F6765BE
:10328000746368617200000010B540F67834C2F2D1
:103290000004206838B94BF2F620C0F2000004A107
:1032A000C32201F0CBFE206804F096FA002010BD86
:1032B00066696E73685F72785F696E640000000013
:1032C00070B540F67836C2F200063168054639B965
:1032D0004BF2F620C0F200001CA1D62201F0AEFE97
:1032E000284602F02BFC60B304463068D0F80C028C
:1032F000844225D0204640F2431102F025FC0028EC
:1033000018BF70BD3068D0F80C0238B102F0DCFB99
:1033100030680021D0F80C0202F0F0FC3068002187
:1033200000F5DB705122002503F0E6FB306843F224
:103330008921C0E98254C0F20001204602F0DEFC7F
:1033400070BD07A0294603F095FA70BD66696E73DB
:10335000685F7365745F646576696365000000008B
:1033600066696E73683A2063616E206E6F742066C2
:10337000696E64206465766963653A2025730A0086
:10338000B0B582B040F2C8404BF6A471C2F2000062
:10339000C0F20001016040F2CC404CF26401C2F284
:1033A0000000C0F20001016001204FF4047101F03F
:1033B00065FE40F67835C2F20005286088B3142017
:1033C00043F259410A24009019A0C0F200010022E2
:1033D0004FF48053019405F045FD2A68044616A178
:1033E00010460022002304F0B3F9286850B94BF2CC
:1033F000F6204BF20731C0F20000C0F2000190222B
:1034000001F01CFE2868002C90F8211041F0020108
:1034100080F821101CBF204605F076FF002002B086
:10342000B0BD07A003F026FA4FF0FF3002B0B0BDE8
:10343000747368656C6C000073687278000000003B
:103440006E6F206D656D6F727920666F7220736884
:10345000656C6C0A0000000040F67839C2F2000981
:10346000D9F8000090F82110D0F80C2241F00101A9
:1034700080F821102AB901F059FF002818BFFFF782
:103480001FFFD9F8000040F25C7690F82100C2F2EC
:103490000006800740F2E070C2F2000002D4002073
:1034A000307015E0016839B140F25C70C2F2000082
:1034B0008022FCF76FFF06E00020307147F26D308C
:1034C000C2F2680030603046FCF770FF3E21315296
:1034D000304603F0CFF94BF2EE274FF0010A4FF0E0
:1034E000000BC0F2000701E084F820A0FFF782FE85
:1034F0000028FBD4D9F8004080461B28F4D094F86B
:10350000200002280AD0012840F05E80B8F15B0F4D
:1035100040F05880022084F82000E7E7B8F1440F1B
:1035200084F820B000F28D80DFE818F045009200AA
:10353000920092009200920092009200D10011013C
:103540005B00920092005B00920092009200920059
:1035500092009200920092009200920092009200DB
:1035600092009200920092009200920092009200CB
:1035700092009200920092009200920092009200BB
:1035800092009200920092009200920092009200AB
:10359000920092009200920092009200920092009B
:1035A00092009200920092009200920092004600D7
:1035B000DF01E601FE0199E7608C002800F0188227
:1035C0000138E3E184F820B0B8F10D0F39D8DFE815
:1035D00008F0073F3F3F3F3F3F3F7EBE083F3F0869
:1035E00084E7B4F80802002800F00081A58C052DBE
:1035F000C0F0D38004F5B37504F5DB782846414666
:103600005022FCF7E8FE002800F0F0804FF6C0667C
:10361000CFF6FF76A11901F5B37001F5DB715022E9
:1036200003F0B6F95036F5D128460021502203F0B8
:1036300063FAB4F808222846414603F0A9F90520A8
:10364000CFE0B8F17F0F42D0B8F1FF0F3FF44EAF9B
:10365000B4F80802502828BFA4F808B2B4F80A3217
:10366000B4F808229A4240F2EB80E11801F2B71058
:1036700001F5DB71D21A03F0C9F9D9F80000B0F8EE
:103680000A12084480F8B681D9F8000090F8211099
:10369000C90707D0B0F80A12084400F5DB71E3A0AF
:1036A00003F0E8F8D9F80000B0F80A42B0F80802D0
:1036B000844280F0D58000BF384603F0DBF8D9F8AB
:1036C00000000134B0F808028442F5D3C8E0B4F831
:1036D0000A0200283FF40AAFB4F808120138013991
:1036E0008AB283B2A4F808129A42A4F80A0240F2FD
:1036F000C980E11801F5DB7001F2B711D21A03F0AD
:1037000085F9D9F80000B0F80812084480F8B6B17D
:10371000D9F80000B0F80A12084400F5DB71C1A026
:1037200003F0A8F8D9F80010B1F80A02B1F80812AD
:1037300088423FF6DBAE441E384603F09BF8D9F8CA
:1037400000000134B0F808028442F5D3CEE6D9F87F
:103750000000B0F80A1259B1002400BF384603F047
:1037600089F8D9F800000134B0F80A128C42F5D378
:1037700000F5DB754BF26840C0F2000003F07AF808
:10378000284601F025F9D9F8000090F821008007BB
:1037900000F1838086F800B0E2E055B105EB8500CA
:1037A00004F5DB7104EB001050222A38FCF713FEFD
:1037B000E0B105EB850004F1260606EB00100021C0
:1037C0005022658403F098F9A08CB4F8082200EB2D
:1037D000800004F5DB7106EB001003F0D9F8A08C33
:1037E000013040F25C76C2F20006A084A08CD9F8C9
:1037F0000010608491F82100C00705D04BF26840AA
:10380000C0F2000003F036F8D9F80000B0F8081252
:1038100000F5DB7001F064F9D9F8000090F82100A0
:10382000800702D486F800B04FE040F2E070C2F2A8
:1038300000000168E9B330468022FCF7ABFD3FE0B1
:10384000A01880F8B681D9F8000090F82100C007D0
:1038500006D04AF6B030C0F20000414603F00AF844
:10386000D9F80000B0F80812B0F80A220131A0F827
:10387000081289B201325029A0F80A2228BFC0F8E4
:1038800008B233E666A002F0F5FFD9F80000B0F800
:103890000812084480F8B6B128E640F2E070C2F29F
:1038A0000000016800294FD030468022FCF772FDED
:1038B00051E047F26D30C2F2680086F804B0306023
:1038C0003046FCF773FD3E213152304602F0D2FF04
:1038D000D9F80000002100F5DB70512203F00CF94B
:1038E000D9F80000C0F808B200E6A18C628C481E2E
:1038F000904248DD501C49E0B4F80A02B4F80812BE
:103900008842BFF4F3AD204490F8B6114AF6B030C7
:10391000C0F2000002F0AEFFD9F80000B0F80A12C1
:103920000131A0F80A12E1E5B4F80A0200283FF4D8
:10393000DDAD384602F09EFFD9F80000B0F80A125B
:103940000139A0F80A12D1E547F26D30C2F26800E1
:1039500086F804B030603046FCF728FD3E21315235
:103960004BF21D30C0F2000031462A4602F082FFC1
:10397000D9F8004004F5DB70FCF718FDA4F8080244
:10398000A4F80A02B2E500293FF4B0AD81B2608428
:10399000890011FA80F104F5DB7004EB011150226B
:1039A000263102F0F5FFD9F8004004F5DB75284612
:1039B000FCF7FCFCA4F80802A4F80A024BF2F02081
:1039C000C0F2000002F056FFD9F8000090F8210084
:1039D000800702D486F800B019E040F2E070C2F22D
:1039E0000000016839B130468022FCF7D3FC09E0C1
:1039F000A4F822B07AE547F26D30C2F2680086F88A
:103A000004B030603046FCF7D1FC3E2131524BF21D
:103A10001D30C0F2000031462A4602F02BFF65E55A
:103A200008200800082573202008000025730000E6
:103A300080B5C1B24AF6B030C0F2000002F01AFF01
:103A4000012080BD2DE9F04F8BB0092003F0BEFBB3
:103A50004BF2E452044636A0C0F20002082102F004
:103A600009FF4BF29B456FF00706C0F2000500BF4F
:103A7000284602F0FFFE0136FAD337A004F104090C
:103A800002F0F8FE00270DF10C0B0FF2F80A01E02E
:103A9000002F48D03C46002F08BF4F46FCF73EFBA6
:103AA00054B900243F684F450DD04BF824700134C1
:103AB000082CF7D1082407E017F8041C01F07F0157
:103AC0000929EED000240027FCF72CFB012CDFDBBA
:103AD0005E461BE0FCF726FB98F8081027A01D297E
:103AE0009EBF4AF20450C0F2000050F8210098F83E
:103AF0000E50A8F10C0300905046082108220195B1
:103B000002F0B8FE013C06F10406C1D0D6F80080F0
:103B1000FCF704FB18F8041C01F07F010929D9D037
:103B2000FCF700FBEEE700200BB0BDE8F08F00BF14
:103B3000252D2A2E7320202020202020202074795B
:103B400070652020202020202020207265662063C0
:103B50006F756E740A000000202D2D2D2D2D2D2D3A
:103B60002D2D2D2D2D2D2D2D2D2D2D2D2D202D2D92
:103B70002D2D2D2D2D2D2D2D0A000000556E6B6E37
:103B80006F776E00252D2A2E2A7320252D32307353
:103B900020252D38640A00002DE9F04F8BB0042059
:103BA00003F014FB4BF24762044650A0C0F200023F
:103BB000082102F05FFE4BF29B456FF00706C0F252
:103BC000000500BF284602F055FE0136FAD350A08A
:103BD000261D02F04FFE4BF210674BF29D4B002565
:103BE000C0F20007C0F2000B029602E0029E002D18
:103BF00077D02C46002D08BF3546FCF78FFA9CB9CC
:103C00004FF0000803AC00BF2D68B5420AD044F85D
:103C1000285008F10108B8F1080FF5D14FF0080855
:103C20000CE000BF002509E015F8041C01F07F013D
:103C30000429E5D04FF00008002503ACFCF772FA28
:103C4000B8F1010FD2DB4FF0000905E0FCF76AFA8A
:103C500009F10109C145C9D054F829A0FCF75EFA61
:103C60001AF8041C01F07F010429EFD1FCF75AFA7D
:103C70005AF8080FDAF808605045AAF1140329D061
:103C80004FF0FF34504600BF006801345045FBD16F
:103C900027A0082108220096019402F0EBFDDAF833
:103CA000006003AC56450ED0A6F114023846082138
:103CB00002F0E0FD306850451CBF584602F0DAFDC6
:103CC00036685645F0D14BF26840C0F2000002F071
:103CD000D1FDBDE71CA008210822009602F0CAFD14
:103CE000B6E700200BB0BDE8F08F00BF252D2A2ECF
:103CF00073202020202020736574202020207375DD
:103D00007370656E64207468726561640A000000F7
:103D100020202D2D2D2D2D2D2D2D2D2D202D2D2DFA
:103D20002D2D2D2D2D2D2D2D2D2D2D0A000000009A
:103D3000252D2A2E2A73202030782530387820250A
:103D40003033643A00000000252D2A2E2A732020EB
:103D500030782530387820300A0000002DE9F04F07
:103D60008DB0052003F032FA4BF25362044656A0A0
:103D7000C0F20002082102F07DFD4BF29B456FF07E
:103D80000706C0F2000500BF284602F073FD0136A9
:103D9000FAD356A0261D02F06DFD4BF210670025E8
:103DA00005ACC0F20007049604E000BF049E002D9D
:103DB00000F08580A846002D08BF3546FCF7AEF917
:103DC000B8F1000F10D14FF0000800BF2D68B542C8
:103DD00012D044F8285008F10108B8F1080FF5D1C5
:103DE0004FF0080809E000BF15F8041C01F07F013E
:103DF0000529E8D04FF000080025FCF793F9B8F149
:103E0000010FD3DB4FF0000906E000BFFCF78AF991
:103E100009F10109C145C9D054F829A0FCF77EF980
:103E20001AF8041C01F07F010529EFD1FCF77AF99B
:103E30005AF8082F4FF0FF36BAF80E10BAF80C00F7
:103E40005245AAF1140352462CD000BF1268013625
:103E50005245FBD1CDE900102BA008210822029683
:103E600002F008FDDAF800B04BF29D46D345C0F2EF
:103E7000000610D0ABF114023846082102F0FAFC1B
:103E8000DBF8000050451CBF304602F0F3FCDBF8C5
:103E900000B0D345EED14BF26840C0F2000002F012
:103EA000E9FCB5E7126801365245FBD1CDE90010B7
:103EB0001BA008210822029602F0DCFCA8E70020E3
:103EC0000DB0BDE8F08F00BF252D2A2E7320656E42
:103ED0007472792073697A652073757370656E6486
:103EE000207468726561640A00000000202D2D2D89
:103EF0002D20202D2D2D2D202D2D2D2D2D2D2D2D19
:103F00002D2D2D2D2D2D0A00252D2A2E2A7320250D
:103F10003034642020253034642025643A000000C9
:103F2000252D2A2E2A732025303464202025303474
:103F3000642025640A0000002DE9F04F8DB00820B0
:103F400003F044F94BF20262044654A0C0F20002AE
:103F5000082102F08FFC4BF29B456FF00706C0F280
:103F6000000500BF284602F085FC0136FAD355A0B3
:103F7000261D02F07FFC4BF21065002405AFC0F255
:103F80000005049604E000BF049E002C00F0818030
:103F9000A046002C08BF3446FCF7C0F8B8F1000F6B
:103FA00010D14FF0000800BF2468B44212D047F887
:103FB000284008F10108B8F1080FF5D14FF00808C2
:103FC00009E000BF14F8041C01F07F010829E8D0C3
:103FD0004FF000080024FCF7A5F8B8F1010FD3DB7F
:103FE0004FF0000906E000BFFCF79CF809F1010959
:103FF000C145C9D057F829B0FCF790F81BF8041C4C
:1040000001F07F010829EFD1FCF78CF8DA465AF865
:10401000201F0020514503D0096801305145FBD1D4
:10402000DBE90616DBF81020AAF12C0330B3CDE94A
:10403000002103902CA008210822029602F01AFC0D
:10404000DAF800604BF29D475645C0F200070ED0EB
:10405000A6F114022846082102F00CFC30685045F5
:104060001CBF384602F006FC36685645F0D14BF2CC
:104070006840C0F2000002F0FDFB08E0CDE900213D
:10408000039020A008210822029602F0F3FB05AF5E
:10409000ACE700200DB0BDE8F08F00BF252D2A2E23
:1040A0007320626C6F636B20746F74616C20667236
:1040B00065652073757370656E64207468726561E0
:1040C000640A0000202D2D2D2D20202D2D2D2D209A
:1040D000202D2D2D2D202D2D2D2D2D2D2D2D2D2D2A
:1040E0002D2D2D2D0A000000252D2A2E2A73202586
:1040F000303464202025303464202025303464207E
:1041000025643A00252D2A2E2A7320253034642078
:1041100020253034642020253034642025640A00B2
:104120002DE9F04F8BB0062003F050F84BF2F0521F
:10413000044654A0C0F20002082102F09BFB4BF29F
:104140009B456FF00706C0F2000500BF284602F04D
:1041500091FB0136FAD352A0261D02F08BFB4BF2E5
:104160001067002503ACC0F20007029604E000BF10
:10417000029E002D00F08280A846002D08BF354623
:10418000FBF7CCFFB8F1000F10D14FF0000800BFD3
:104190002D68B54212D044F8285008F10108B8F152
:1041A000080FF5D14FF0080809E000BF15F8041C0E
:1041B00001F07F010629E8D04FF000080025FBF749
:1041C000B1FFB8F1010FD3DB4FF0000906E000BFEB
:1041D000FBF7A8FF09F10109C145C9D054F829A08E
:1041E000FBF79CFF1AF8041C01F07F010629EFD1B0
:1041F000FBF798FF5AF8081F4FF0FF36BAF8100087
:104200005145AAF1140351462CD000BF096801366C
:104210005145FBD1009028A008210822019602F008
:1042200029FBDAF800B04BF29D46D345C0F20006F8
:1042300011D000BFABF114023846082102F01AFB7E
:10424000DBF8000050451CBF304602F013FBDBF8E2
:1042500000B0D345EED14BF26840C0F2000002F04E
:1042600009FBB7E7096801365145FBD1009017A05B
:1042700008210822019602F0FDFAABE700200BB0FE
:10428000BDE8F08F252D2A2E7320656E747279207B
:1042900073757370656E64207468726561640A007A
:1042A000202D2D2D2D20202D2D2D2D2D2D2D2D2D65
:1042B0002D2D2D2D2D0A0000252D2A2E2A73202587
:1042C000303464202025643A00000000252D2A2E79
:1042D0002A732025303464202025640A0000000061
:1042E0002DE9F04F8DB0032002F070FF4BF24D62CC
:1042F000044636A0C0F20002082102F0BBFA4BF2DD
:104300009B456FF00706C0F2000500BF284602F08B
:10431000B1FA0136FAD336A004F1040A02F0AAFA7F
:1043200000270DF1140B0FF2E80901E0002F48D02F
:104330003C46002F08BF5746FBF7F0FE54B9002457
:104340003F6857450DD04BF824700134082CF7D145
:10435000082407E017F8041C01F07F010329EED0C0
:1043600000240027FBF7DEFE012CDFDB002502E046
:104370000135A542DAD05BF82560FBF7CFFE16F8D1
:10438000041C01F07F08FBF7CDFEB8F1030FEFD15D
:10439000D6F814C0F17C06F108004FF0FF32034656
:1043A0001B6801328342FBD1A6F10C03CDE901C1A8
:1043B00003924846082108220826009602F05AFA7D
:1043C000D6E700200DB0BDE8F08F00BF252D2A2EC6
:1043D000732020206F776E65722020686F6C6420D8
:1043E00073757370656E64207468726561640A0029
:1043F000202D2D2D2D2D2D2D2D202D2D2D2D202D14
:104400002D2D2D2D2D2D2D2D2D2D2D2D2D0A000059
:10441000252D2A2E2A7320252D382E2A732025306B
:1044200034642025640A00002DE9F04F8BB002208F
:1044300002F0CCFE044653A059A2082102F01AFA59
:104440004BF29B456FF00706C0F20005284602F0CC
:1044500011FA0136FAD355A0261D02F00BFA4BF2E1
:104460001067002503ACC0F20007029604E000BF0D
:10447000029E002D00F08280A846002D08BF354620
:10448000FBF74CFEB8F1000F10D14FF0000800BF51
:104490002D68B54212D044F8285008F10108B8F14F
:1044A000080FF5D14FF0080809E000BF15F8041C0B
:1044B00001F07F010229E8D04FF000080025FBF74A
:1044C00031FEB8F1010FD3DB4FF0000906E000BF69
:1044D000FBF728FE09F10109C145C9D054F829A00C
:1044E000FBF71CFE1AF8041C01F07F010229EFD132
:1044F000FBF718FE5AF8081F4FF0FF36BAF808000D
:104500005145AAF1140351462CD000BF0968013669
:104510005145FBD100902BA008210822019602F002
:10452000A9F9DAF800B04BF29D46D345C0F2000677
:1045300011D000BFABF114023846082102F09AF9FD
:10454000DBF8000050451CBF304602F093F9DBF861
:1045500000B0D345EED14BF26840C0F2000002F04B
:1045600089F9B7E7096801365145FBD1009019A0D8
:1045700008210822019602F07DF9ABE700200BB07C
:10458000BDE8F08F252D2A2E73207620202073750C
:104590007370656E64207468726561640A0000005F
:1045A00073656D6170686F7265000000202D2D2DA0
:1045B000202D2D2D2D2D2D2D2D2D2D2D2D2D2D0A5B
:1045C00000000000252D2A2E2A7320253033642078
:1045D00025643A00252D2A2E2A73202530336420A5
:1045E00025640A002DE9F04FABB0012002F0EEFD8A
:1045F00004464BF260304BF6AE42C0F20000C0F20F
:104600000002082102F036F94BF29B456FF00706D5
:10461000C0F20005284602F02DF90136FAD34BA06E
:10462000251D02F027F94FF0000923AE029504E0A2
:10463000029DB9F1000F00F084804C46B9F1000FE3
:1046400008BFA946FBF76AFD84B94FF0000A00BF16
:10465000D9F80090A94511D046F82A900AF1010A2C
:10466000BAF1080FF4D14FF0080A09E019F8041C58
:1046700001F07F010129E8D04FF0000A4FF0000956
:10468000FBF750FDBAF1010FD2DB4FF0000B06E053
:104690003846FBF747FD0BF1010BD345C8D056F860
:1046A0002B50FBF73BFD15F8041C074601F07F017A
:1046B0000129EDD1A5F10C0403A82146802202F0C6
:1046C00067F93846FBF72EFD95F829702FA00821D1
:1046D00008222346009702F0CDF895F82800F12132
:1046E00000F0070080F00400C140C90704D02AA1EF
:1046F00051F8200002F0BEF8E9690022885C01321E
:104700002328FBD0D5E908406427A21A02FB07F250
:104710002B69D5F83C8021446432B2FBF4F7CD1A02
:1047200004F00EFA06464BF2A430C0F2000029460F
:1047300022463B46CDF80080019602F09BF823AE5E
:10474000A9E700202BB0BDE8F08F00BF202D2D2D54
:1047500020202D2D2D2D2D2D2D202D2D2D2D2D2DB0
:104760002D2D2D2D202D2D2D2D2D2D2D2D2D2D2093
:10477000202D2D2D2D2D2D20202D2D2D2D2D2D2D90
:104780002D2D2D202D2D2D0A00000000252D2A2E47
:104790002A7320253364200073B400007CB4000029
:1047A0007CB400007CB400006AB400007CB400005B
:1047B000A3B40000F9B500002DE9F04F8BB00A203A
:1047C00002F004FD4BF20A62044644A0C0F200026B
:1047D000082102F04FF84BF29B456FF00706C0F23C
:1047E000000500BF284602F045F80136FAD348A07C
:1047F00004F1040802F03EF800240DF10C0A01E077
:10480000002C5ED02646002C08BF4446FBF786FCF1
:1048100086B94FF0000900BF2468444512D04AF819
:10482000294009F10109B9F1080FF5D14FF0080944
:1048300009E000BF14F8041C01F07F010A29E8D048
:104840004FF000090024FBF76DFCB9F1010FD7DB35
:10485000564629E0ABF10C07FBF764FCDBE90605E3
:10486000082100904BF28540C0F2000008223B4630
:10487000019501F0FFFF1BF8030C31A1C00734A024
:1048800008BF084601F0F6FF1BF8030C80075ABF6B
:104890004BF24B40C0F2000031A001F0EBFFB9F148
:1048A000010906F10406ABD0D6F800B0FBF736FCE0
:1048B0001BF8041C01F07F010A29CBD0FBF732FC66
:1048C000EDE704F009FE01464BF25540C0F200004E
:1048D00001F0D0FF00200BB0BDE8F08F252D2A2E6F
:1048E000732020706572696F646963202020746989
:1048F0006D656F7574202020206163746976617422
:10490000656420202020206D6F64650A000000008F
:10491000202D2D2D2D2D2D2D2D2D2D202D2D2D2DE1
:104920002D2D2D2D2D2D202D2D2D2D2D2D2D2D2DC4
:104930002D2D202D2D2D2D2D2D2D2D2D0A0000005E
:1049400064656163746976617465642000000000C9
:104950006163746976617465642020200000000042
:10496000706572696F6469630A00000005A005F054
:1049700099FA07A4204605F095FA0820FEF738FCBE
:10498000F8E700BF4150502053746172742E00004C
:104990000A0D4150502053746172742E00000000C3
:1049A000B0B54BF6A0744BF68C70C0F20004C0F2A8
:1049B0000000A04209D24BF68C75C0F2000500BF82
:1049C00055F8040B8047A542FAD3FFF7CFFFB0BDDF
:1049D0002DE9F04704460078002844D040F2C84052
:1049E00040F2CC4AC2F20000C2F2000A0768DAF8CC
:1049F0000000874263D200250FF2E0084FF0000963
:104A00000EE000BFA0EB0900A842B8BF0546404633
:104A1000314601F02FFFDAF800000C37874251D2FF
:104A20003E682046FBF7C2FC024620463146FBF7B3
:104A3000F3FC0028EFD125B93046FBF7B7FC05465B
:104A4000B14699F8001048460029DBD04846324666
:104A50001378002BD6D09942D4D110F8011F01321F
:104A60000029F5D1CEE74BF22230C0F2000001F070
:104A700001FF40F2C84040F2CC45C2F20000C2F251
:104A8000000500682968884211D24BF23D34A0F13C
:104A90000C06C0F2000400BF56F80C1F20467268D6
:104AA00001F0E8FE286806F10C018142F4D34BF2D4
:104AB0006840C0F2000001F0DDFEBDE8F0874FF075
:104AC00000090025B9F1000F08BFBDE8F0872046B6
:104AD00049462A4604F07CF8BDE8F08725730A00B1
:104AE0002DE9F04F8BB059B10C4683469BF800007E
:104AF000202818BF092807D1013C0BF1010BF5D183
:104B000000200BB0BDE8F08F002603E0B44200F0B7
:104B1000BA8001361BF80600092818BF2028F5D1F5
:104B2000002E00F0B48040F2C840C2F200000768D6
:104B300040F2CC40C2F20000056800E00C37AF4202
:104B40000ED2D7F80080594640463246FBF764FC47
:104B50000028F3D118F806000028EFD1B86800E06B
:104B6000002000284FF0000800F093800DF10409A8
:104B7000009048460021282201F0BEFF4FF0000AB5
:104B80000023594602E000BFA3426DD225460A46E3
:104B90001846A34288BF1D461178202918BF09294D
:104BA00007D1854204D002F8018B0130F4E700BF41
:104BB0002846BAF10A0F44D2A04255D222291DD16B
:104BC000511C49F82A105678431C03E011F8016F74
:104BD00018460133A3424FF0000238BF0122222EB3
:104BE00022D0A34220D25C2EF0D10A4612F8017FD7
:104BF000222F04BF1146831CE8E700BF234649F873
:104C00002A20A04288BF0346191A0AF1010A11445A
:104C1000C51A0026975D092F18BF202F0CD0AF1999
:104C20000CD00136F6E700BF0AF1010AE2B101F843
:104C3000018B831CA8E700BF91198319A342A3D35A
:104C400012E01FA001F016FE002425A559F824103B
:104C5000284601F00FFE0134A245F7D14BF268401F
:104C6000C0F2000001F006FEBAF1000F0FD0009A6A
:104C700001A9504690474FF00108B8F1000F0BD042
:104C80000BB0BDE8F08F2646002E7FF44CAF4FF0FE
:104C90000008B8F1000FF3D1584600BF017841F089
:104CA0002001202901D00130F8E7002101700DA07A
:104CB000594601F0DFFD4FF0FF300BB0BDE8F08F3B
:104CC000546F6F206D616E792061726773202120AF
:104CD0005765206F6E6C79205573653A0A000000A5
:104CE0002573200025733A20636F6D6D616E64201B
:104CF0006E6F7420666F756E642E0A0070B54BF28D
:104D00002230C0F2000001F0B5FD40F2C84040F290
:104D1000CC45C2F20000C2F2000500682968884252
:104D200011D24BF23D34A0F10C06C0F2000400BFDA
:104D300056F80C1F2046726801F09CFD286806F1A9
:104D40000C018142F4D34BF26840C0F2000001F044
:104D500091FD002070BD0000B0B5C8B104460078D8
:104D6000B0B12D2814BF2B2801342578002D04BFA5
:104D70000120B0BDFBF7F2FA0068611C425D202AF9
:104D800006D111F8015B002D04BF0120B0BDF5E78D
:104D90000020B0BDB0B50546806A0C46884207D9F0
:104DA0004BF678311DA0C0F20001822200F046F9D6
:104DB000E86AA04207D84BF6783121A0C0F2000182
:104DC000832200F03BF9A86A61680144A14211D036
:104DD0000A78D2070ED1EA6A91420BD02A6B8A4236
:104DE00008BF2C634B68002263600A604968221A7E
:104DF00001448A60A1684218A24208BFB0BD13787E
:104E0000DB070AD12B6BA34208BF2A636368002526
:104E100053606268256010448160B0BD2872745F81
:104E200075696E74385F74202A296D656D203E3D6A
:104E3000206D2D3E686561705F7074720000000027
:104E40002872745F75696E74385F74202A296D65E5
:104E50006D203C202872745F75696E74385F742011
:104E60002A296D2D3E686561705F656E64000000E3
:104E70002DE9F04F88B0DDF84CA00FF2AC1B5FEAD3
:104E80004A6764A758BFBB465FEACA6748BF2AF0B3
:104E9000010A5FEACA774FF0300708BF2027019761
:104EA0005FEA8A7705D4002702970027012600973A
:104EB00012E0B2F1FF3F07DD5FEA4A7707D45FEA0D
:104EC0000A77F0D5202703E052422D2700E02B2758
:104ED0000097002601270297DDF848C0039602B329
:104EE0004CF6CD4E0025CCF6CC4E0DF1100900BF8E
:104EF000A2FB0E6702F00F04FE0806EB86060A2BE3
:104F000008BFA2EB46041BF804404FEA121205F159
:104F1000010808BFFA0809F80540002A4546E7D10C
:104F200004E030228DF810204FF00108119AE0457E
:104F30006346C8BF43461AF0110FA2EB030202D02A
:104F4000039FB7B11BE00027002AC8BF0127029EBC
:104F50003740D21B012A58DB039F2025884238BFE7
:104F60000570013A002A00F10100F7DC4FF0FF3232
:104F70002FB988423CBF009F0770013A01305FEAB9
:104F8000CA6702D5E04513DB1CE0012A0DDB019F57
:104F9000884238BF0770013A002A00F10100F7DCAF
:104FA0004FF0FF32E04503DB0CE0013AE04509DA5F
:104FB000302700BF884238BF0770013B984500F199
:104FC0000100F7DBBCF1000F0FD004AB013B00BFC9
:104FD00088423CBF13F808700770BCF1000F00F165
:104FE000010002D0B8F10108F2DC012A0ADB01322B
:104FF000202300BF884238BF0370013A012A00F124
:105000000100F7DC08B0BDE8F08F039F013A002FE4
:10501000AFD0B4E7303132333435363738396162A6
:105020006364656600000000303132333435363752
:1050300038394142434445460000000080B582B003
:10504000944600228DF8072040F68002C2F200024A
:1050500013680A46014623B108461146624698473E
:105060000AE04BF69600C0F20000634601F002FC35
:105070009DF807000028FBD002B080BDB0B501FB51
:1050800000F4204601F026FC054620B12846002108
:10509000224601F031FD2846B0BD0000B0B50446FF
:1050A00038B94AF6C450C0F200000FA17F22FFF7C2
:1050B000C5FF2068012808BFB0BDFBF72FF801210C
:1050C000216054F8041F0546A14209D02068143815
:1050D00004F084F82846FBF725F802F025F9B0BD66
:1050E0002846FBF71FF8B0BD72745F636F6D706C7C
:1050F0006574696F6E5F646F6E65000010B504467D
:1051000038B94AF6C450C0F2000007A11B22FFF7CD
:1051100095FFFBF703F80021221DC4E90012A260ED
:10512000FBF700F810BD00BF72745F636F6D706CA9
:105130006574696F6E5F696E697400002DE9F041F6
:1051400082B00446019150B94AF6C4504AF6DA5189
:10515000C0F20000C0F200013A22FFF76FFF019891
:1051600000284DD0FAF7DAFF804600F0FFF878B15A
:105170004AF6DA56C0F2000648A0314601F07AFB42
:105180004BF66420C0F2000031463D22FFF756FF87
:10519000FAF7C4FF064604F06DF878B94AF6DA5714
:1051A000C0F2000748A0394601F064FB4BF66420CA
:1051B000C0F2000039463D22FFF740FFFAF7AEFF8C
:1051C000074601F033FB90B14AF6DA554AF66E50C5
:1051D000C0F20005C0F20000294601F04BFB4BF67F
:1051E0006420C0F2000029463D22FFF727FF384621
:1051F000FAF798FF3046FAF795FF4046FAF792FF24
:1052000004F038F80646FAF789FF216805460129B7
:105210004FF0000801D1002633E0274657F8040F6D
:10522000B8420AD04AF695504AF6DA51C0F2000068
:10523000C0F200014622FFF701FF019820B30020D1
:105240003063304604F0C0F8A06806F11401016034
:10525000B0610198A1600128776109DB06F14C0774
:1052600001AA3846002104F0E7F9384604F0F6FABE
:105270002846FAF757FF02F057F8366BFAF74EFF59
:105280000546C4F8008001E06FF001062846FAF7F1
:1052900049FF304602B0BDE8F08100BF46756E633D
:1052A00074696F6E5B25735D3A207363686564751E
:1052B0006C6572206973206E6F7420617661696C11
:1052C00061626C650A00000046756E6374696F6EFA
:1052D0005B25735D207368616C6C206E6F74206257
:1052E000652075736564206265666F7265207363FF
:1052F000686564756C65722073746172740A00006D
:10530000B0B54BF68C744BF68470C0F20004C0F25A
:105310000000A04228BFB0BD4BF68475C0F2000566
:1053200055F8040B8047A542FAD3B0BD40F2604067
:10533000C2F200000068704770B540F26046C2F2E9
:105340000006346800F0FAFBA04204BF002070BDE4
:10535000054648B13068002818BF00F0B5FB284664
:10536000432100F0F1FB3560204670BD40F644104B
:10537000C2F200000088704710B5044658B94AF6DA
:105380006E604AF6F061C0F20000C0F200014FF416
:10539000DF72FFF753FE206840F60E61CBF6AD6179
:1053A00088420BD04AF64E604AF6F061C0F2000027
:1053B000C0F2000140F2BF12FFF740FE204600F0AD
:1053C00023FBFAF7ABFE00212160FAF7ABFEE068A1
:1053D00000F020FD002010BDF0B581B01D4617463D
:1053E00004460E46F8B15EB340F60E60CBF6AD60F3
:1053F00020604FF40040A06004F1100004F1180197
:10540000C4E90400F000A680E780C4E90611256223
:1054100001F060FA01460020002908BF6FF0040087
:10542000E16001B0F0BD4AF66E604AF6DD61C0F29F
:105430000000C0F200012F22FFF700FE002ED3D1A2
:105440004AF6DD6103A0C0F200013022FFF7F6FD4D
:10545000CAE700BF73697A65203E20300000000073
:1054600070B5144605460E4658B94AF66E604AF6BF
:105470009261C0F20000C0F2000140F24F12FFF74B
:10548000DDFD286840F60E61CBF6AD6188420BD099
:105490004AF64E604AF69261C0F20000C0F2000186
:1054A0004FF4A872FFF7CAFDB5F90800002844BF01
:1054B0006FF0030070BDFAF731FE2989EA686FF3D7
:1054C000DF3152F8311031602989EA686FF3DF313A
:1054D00002EBC10149682160FAF724FE002070BD8B
:1054E0002DE9F04F83B014460D468246029350B921
:1054F0004AF66E604AF6B761C0F20000C0F20001E1
:10550000D722FFF79BFDDAF8000040F60E61CBF6DC
:10551000AD61884240F09D80002D00F0A880002CF5
:1055200000F0B0800298CDE90054002853D0FAF77B
:10553000F5FD0746FFF71AFF90B14AF6B7644AF641
:10554000ED50C0F20004C0F20000214601F092F9D3
:105550004BF66420C0F200002146DD22FFF76EFD0D
:10556000FAF7DCFD054603F085FE90B94AF6B7640C
:105570004AF61760C0F20004C0F20000214601F0B4
:1055800079F94BF66420C0F200002146DD22FFF7D6
:1055900055FDFAF7C3FD044601F048F990B14AF60B
:1055A000B7664AF66E50C0F20006C0F200003146FF
:1055B00001F060F94BF66420C0F200003146DD22B4
:1055C000FFF73CFD2046FAF7ADFD2846FAF7AAFDA5
:1055D0003846FAF7A7FD03F04DFE0546FAF79EFDA3
:1055E00007460AF1180805F1140905F14C064FF0B9
:1055F000000B0BE03846FAF795FD01F095FE2C6B99
:10560000FAF78CFD002C074640F0BA80BAF9080082
:10561000B0F1FF3F3FDC0298002800F0A780284649
:10562000C5F830B003F0D0FEDAF81C00C0F80090E6
:10563000A8610298CAF81C900128C5F81480D9DB2B
:105640003046002102AA03F0F7FF304604F006F9C5
:10565000D0E74AF64E604AF6B761C0F20000C0F2E9
:105660000001D822FFF7EAFC002D7FF458AF4AF67C
:10567000B76158A0C0F20001D922FFF7DFFC002C6F
:105680007FF450AF4AF6B76157A0C0F20001DA22AA
:10569000FFF7D4FC46E7DAF80C106FF3DF3051F86F
:1056A0003000009947F6FF720860BAF80800DAF88F
:1056B0000C106FF3DF3001EBC00001994068BAF8BD
:1056C00004300860BAF80800411C6FF3DF319043E2
:1056D000994218BF0844BAF80A1002466FF3DF3146
:1056E0006FF3DF329142AAF80800AAF80A1004BF4B
:1056F00040F40040AAF80800BAF1000F0BD14AF6B6
:105700006E604AF6A561C0F20000C0F200014FF4DD
:10571000ED72FFF793FCDAF8000040F60E61CBF66D
:10572000AD6188420BD04AF64E604AF6A561C0F2E0
:105730000000C0F2000140F2DB12FFF77FFCBAF973
:105740000800002815D4FAF7E9FCBAF80A10BAF8EC
:1057500008206FF3DF316FF3DF3291429CBFBAF85C
:10576000043019448C1AFAF7DDFC03E06FF00104F1
:1057700006E00024BAF80600A1B281420BD9002449
:105780003846FAF7CFFC04BBDAF82020EAB15046DD
:105790000121904719E0504650F8101F814209D06E
:1057A0000068143803F01AFD3846FAF7BBFC01F024
:1057B000BBFD02E03846FAF7B5FCDAF82020002AF3
:1057C0001EBF5046032190470024204603B0BDE889
:1057D000F08F00BF646174615F70747220213D209E
:1057E00052545F4E554C4C0073697A6520213D2020
:1057F00052545F4E554C4C002DE9F04F83B0834618
:10580000CDE90012029350B94AF66E604AF67F6104
:10581000C0F20000C0F200016222FFF70FFCDBF8CB
:10582000000040F60E61CBF6AD6188420AD04AF620
:105830004E604AF67F61C0F20000C0F200016322B0
:10584000FFF7FCFB0298002853D0FAF767FC0746E5
:10585000FFF78CFD90B14AF67F644AF6ED50C0F236
:105860000004C0F20000214601F004F84BF6642069
:10587000C0F2000021466622FFF7E0FBFAF74EFC7B
:10588000054603F0F7FC90B94AF67F644AF61760C4
:10589000C0F20004C0F20000214600F0EBFF4BF61E
:1058A0006420C0F2000021466622FFF7C7FBFAF72A
:1058B00035FC044600F0BAFF90B14AF67F664AF61E
:1058C0006E50C0F20006C0F20000314600F0D2FF78
:1058D0004BF66420C0F2000031466622FFF7AEFBB3
:1058E0002046FAF71FFC2846FAF71CFC3846FAF760
:1058F00019FC03F0BFFC0546FAF710FC07460BF154
:10590000100805F1140905F14C064FF0000A0AE0F1
:105910003846FAF707FC01F007FD2C6BFAF7FEFB9F
:10592000002C074662D1BBF90A00B0F1FF3F1CDC36
:105930000298002856D02846C5F830A003F044FD50
:10594000DBF81400C0F80090A8610298CBF814901E
:105950000128C5F81480DBDB3046002102AA03F0E1
:105960006BFE304603F07AFFD2E7DBF80C10009AAA
:105970006FF3DF3041F83020BBF80A0047F6FF72C2
:105980006FF3DF3001EBC00001994160BBF80A0002
:10599000411C9043BBF804206FF3DF31914218BFE4
:1059A0000844BBF8081002466FF3DF316FF3DF32B3
:1059B000ABF80A008A42ABF8081004BF40F400407C
:1059C000ABF80A00584650F8181F81420DD0006805
:1059D000143803F003FC3846FAF7A4FB01F0A4FCEA
:1059E00000240DE06FF0010400E000243846FAF7CF
:1059F00099FB2CB9DBF8202012B1584602219047C0
:105A0000204603B0BDE8F08FF0B581B0044658B928
:105A10004AF66E604AF6C961C0F20000C0F20001A9
:105A200040F26F12FFF70AFB206840F60E61CBF6DA
:105A3000AD6188420BD04AF64E604AF6C961C0F2A9
:105A40000000C0F200014FF4B872FFF7F7FAFAF75E
:105A500065FB4FF40041A160FAF764FB00F0ACF97C
:105A6000264656F8180FB04211D04FF0FF3700BF4E
:105A7000FAF754FB31680546A1F11400CF6103F039
:105A8000ADFB2846FAF74EFB3068B042F0D154F82F
:105A9000100FA04211D04FF0FF3600BFFAF73EFBC7
:105AA00021680546A1F11400CE6103F097FB28465A
:105AB000FAF738FB2068A042F0D100F08BF901F032
:105AC00033FC01B0F0BD000010B5044658B94BF2EC
:105AD000FE104BF20371C0F20000C0F200014FF45F
