:020000040000FA
:1000000038170020F900000001010000590200002B
:1000100005010000070100000901000000000000C8
:10002000000000000000000000000000DD020000F1
:100030000D010000000000004B010000192300002A
:100040001301000013010000130100001301000060
:10005000130100004D08000013010000130100000F
:100060000D2700007D070000F126000013010000AD
:100070001301000013010000130100001301000030
:100080001301000013010000130100001301000020
:100090001301000013010000130100001301000010
:1000A000130100001301000013010000B926000035
:1000B000D526000013010000130100001301000009
:1000C00013010000130100001301000013010000E0
:1000D00013010000130100001301000013010000D0
:1000E00013010000DFF80CD000F00AFA00480047C6
:1000F00035060000381700200648804706480047AC
:10010000FEE7FEE7FEE7FEE7FEE7FEE7FEE7FEE7C7
:10011000FEE7FEE795250000E5000000EFF3108004
:1001200072B6704780F3108870475D4A1368012BE0
:1001300004D04FF0010313605A4A10605A4A11600C
:100140005A484FF0805101607047EFF3108272B649
:1001500053480168002902D182F31088704704B423
:100160004FF0000101604F48016859B350490968D8
:10017000A1B103B5084609F087FEBDE80340724609
:1001800012F0400F0AD0EFF30B83EFF31484EFF378
:10019000098525E91E000068056013E0EFF3098179
:1001A0001EF0100F08BF21ED108B21E9F00F404A1F
:1001B00012687346EFF30B84EFF3148521E93C00DA
:1001C000006801603849096809683CC984F30B88F4
:1001D00085F314889E46364E3260104640B10AB40C
:1001E00009F050FE0ABC9E4613F0400F00D006E016
:1001F000B1E8F00F1EF0100F08BFB1EC108B81F3C7
:10020000098804BC82F31088704727490860EFF31F
:10021000148222F0040282F3148822494FF0000075
:1002200008601F494FF00100086022482249D0F8B9
:10023000002041EA020101601C484FF0805101603A
:100240001E480068006880F3088861B662B6BFF394
:100250004F8FBFF36F8F7047EFF308801EF0040FCE
:1002600001D0EFF3098020E9F00F114A12687346BC
:10027000EFF30B84EFF3148520E93C0040F804ED24
:100280001EF0040F02D080F3098801E080F3088893
:1002900000B506F085F85DF804EB4EF0040E7047EB
:1002A0007C0B0020B8080020C408002004ED00E00A
:1002B000940B002020ED00E00000FFFF08ED00E0BF
:1002C00001DF704712B50C460FCC24E90F0007F090
:1002D00053FCBDE81240086070477047EFF3088197
:1002E0001EF0040F01D0EFF30981886910F8020CA9
:1002F0000028F2D00128E5D02DE9F05F0546002066
:1003000092469B4688460646814640241BE0284686
:1003100041464746224600F0AAF853465A46C01ABC
:10032000914110D311461846224600F091F82D1A3B
:1003300067EB01084F4622460120002100F088F8B3
:1003400017EB00094E41201EA4F10104DFDC4846F2
:1003500031462A464346BDE8F09F000000487047FA
:10036000B4A80000A0F16101192900D82038704715
:10037000D2B201E000F8012B491EFBD270470022E7
:10038000F6E710B513460A4604461946FFF7F0FF94
:10039000204610BD10B5044604E00B7800F8013B80
:1003A00003B1491C521EF8D2204610BD421C10F861
:1003B000011B0029FBD1801A704710B5002200E014
:1003C000521C835C8C5CA34201D1002BF8D1D8B2C3
:1003D000E1B2401A10BD30B504460020034600E0EB
:1003E0005B1C934203D2E05CCD5C401BF8D030BD77
:1003F00010B5044600E0401C0378002BFBD100E060
:10040000401C521E04D311F8013B0370002BF7D19E
:1004100000210170204610BD30B50546002003467E
:1004200000E05B1C934205D2EC5CC85C201A01D151
:10043000002CF6D130BD70B5064609F0B5FF046852
:1004400005460A220021304600F021F82C6070BDDC
:10045000202A04DB203A00FA02F100207047914084
:10046000C2F1200320FA03F3194390407047202A79
:1004700004DB203A21FA02F00021704721FA02F34E
:10048000D040C2F1200291400843194670472DE93F
:10049000F04791460F4680460446002614F8015B5B
:1004A0002DB1FFF75BFF0068405DC007F6D12B2D33
:1004B00002D02D2D18D0641E4A463946204600F041
:1004C00031F827B13968A14201D1C7F80080710520
:1004D0004FF002040BD54042002803DD09F064FF11
:1004E0000460A007BDE8F08746F48066E4E70028D2
:1004F000F8DA09F059FF04606FF00040F2E70000FD
:10050000064C074D06E0E06840F0010394E8070060
:1005100098471034AC42F6D3FFF7E8FD48C5000019
:1005200068C500002DE9F05F824600780027154677
:100530008B460AF10104B946302801D09DB113E081
:1005400014F8010B0127782803D0582801D045B1B1
:100550000AE00DB1102D07D10027102514F8010B6A
:1005600002E0082500E00A250026B0460EE005FB63
:10057000080005FB06F1012701EB10461FFA80F881
:10058000B6F5803F00D3B94614F8010B294600F0B8
:1005900018F80028EBDABBF1000F05D00FB1641E8C
:1005A00000E05446CBF80040B9F1000F06D009F046
:1005B000FBFE02210160C81EBDE8F09F48EA06402C
:1005C000FAE73A2800D2303820F02002412A01D33D
:1005D000A2F13700884201D34FF0FF30704770B569
:1005E0008C1810F8015B15F0070301D110F8013BDE
:1005F0002A1106D110F8012B03E010F8016B01F865
:10060000016B5B1EF9D12B0705D40023521E0DD4BC
:1006100001F8013BFAE710F8013BCB1A921C03E00A
:1006200013F8015B01F8015B521EF9D5A142D8D342
:10063000002070BD80B509F0BDFD002080BD000028
:1006400040F20046C4F20106306840F2344740F000
:100650000400C2F2000700240FF2740826A53060DF
:100660003C7016E0012000F059FF00F0DF0101208E
:1006700000F058FF01F03CF80120B02100F052FFDB
:10068000306840F0040030603C704FF4FA7002F0C3
:10069000F9FF38780028F8D0306820F00400306086
:1006A00000F0F8FF022809D00128DBD00028E7D1AC
:1006B000284609F069FE01F01BF802E0404609F007
:1006C00063FE01F0A1FA01F03DF900F071FFD7E7F8
:1006D0000D0A41434454494D45525F4952513A52E3
:1006E00065636F6E666967757265207468652072F0
:1006F00065676973746572000D0A4F7468657220CE
:10070000495251204F6363757200000070B5064670
:10071000052014460D4600F001FF00F0FB01052006
:1007200000F000FF0120002100F0FCFE0A2000F094
:10073000F5FE40F080010A2000F0F4FE3DB1013EDC
:1007400016F8011F092000F0EDFE013DF8D101204F
:10075000032100F0E7FEFF25052000F0DFFE013D4C
:10076000290602D010F00400F6D0222000F0D6FEB8
:100770002070212000F0D2FE607070BD2DE9F041A4
:1007800041F20805C4F2020506F06EFA40F6A43103
:100790000020C2F2000101220C18EF68A36CDE6891
:1007A000F668F740FF070ED1EF681B69DB6802FAB5
:1007B00003F33B4242D1E430B0F5647FECD106F064
:1007C00077FABDE8F081D4F8DC80FFF7A7FC274674
:1007D00037F8D91FBA7857F8993C41EA02411A68AC
:1007E00057F8913CD268C1F38F016FF31F328E1A14
:1007F000DA68002147F8651CD16801222B6802FAEB
:1008000001F119432960FFF78DFC2EB1310204F18B
:10081000A400033105F0B2FFB8783988D8F8003069
:1008200041EA0040B8F80410C0F38F021944204692
:1008300000F09AFC06F03CFABDE8F0812868184305
:10084000286006F035FABDE8F0810000B0B540F24E
:100850001445C4F2010506F007FA40F2B400C2F2F2
:10086000000040F2741204300021C2F2000200BF06
:100870002C68535A1C4208D11431B1F5A07F00F105
:100880000C00F5D106F014FAB0BD2B600168002908
:10089000F8D04068884706F00BFAB0BDB0B5044602
:1008A00000684EF60071CBF6FD7108444FEA7010F7
:1008B000072839D8A068002818BFB0F5805F2CD170
:1008C000E068322830D8A069002818BFB0F5002FA2
:1008D00027D1E0690125002818BFB0F5800F25D188
:1008E0001A2001F095FE4EF20010CEF200004FF4F7
:1008F0000071C0F88011016041F23000C4F20200C2
:100900000560A16820680022B1F5006F026112D075
:10091000B1F5805F14D101220EE0B0F5006F03D174
:10092000CEE7B0F5802FD4D00120B0BDB0F5001FC8
:10093000D6D02846B0BD1322E36803FA02F2E26083
:1009400004F10C0C9CE82C10114301614FF00041A4
:10095000C160C16843EA05021143C160E169C26830
:1009600041EA0C0111430025C1602846B0BD0000DA
:1009700070B5D0F804E0BEF1010F3DD804684EF622
:100980000070CBF6FD7004EB000CBEF1000F4FEAD7
:100990007C1E1FD0BEF1070F2ED86FF00F0000EAAB
:1009A0005C0E40F2B43CC2F2000C0CEB0E00216075
:1009B0006260A060E56840F6FF76B5431D43E560E0
:1009C0004CF80E10C0E90120E1686FF30B011943E8
:1009D000C1600AE0BEF1070F0ED821606260E068D6
:1009E00040F6FF7188431843E06020694CF2010132
:1009F00008432061002070BD012070BD70470000D9
:100A000040F21440C4F20100016861F07F410160CE
:100A10007047000080B54368591E012926D88168B7
:100A20000139022922D801680022B2EB114F02D10C
:100A3000C268052A1AD840F2084C022BC4F2010CF5
:100A400016D0012B1ED15CF8082C20230A434CF849
:100A5000082C5CF8042C8A434CF8042C4EF200124B
:100A6000CEF20002C2F8803113600BE0012080BD9D
:100A70005CF8042C0A434CF8042C5CF8082C8A43DC
:100A80004CF8082C8268022A0DD0012A15D1DCF816
:100A900000200A43CCF80020DCF8042022EA0101FF
:100AA000CCF8041013E0DCF804200A43CCF804204E
:100AB000DCF8002022EA010107E0DCF804200A4308
:100AC000CCF80420DCF800201143CCF80010D0F85A
:100AD00000E00021B1EB1E4F25D16FF003014FF074
:100AE000FF3200BF01322EFA02F3012B01F10401A3
:100AF000F8D1072A0BD8DCF810200F23C0688B40F0
:100B00009A4388401043CCF81000002080BDDCF8E8
:100B1000142020390F23C0688B409A43884010432B
:100B20000021CCF81400084680BD00002DE9F04FEC
:100B300085B0052800F2A881054608680C4600210A
:100B4000B1EB104F40F0A08180B2002800F09C81F2
:100B5000606841F20101C0F20101884240F20001E7
:100B6000CEF6FF7109DCB0F5803F10DA032818BF1C
:100B7000052811D041F2040106E0014405290BD3F8
:100B800041F20201C0F20101884205D07CE1A0F5EA
:100B90008030022880F07881052D5ED80120A840A1
:100BA000810720D110F00C0F36D0012001F030FD6C
:100BB00040F670074FF20006C4F20107C4F20106C6
:100BC00007F1300007F1340207F1440C07F1480344
:100BD000032D06F5806503904AD107F128000290A5
:100BE00007F12C0034E0002001F012FD40F6700007
:100BF000C4F20100012D4FF2000500F1040200F1E2
:100C0000140C00F11803C4F20105039036D1A0F1D1
:100C10000801029104381BE00C2001F0F9FC40F6B9
:100C200070074FF20006C4F20107C4F2010607F193
:100C3000600007F1640207F1740C07F17803052DD9
:100C400006F5006503901ED107F1580002900020C0
:100C5000276801903F0427601BE0002002900020DD
:100C600001900020039000224FF0000C002310E0C0
:100C700007F12000029007F1240009E0A0F1100123
:100C80000C38029104E007F15000029007F1540083
:100C900001902768002F00F0F7804FF001080492C0
:100CA0001BE06FF01F00019A00EB8A0011680F270C
:100CB00007FA00F021EA0000106060680528186853
:100CC00014BF20EA0B0740EA0B071F60276837FABA
:100CD00008F008F1010800F0D780A8F1010A01200E
:100CE00000FA0AF617EA060BF0D0D4F804E0BEF5D5
:100CF000803F0FDCBEF1030F57D041F20400864560
:100D000053D0BEF5803F40F07F802F6827EA0B0765
:100D10002F6079E00020CEF6FF700EEB0006002277
:100D2000052EC1F2010253D228682EF0010120EAFB
:100D30000B002860A86991426FEA0B0940EA0B009A
:100D4000A8610FD1E869964500EA0900E861286AC0
:100D500000EA09002862686A14BF00EA090040EA54
:100D60000B006862901C864507D1E86900EA09001B
:100D7000E861286A40EA0B0028624FF6FD70CEF663
:100D8000FE70704401283FD8E869002140EA0B005A
:100D9000C1F20101E8610331686A8E4514BF00EABF
:100DA000090040EA0B0068622EE0BAF1100F5746C6
:100DB00028BFA8F11107072F18D8029ABF000F20EB
:100DC000166800FA07F1E06826EA0101B84019E068
:100DD000BEF1011F05D041F20200C0F201008645BC
:100DE00012D12F6847EA0B072F600DE06FF01F004C
:100DF000019A00EB870011680F27E6688740B94326
:100E000006FA00F008431060A768022F08D0049982
:100E1000012F0FD0BFB9039F386820EA0B000DE007
:100E20000399086820EA0B0008600499086840EA02
:100E30000B0707E0039F386840EA0B00386008683A
:100E400020EA0B070F606079C006DCF8000054BF91
:100E500020EA0B0740EA0B07CCF80070A079C00726
:100E60003FF42BAFBAF1100F28BFA8F1110ABAF165
:100E7000070F3FF616AF029A4FEA8A0110680F2754
:100E800007FA01F1884317E705B0BDE8F08F0000CD
:100E9000021F022A4FF20002C4F2010212D3831E83
:100EA000012B98BF02F58062052806D8012303FABA
:100EB00000F010F02A0F18BF09045069084018BF4D
:100EC0000120704702F500620528EFD9F5E7000020
:100ED00005282AD80023B3EB114F26D18BB223B3B8
:100EE000012A88BF7047031F4FF2000C022BC4F287
:100EF000010C1BD3831E012B98BF0CF5806C0528B9
:100F000006D8012303FA00F010F02A0F18BF0904D5
:100F1000012A05D1DCF810000843CCF81000704716
:100F2000DCF810008843CCF8100070470CF5006C1A
:100F30000528E6D9ECE700002DE9F04704460068F3
:100F400044F6FF31C4F2000188424FF0010508DC8D
:100F500044F20041C4F2000188420FD044F600017F
:100F600007E043F60001C4F20101884206D044F6CE
:100F70000041C4F20001884240F08780A0684FEA37
:100F8000701003287BD8E06840F40040B0F5004FB3
:100F900075D120690125062877D805FA00F010F0F0
:100FA000450F72D060690125B0F5407F0DDB12D08E
:100FB00040F20031C2F2000188420CD040F2003110
:100FC000C1F20001884206D05FE0B0F5807F02D018
:100FD000B0F5007F59D1A0694FEAB03003284ED850
:100FE000204600F055F801F0E1FAD4E9007144F22E
:100FF0004029C0F20F09D4F808800A01B0FBF2F6CC
:10100000D4F80CA006FB12000023A0FB0901002568
:10101000FFF772F989014AF2201241EA9061C0F2A9
:10102000070212EB801041F100014A460023FFF74E
:1010300063F93F2884BF013600207E62B8622069D0
:101040004AEA08010843F862D4E9050140F2003297
:10105000C2F20002904241EA000141F0010139630D
:1010600010D040F20031C1F2000188420DD140F2AF
:101070007840C2F2000007600020BDE8F087012040
:10108000BDE8F0870220002578652846BDE8F08796
:101090002DE9F04385B0044628B929A02DA140F2DE
:1010A0007B2204F001FAA06C4EF20018407ACEF2D6
:1010B000000801F0ADFAA06C01AD8169007D0191DD
:1010C00003264FF00109022729460296CDF80C901D
:1010D0000497FFF72BFDA06C01AAC169407D82E84F
:1010E000420229460497FFF721FDA06C90F9080001
:1010F00000280CD4420900F01F0108EB820209FA13
:1011000001F14044C2F8801100F5407006E04EF64F
:10111000145100F00F00CEF200010844A02101702C
:10112000A06C90F90800002807D400F01F010122EC
:1011300002FA01F1400948F8201005B0BDE8F0833B
:10114000687561727420213D2052545F4E554C4C9D
:101150000000000048414C5F554152545F4D737090
:10116000496E69740000000080B503688E4644F63D
:10117000FF31C4F2000194468B424FF0010108DCBC
:1011800044F20042C4F2000293420ED044F6000240
:1011900007E043F60002C4F20102934205D044F690
:1011A0000042C4F2000293420DD190F83910012997
:1011B00004BF022080BDBEF1000F4FF0010118BF37
:1011C000BCF1000F01D1084680BD996C724641F018
:1011D00001019964006C19466346FFF7C9FB01469B
:1011E000002818BF0121084680BD000080B5944644
:1011F000026844F6FF33C4F200039A424FF0010E36
:1012000008DC44F20043C4F200039A420ED044F6D4
:10121000000307E043F60003C4F201039A4205D03D
:1012200044F60043C4F200039A420CD190F83830DF
:10123000012B04BF022080BD00294FF0010E18BF12
:10124000BCF1000F01D1704680BD936C43F00203E6
:101250009364C06B6346FFF78BFB8646002818BF7C
:101260004FF0010E704680BD80B584B030200090F4
:101270004FF0011001900120029000200390694678
:101280000020FFF753FC002030210122FFF720FE51
:1012900004B080BDF0B581B04FF20006C4F2010683
:1012A0003168044621F0100000250027306000BF9F
:1012B000002020210022FFF70BFE082002F0E6F9B3
:1012C000002020210122FFF703FE00201021FFF75C
:1012D000DFFD002818BF012040EA45050A2002F082
:1012E000D5F9072F07F10107E2D3B4FA84F04409D6
:1012F000002020210022FFF7EBFD3068102140F094
:101300001000306000202246FFF7E2FD082002F0C6
:10131000BDF9002020210122FFF7DAFD082002F0AC
:10132000B5F9002020210022FFF7D2FDE8B201B07C
:10133000F0BD0000B0B54FF20001C4F201010A682F
:10134000044642F010000860002020210022002501
:10135000FFF7BEFDE0B2C20900201021FFF7B8FD83
:101360000820640002F092F9002020210122FFF7FA
:10137000AFFD082002F08AF9002020210022FFF7AB
:10138000A7FD082002F082F9072D05F10105E1D340
:10139000B0BD000080B54FF20000C4F2010001684A
:1013A000012241F01001016000201021FFF790FDA3
:1013B000002020210122FFF78BFD0A2002F066F9B0
:1013C000002010210022FFF783FD0A2002F05EF9C1
:1013D000002020210022FFF77BFD80BD80B54FF269
:1013E0000000C4F201000168002241F01001016018
:1013F00000202021FFF76CFD002010210022FFF7C4
:1014000067FD0A2002F042F9002020210122FFF7A7
:101410005FFD0A2002F03AF9002010210122FFF7B7
:1014200057FD0A2002F032F980BD0000B0B54FF23E
:101430000004C4F201042068102120F01000206094
:10144000002001220025FFF743FD0A2002F01EF9CB
:10145000002020210122FFF73BFD0A2002F016F9AF
:1014600000201021FFF714FD38B3FA2D05F1010516
:10147000F6D32068202140F01000206000200022D8
:10148000FFF726FD002010210022FFF721FD0A2092
:1014900002F0FCF80020202101220124FFF718FDB2
:1014A0000A2002F0F3F8002010210122FFF710FDBE
:1014B0000A2002F0EBF82046B0BD002020210022D7
:1014C0000024FFF705FD2046B0BD000070B588B0D0
:1014D000082000904FF00114002569460020019477
:1014E0000395FFF723FB002008210022FFF7F0FC03
:1014F0000020082101220126FFF7EAFC302004A980
:1015000051C104A900200795FFF710FB00203021EE
:101510000122FFF7DDFC08B070BD000080B500F0CF
:101520002DFE80BD80B500F0A1FE80BD10B584B059
:101530004FF4817000904FF0011001900120029053
:1015400000206C46039000202146FFF7EFFA4FF48D
:10155000E670009002202146FFF7E8FA4FF4F050C1
:10156000009003202146FFF7E1FA8020009004203C
:101570002146FFF7DBFA00204FF481710022FFF7CC
:10158000A7FC02204FF4E6710022FFF7A1FC042023
:101590004FF4F8510022FFF79BFC04208021002229
:1015A000FFF796FC012002F06DF804B010BD0000BA
:1015B00080B505206021FFF7B5FF20206421FFF7EB
:1015C000B1FF0F205521FFF7ADFF20204021FFF78D
:1015D000A9FF0F200221FFF7A5FF20204421FFF7DC
:1015E000A1FF0F20A821FFF79DFF20204821FFF732
:1015F00099FF40F2B030C2F2000001780F20FFF7EF
:1016000091FF20204C21FFF78DFF0F200421FFF7D1
:1016100089FF20205C21FFF785FF0F202621FFF79F
:1016200081FF20206021FFF77DFF0F200021FFF7C1
:1016300079FF20206821FFF775FF40F20800C2F211
:10164000000001780F20FFF76DFF20207021FFF7C9
:1016500069FF0F200121FFF765FF20207821FFF7A8
:1016600061FF0F200021FFF75DFF02208021FFF7BF
:1016700059FF0320C021FFF755FF20206421FFF709
:1016800051FF0F205521FFF74DFF0120B021FFF73B
:1016900049FF80BD80B50520FFF740FF41061BD400
:1016A00080061FD405204021FFF73CFF05202021A4
:1016B000FFF738FF20207C21FFF734FF0F200A219D
:1016C000FFF730FF20206421FFF72CFF0F2055216A
:1016D000FFF728FF002080BD05204021FFF722FFF3
:1016E000012080BD05202021FFF71CFF022080BDC6
:1016F000F0B58BB000208DF81D0026207821FFF773
:1017000011FF0DF12A01262000F04EFAC0B126206B
:101710004821FFF707FF0DF12A01262000F044FAC7
:1017200090B126205821FFF7FDFE0DF12A01262059
:1017300000F03AFA60B14CF26730C0F200001FE0EE
:101740009DF82A106AA006E09DF82A1060A002E029
:101750009DF82A1056A09DF82B2008F015FE0DF1DB
:101760001E00932100F038F908B169A008E00DF1DE
:101770001E040DF11D01204600F066FA28B169A093
:1017800008F002FE01200BB0F0BD9DF81D504CF298
:101790001B40C0F20000294608F0F6FD680711D48E
:1017A0009DF81E109DF81F209DF820309DF8217097
:1017B0004CF2F330C0F20000009708F0E5FD002085
:1017C0000BB0F0BD251D2846952100F005F920B18C
:1017D0004CF23630C0F20000D2E70DF11D01284670
:1017E00000F06EFA08B153A0CAE79DF81D504CF204
:1017F0003340C0F20000294608F0C6FD680716D441
:101800009DF822009DF823709DF824609DF82550D6
:101810009DF81F109DF820209DF82130CDE900078C
:101820004CF2BC300296C0F200000395C5E70834C4
:101830002046972100F0D0F820B14CF24730C0F29A
:1018400000009DE70DF11D01204600F075FA20B162
:101850004CF25830C0F2000092E79DF81D404CF267
:101860004B40C0F20000214608F08EFD6007A6D470
:101870009DF823009DF824509DF825409DF8286090
:101880009DF82970CDE9000502A89DF81F109DF86C
:1018900020209DF821309DF826C09DF827E080E8A3
:1018A00010504CF276300596C0F20000069784E79F
:1018B0000D0A52657175657374313A6F6B20204162
:1018C0005451413A253032782025303278000000DA
:1018D0000D0A52657175657374323A6F6B20204141
:1018E0005451413A253032782025303278000000BA
:1018F0000D0A52657175657374333A6F6B20204120
:101900005451413A25303278202530327800000099
:101910000D0A416E7469636F6C6C313A6661696C73
:10192000000000000D0A53656C656374313A66610E
:10193000696C00000D0A53656C656374323A666128
:10194000696C000080B5FFF7C1FD4FF4FA7001F03B
:1019500099FE0820FFF7E2FD00F0F7010820FFF7ED
:10196000E1FD12200021FFF7DDFD13200021FFF72C
:10197000D9FD24202621FFF7D5FD26207821FFF769
:10198000D1FD2A208021FFF7CDFD2B20A921FFF7D3
:10199000C9FD2C200321FFF7C5FD2D20E821FFF70D
:1019A000C1FD15204021FFF7BDFD11203D21FFF7AE
:1019B000B9FD01200021FFF7B5FD1420FFF7AEFDB2
:1019C000800718BF80BD1420FFF7A8FD40F0030179
:1019D0001420FFF7A7FD80BD70B588B0044608202D
:1019E0000D46FFF79BFD00F0F7010820FFF79AFD79
:1019F0000D200021FFF796FD0E20FFF78FFD00F070
:101A00007F010E20FFF78EFD202002AE8DF80850DA
:101A10008DF8090007AD0C203146022233460095AF
:101A200000F020F8054688B902984FF0FF31206099
:101A3000002000BF721852780131032980EA0200A9
:101A4000F8D19DF80C10884218BF02250E20FFF730
:101A500065FD40F080010E20FFF764FD284608B0C8
:101A600070BD00002DE9F0479846164605460C2843
:101A70000F4606D00E2D0CBF112401244FF0000993
:101A800002E031244FF001090420FFF747FD00F088
:101A90007F010420FFF746FD01200021FFF742FDF2
:101AA0000A20FFF73BFD40F080010A20FFF73AFDD6
:101AB0003EB1013F17F8011F0920FFF733FD013E3A
:101AC000F8D101202946FFF72DFD0C2D07D10D205F
:101AD000FFF724FD40F080010D20FFF723FDDDF826
:101AE00020A04FF63007CFF6FF7700BF0420FFF7A6
:101AF00015FD01371AD206460442F7D00D20FFF734
:101B00000DFD00F07F010D20FFF70CFD0620FFF713
:101B100005FD40F27971C2F2000108700620FFF75E
:101B2000FDFC10F01B0F19D0022508E00D20FFF777
:101B3000F5FC00F07F010D20FFF7F4FC02250C20DE
:101B4000FFF7ECFC40F080010C20FFF7EBFC0120DC
:101B50000021FFF7E7FC2846BDE8F0870C2D09EAD5
:101B60000605ECD10A20FFF7D9FC06460C20FFF74A
:101B7000D5FC10F0070040EAC600A8F10104A0F16E
:101B8000080008BFF000CAF80000002E08BF0126B8
:101B9000122E28BF122600BF0920FFF7BFFC04F851
:101BA000010F013EF8D1CAE7B0B588B0054608205C
:101BB0000C46FFF7B3FC00F0F7010820FFF7B2FC7A
:101BC0000D200721FFF7AEFC1420FFF7A7FC40F023
:101BD00003011420FFF7A6FC0DF10A018DF80A504D
:101BE00007AD0C2001220B460095FFF73BFF4FF09D
:101BF000020130B9079A102A03D1BDF80A102180DA
:101C00000146084608B0B0BD80B50020082100227A
:101C1000FFF75EF9642001F039FD00200821012260
:101C2000FFF756F9642001F031FD01200F21FFF785
:101C300079FC00BF0120FFF771FCC006FAD46420D4
:101C400001F024FD80BD000070B588B002680E462A
:101C500047F29301ADF80A10002103924FF0FF32D2
:101C60008DF8101083185B780132032A81EA030192
:101C7000F8D10DF10A058DF81010EA1D284607214C
:101C8000FEF744FD0820FFF749FC00F0F7010820AB
:101C9000FFF748FC07AC0C20294609222B4600948C
:101CA000FFF7E0FE00284FF0020006D1079918293F
:101CB00003D19DF80A003070002008B070BD00000C
:101CC00070B588B002680E4647F29501ADF80A106B
:101CD000002103924FF0FF328DF8101083185B78CB
:101CE0000132032A81EA0301F8D10DF10A058DF8CA
:101CF0001010EA1D28460721FEF708FD0820FFF70F
:101D00000DFC00F0F7010820FFF70CFC07AC0C20DD
:101D1000294609222B460094FFF7A4FE00284FF025
:101D2000020006D10799182903D19DF80A003070E6
:101D3000002008B070BD000070B588B002680E4683
:101D400047F29501ADF80A10002103924FF0FF32DF
:101D50008DF8101083185B780132032A81EA0301A1
:101D6000F8D10DF10A058DF81010EA1D284607215B
:101D7000FEF7CCFC0820FFF7D1FB00F0F7010820AC
:101D8000FFF7D0FB07AC0C20294609222B46009414
:101D9000FFF768FE00284FF0020006D107991829C6
:101DA00003D19DF80A003070002008B070BD00001B
:101DB00070B50420042400F02BFC40F248414FF49D
:101DC0008030C2F2000101250026C1E90040002058
:101DD000C1E90256FEF7AAFE002004210022FFF707
:101DE00077F840F23840C2F200000221C0E9004515
:101DF000C0E90216FEF70EFE03A008F0C5FAFEF7D2
:101E0000FFFD002070BD00BF0A0D45585449204910
:101E10004E4954204F4B2E0010B5FFF7BBFAD0208F
:101E2000FFF788FAFFF702FB0220FFF783FAFFF7BC
:101E3000FDFAAA20FFF77EFAFFF7F8FAFFF7CEFACD
:101E4000FFF7A8FAD020FFF775FAFFF7EFFA0220A4
:101E5000FFF770FAFFF7EAFAFFF7C0FAFFF79AFA0E
:101E6000D120FFF767FAFFF7E1FA0020FFF712FA37
:101E70000446FFF7B3FA40F27870C2F20000047033
:101E8000FFF788FAD020FFF755FAFFF7CFFA0220C4
:101E9000FFF750FAFFF7CAFAFFF7A0FAFFF77AFA4E
:101EA000D120FFF747FAFFF7C1FA0020FFF7F2F958
:101EB0000446FFF793FA0EA0214608F065FAAA2C13
:101EC0001CBF012010BDFFF765FAD020FFF732FAE2
:101ED000FFF7ACFA0220FFF72DFAFFF7A7FA7720F9
:101EE000FFF728FAFFF7A2FAFFF778FA002010BDF3
:101EF0000D0A54656D703A30782530325800000074
:101F000080B5C82001F0BEFBFFF744FAD020FFF7F0
:101F100011FAFFF78BFA0C20FFF70CFAFFF786FA9D
:101F2000FE20FFF707FAFFF781FAFFF757FAFFF7EE
:101F300031FAD020FFF7FEF9FFF778FA0920FFF712
:101F4000F9F9FFF773FA0F20FFF7F4F9FFF76EFACC
:101F5000FFF744FA0A2001F095FBFFF71BFAD020A7
:101F6000FFF7E8F9FFF762FA0920FFF7E3F9FFF757
:101F70005DFA0720FFF7DEF9FFF758FAFFF72EFAB0
:101F80000A2001F07FFBFFF705FAD020FFF7D2F916
:101F9000FFF74CFA0220FFF7CDF9FFF747FA772059
:101FA000FFF7C8F9FFF742FAFFF718FAFFF7F2F95F
:101FB000D020FFF7BFF9FFF739FA0320FFF7BAF98E
:101FC000FFF734FA7720FFF7B5F9FFF72FFAFFF79D
:101FD00005FAFFF7DFF9D020FFF7ACF9FFF726FA93
:101FE0000420FFF7A7F9FFF721FA7720FFF7A2F9FE
:101FF000FFF71CFAFFF7F2F9FFF7CCF9D020FFF753
:1020000099F9FFF713FA0520FFF794F9FFF70EFA95
:102010007720FFF78FF9FFF709FAFFF7DFF9FFF7EE
:10202000B9F9D020FFF786F9FFF700FA0620FFF78D
:1020300081F9FFF7FBF97720FFF77CF9FFF7F6F955
:10204000FFF7CCF9FFF7A6F9D020FFF773F9FFF7F8
:10205000EDF90720FFF76EF9FFF7E8F97720FFF7B2
:1020600069F9FFF7E3F9FFF7B9F9FFF793F9D02022
:10207000FFF760F9FFF7DAF90820FFF75BF9FFF7E0
:10208000D5F90B20FFF756F9FFF7D0F9FFF7A6F9BE
:10209000FFF780F9D020FFF74DF9FFF7C7F90C20C3
:1020A000FFF748F9FFF7C2F90020FFF743F9FFF700
:1020B000BDF9FFF793F9FFF76DF9D020FFF73AF973
:1020C000FFF7B4F90D20FFF735F9FFF7AFF930202E
:1020D000FFF730F9FFF7AAF9FFF780F9FFF75AF990
:1020E000D020FFF727F9FFF7A1F90A20FFF722F91F
:1020F000FFF79CF90020FFF71DF9FFF797F9FFF7AD
:102100006DF9FFF747F9D020FFF714F9FFF78EF9C3
:102110000B20FFF70FF9FFF789F90020FFF70AF905
:10212000FFF784F9FFF75AF9FFF734F9D020FFF7EA
:1021300001F9FFF77BF90E20FFF7FCF8FFF776F9BE
:102140000020FFF7F7F8FFF771F9FFF747F9FFF7FE
:1021500021F9D020FFF7EEF8FFF768F90F20FFF71D
:10216000E9F8FFF763F90020FFF7E4F8FFF75EF9FD
:10217000FFF734F9282001F085FA80BDB0B54FF2A1
:102180000005C4F201052968044641F010002860EA
:10219000002010210122FEF79BFE002020210122B9
:1021A000FEF796FE0A2001F071FA002010210022AD
:1021B000FEF78EFE0A2001F069FA0020202100229D
:1021C000FEF786FE5020FFF7B5F8FFF72FF92046FF
:1021D000FFF7B0F8FFF72AF92868102140F0100047
:1021E000286000200122FEF773FE0020202101223A
:1021F000FEF76EFE0A2001F049FA002010210022AD
:10220000FEF766FE0A2001F041FA0020202100229C
:10221000FEF75EFE5120FFF78DF8FFF707F900206B
:10222000FFF738F82968044641F0100028600020C4
:1022300020210022FEF74CFE002010210022FEF794
:1022400047FE0A2001F022FA002020210122FEF799
:102250003FFE0A2001F01AFA002010210122FEF7A9
:1022600037FE0A2001F012FA2046B0BD70B54FF2D9
:102270000006C4F201060C463168054641F0100024
:102280003060002010210122FEF722FE00202021D4
:102290000122FEF71DFE0A2001F0F8F900201021AE
:1022A0000022FEF715FE0A2001F0F0F9002020219F
:1022B0000022FEF70DFE5020FFF73CF8FFF7B6F8BE
:1022C0002846FFF737F8FFF7B1F82046FFF732F856
:1022D000FFF7ACF83068202140F01000306000209B
:1022E0000022FEF7F5FD002010210022FEF7F0FD90
:1022F0000A2001F0CBF9002020210122FEF7E8FDA1
:102300000A2001F0C3F9002010210122FEF7E0FDB0
:102310000A2001F0BBF970BD80B504F0A5FC07F000
:1023200017FB04F0C5FC80BD80B586B04FF480116A
:102330000A68082363F3CB120A60002240F62C01DE
:102340000092C4F20101029251F8083C9B0509D4A5
:1023500051F8083C43F0010341F8083C51F8083CAF
:102360009B05FBD549F2000EC0F2D03E0EF10103F1
:1023700040F6080C9842C2F2000C41F81C2C19D20D
:1023800051F8082CD20509D551F8082C22F4807296
:1023900041F8082C51F8082C9205FBD544F60002B0
:1023A000C0F2E812904222D10220CCF80020059021
:1023B000012020E0029A52B3029A012A56D100224B
:1023C00003920D2241F8042C51F8042CD2065FD45C
:1023D00044F24023C0F20F03039A9A4256D0039A64
:1023E0000132039251F8042CD206F5D550E00120B9
:1023F000CCF800E005900490DCF80000049AB0FBF3
:10240000F2F040F60402C2F20002106094E051F8CB
:10241000082C42F4807241F8082C00BF51F8082CB7
:102420009205FBD50A6842F001020A600A6822F4AC
:1024300000120A600A685200FCD540F60062C0F241
:102440002772904215D049F20052C0F6BA2290424B
:102450004CD10A68212363F3D3020A600A6842F46C
:1024600080020A600A685200FCD554E00320009004
:1024700062E00A68122363F3D3020A600A6842F436
:1024800080020A600A685200FCD544E002220092F1
:10249000009A002A43D10A6842F001020A600A68E1
:1024A00022F400120A6000BF0A685200FCD540F610
:1024B0000062C0F2277290421BD049F20052C0F66F
:1024C000BA22904212D10A6840F2122363F3D30277
:1024D0000A600A6842F006020A600A6842F4800252
:1024E0000A6000BF0A685200FCD514E00122009285
:1024F00015E00A6840F2124363F3D3020A600A68E7
:1025000042F006020A600A6842F480020A6000BFD4
:102510000A685200FCD50122059202220492CCF8EE
:102520000000049AB0FBF2F040F60402C2F200028E
:102530001060042041F81C0C009810B10120059097
:1025400002E0049801281ED10020019051F8180CD7
:10255000059B40F2FF7290435A1E019B104340EAD4
:10256000032041F8180C00BF51F8180CB0F1FF3FE0
:10257000FADCDCF80000FEF741FA0098B0FA80F0CF
:10258000400906B080BD0498022814BF052004202D
:10259000DBE700004EF68850CEF20000016841F4FF
:1025A00070010160002140F8801C704740F6040073
:1025B000C2F200000068704740F60800C2F2000056
:1025C0000068704780B540F60000C4F20100016861
:1025D0004FF6FF0241F480310160C16B21F400012C
:1025E000C1634EF60C50CEF200000168114041F07C
:1025F000BF6141F40131016049F20050C0F6BA20D8
:10260000FFF792FE002818BF80BD00BFFEE7000064
:1026100081B040F61C010E28C4F2010107D30E3828
:1026200001220B6802FA00F01843086005E001225D
:102630004B6802FA00F0184348600220009000BF87
:102640000098411E00280091FAD101B070470000A7
:1026500070B50420FFF7DCFF40F268414FF480546E
:102660004FF48030C2F2000101250022C1E9004090
:102670000220C1E902520226FEF758FA02204FF466
:1026800080510022FEF724FC40F25840C2F20000C4
:1026900080E87000C660FEF7BDF903A007F074FE85
:1026A000FEF7AEF970BD00BF0A0D455854492049E8
:1026B0004E4954204F4B2E0080B504F0D5FA40F619
:1026C000A430C2F20000A43007F0E6FD04F0F0FAF6
:1026D00080BD000080B504F0C7FA40F6A430C2F215
:1026E000000000F5C47007F0D7FD04F0E1FA80BDEA
:1026F00080B504F0B9FA40F6A430C2F2000000F54B
:102700001B7007F0C9FD04F0D3FA80BD80B504F05A
:10271000ABFA40F6A430C2F2000000F5547007F0A6
:10272000BBFD04F0C5FA80BD002804BF002070473F
:10273000C1B209B101200CE010F47F4102D0090AB6
:10274000092006E010F47F0107BF010E1920090CD3
:1027500011204AF6B802C0F20002515C08447047EA
:102760002DE9F041C8B2542884BF0620BDE8F081AD
:10277000C81701EB1070DDF8188020F00F001C4620
:102780000D4616460F1AFDF7C9FC07EB470140F24C
:10279000B403C2F2000333F8212003EB810117B226
:1027A000AF4208D14B68A34205D14B88B34202D156
:1027B0008B68434509D04FF6FF739A4201D0072436
:1027C00004E00D804E80C1E901480024FDF7AAFC19
:1027D0002046BDE8F081000070B5022830DC4BF2E5
:1027E000A340C0F2000004F07BFA4BF21250C0F29A
:1027F000000004F075FA4BF20240C0F2000004F051
:102800006FFA4BF28640C0F2000004F069FA4BF216
:102810005350C0F2000004F063FA4BF24140C0F2A2
:10282000000004F05DFA4BF2B140C0F2000004F089
:1028300057FA4BF23B50C0F2000004F051FA70BD61
:102840000C464968054673A006F0A0FBE0B161683C
:1028500071A006F09BFB20B3616871A006F096FBA7
:1028600058B3616870A006F091FB0028B7D1032D22
:10287000B5DDA06802F0A6FC0146A068002973D06F
:10288000FDF7D9FD054675E0A06800F00FF9A168D5
:10289000B0F1FF3F40F38780024681A004F020FAA8
:1028A00070BD032D9BDDA06802F08CFC0146A06882
:1028B00089B3FDF7C0FD054633E0A06802F082FC55
:1028C0000146A06819B1FDF7B6FD054605E000F028
:1028D000EDF80546B0F1FF3F64DD40F28444C2F2FA
:1028E0000004E06A50B94BF2D2504BF2E951C0F209
:1028F0000000C0F20001962202F0D6FDE06A2946EF
:10290000826820469047294601280CBF51A04DA05F
:1029100004F0E6F970BD00F0C9F80546B0F1FF3FDC
:1029200040DDE1684FA006F031FBC8B1E1684FA07F
:1029300006F02CFBB0B1E1684EA006F027FB0028A2
:102940004DD0E1684FA006F021FB002849D0E16896
:1029500050A006F01BFB00287FF441AF042441E0A7
:1029600000243FE001243DE000F0A0F80546B0F16E
:10297000FF3F17DDE1682EA006F008FBD0B1E1684B
:102980002DA006F003FBA8B1E1682CA006F0FEFA2A
:1029900030B1E1682AA006F0F9FA00287FF41FAFF1
:1029A000002408E0A1684BF2E930C0F2000004F016
:1029B00097F914E7012440F28446C2F20006F06A57
:1029C00050B94BF2D2504BF20161C0F20000C0F29C
:1029D0000001902202F068FDF06A436815E00224CD
:1029E00000E0032440F28446C2F20006F06A50B9C7
:1029F0004BF2D2504BF2F551C0F20000C0F2000190
:102A00008A2202F051FDF06A0368304629462246C8
:102A1000984770BD6E756D006D6F646500000000B5
:102A200072656164000000007772697465000000DF
:102A300068696768000000006F6E00006C6F7700C7
:102A40006F66660070696E5B25645D203D206F6671
:102A5000660A000070696E5B25645D203D206F6E24
:102A60000A0000006F75747075740000696E7075EF
:102A700074000000696E7075745F70756C6C7570B1
:102A800000000000696E7075745F70756C6C646F27
:102A9000776E00006F75747075745F6F640000006E
:102AA0002573203A2025640A0000000010B582B08A
:102AB000044600780021ADF804100091FDF752FCA7
:102AC00061788DF800000846FDF74CFC8DF8010098
:102AD000204606F091FA14F8021F2E291CBF2E2161
:102AE0008DF802100528A8BF0520821E68462146E1
:102AF000FDF77EFC40F28444C2F20004E06A50B963
:102B00004BF2D2504BF20E61C0F20000C0F2000155
:102B10009D2202F0C9FC9DF8000040F020007028C2
:102B200009D1E06A816900290EBF6FF0050068468F
:102B3000884702B010BD6FF0090002B010BD000060
:102B4000B0B50446154638B94BF2C350C0F2000088
:102B500008A1372202F0A8FC002D04BF4FF0FF307F
:102B6000B0BDE06A298803686A882046984700203B
:102B7000B0BD00BF5F70696E5F636F6E74726F6C23
:102B800000000000C8B2542884BF06207047B0B5CA
:102B9000C81701EB10704FF6FF7420F00F000D1AEC
:102BA000FDF7BCFA05EB450140F2B402C2F20002A7
:102BB00032F82130A34206D002EB810100220C80C2
:102BC0004A80C1E90122FDF7ADFA0020B0BD000046
:102BD0002DE9F04784B0C8B254285FD8400050FABD
:102BE00081F04AF68043C0F2000353F82070B7F139
:102BF000FF3718BF03EB8007002F52D0C81701EB37
:102C00001074002A24F00F00A1EB000606EB8600EA
:102C100040F27411C2F2000101EB800543D0012A99
:102C20005AD1FDF77BFA06EB460140F2B40CC2F232
:102C3000000C3CF821304FF6FF72934280464ED094
:102C4000B8680CEB81010090002003904FF48030B5
:102C5000019028884FEA24192C4644F8040F48882C
:102C60004FF0010A0228C4F804A004D8C0F1020100
:102C700001300291E86038796946FDF757FF204638
:102C8000C5F81090FDF7C6FE40F69C00C2F20000A9
:102C900001680AFA06F2114301601BE00027002FC9
:102CA000ACD106251FE040F69C00C2F2000000688F
:102CB000F040C0071BD0FDF731FA40F20042C4F2E9
:102CC00001022988136880468B431360536823EA06
:102CD00001005060002503E06FF0050503E00625C4
:102CE0004046FDF71FFA284604B0BDE8F0870625E8
:102CF000F9E7000080B584B0C8B2542810D840006D
:102D000050FA81F14AF68043C0F2000353F82100E3
:102D1000B0F1FF3018BF03EB810020B904B080BDD3
:102D200000200028FAD08168042A00914FF0011198
:102D300001914FF000010291039107D80AA10FA35E
:102D400051F8221053F82220CDE9011242F20C4131
:102D5000C4F200010A6822F040020A600079694664
:102D6000FDF7E4FE04B080BD010001000000010099
:102D7000000001000000010002100100000000003E
:102D80000000000001000000020000000000000040
:102D900070B51E460546144638B94BF2C350C0F212
:102DA000000009A1162202F07FFB4FF000004CB199
:102DB000042E18BF70BDE86A2188826828469047B3
:102DC0006080042070BD00BF5F70696E5F726561D6
:102DD0006400000080B5C8B254280ED8400050FAF4
:102DE00081F04AF68042C0F2000252F82010B1F1A0
:102DF000FF3118BF02EB800100E00021002904BF71
:102E0000002080BD08798968FEF742F880BD000087
:102E100070B51E460446154638B94BF2C350C0F291
:102E2000000009A1262202F03FFB4FF000004DB147
:102E3000042E18BF70BDE06A298843686A8820465E
:102E40009847042070BD00BF5F70696E5F7772693C
:102E50007465000080B5C8B254280ED8400050FAFE
:102E600081F04AF68043C0F2000353F82010B1F11C
:102E7000FF3118BF03EB800100E00021002908BFEB
:102E800080BD08798968D2B2FEF722F880BD0000C3
:102E9000B0B540F6A800C2F200000468FDF73EF9A4
:102EA0000546204604F032FE04F14C0006F068FEB0
:102EB000042084F83400204606F030FA2846FDF756
:102EC00031F904F067FCB0BD70B582B00446DDE9AD
:102ED00006C61430C4E9050004F12000089D80E80E
:102EE0000E1018462321624604F03CF804F120033A
:102EF0000FCB1A4442F69163043AC0F2000303F088
:102F00000DFE202EE06104D314A01DA1BD2202F00D
:102F1000CBFA42F6917284F83560002604F14C0039
:102F2000C0F2000221462346C4E90E6684F84060E0
:102F3000C4E91155266384F83460C4E91E6600961E
:102F4000019606F077FE40F66C10C2F200000168B0
:102F500000291CBF2046884702B070BD7072696F9F
:102F600072697479203C2052545F54485245414460
:102F70005F5052494F524954595F4D41580000002B
:102F80005F7468726561645F696E69740000000057
:102F9000B0B5044650B94CF253104CF26321C0F264
:102FA0000000C0F20001862202F07EFA94F834009C
:102FB00000F00700022807D04CF2632116A0C0F2EF
:102FC0000001872202F070FA204604F047FB012836
:102FD0000AD04CF299104CF26321C0F20000C0F20A
:102FE0000001882202F060FAFDF798F821460546B4
:102FF000A06951F8142F6FF001035060A06923639A
:1030000002602046A161096004F03CFD2846FDF7FE
:1030100089F804F0BFFBB0BD287468726561642D47
:103020003E7374617420262052545F5448524541C7
:10303000445F535441545F4D41534B29203D3D2043
:1030400052545F5448524541445F53555350454E86
:103050004400000040F2DC454FF6FE76C2F2000567
:10306000C7F6FF7602E000BF05F0F6FEFDF756F862
:103070002C68AC421CBF29684F69FDF753F8AC427D
:103080000AD006F05FFC3C1AB442EDD8204606F0A8
:1030900051F92746E8E700BF06F022FB06F0CAFB1D
:1030A00004F078FB05F0D8FEE0E70000B0B5044678
:1030B0000D46C8B12DB354F85C0C4168204640F869
:1030C000A41D29684160297901F00F0108292ED13A
:1030D000602144F89C1C2979C1F30111D1B1012967
:1030E00025D14FF4004116E04BF2AA604BF2B071CB
:1030F000C0F20000C0F20001532202F0D5F9002D09
:10310000D9D14BF2B07114A0C0F20001542202F0E8
:10311000CBF9D0E7002144F8981C297900258909CA
:1031200008D0012908D0022901D1062105E06FF05D
:103130000900B0BD002100E00221A4F194034FF486
:10314000407226C3FDF7F8FE54F8A40CC16A21F0C2
:103150001001C1622846B0BD63666720213D205240
:10316000545F4E554C4C0000F0B581B016460446F5
:103170000F4638B94BF2AA60C0F2000064A1922257
:1031800002F092F9032FA4F1A40522D0102F2ED023
:10319000112F40F0BA8054F85C0C90F90800002818
:1031A00011D44EF2001200F01F014009CEF20002CD
:1031B00002EB8000012202FA01F1C0F88010BFF397
:1031C0004F8FBFF36F8F2868816B21F010018163EF
:1031D0009BE024B3B6F5007F30D0B6F5006F40F029
:1031E0008D8054F85C1CA4F12C0010312BE054F8B5
:1031F0005C0C90F9080000280BD400F01F0101229C
:1032000002FA01F14EF200124009CEF2000242F839
:1032100020102868816B41F01001816375E04BF24A
:10322000AA604BF2C071C0F20000C0F200014FF47E
:10323000A27202F039F9B6F5007FCED154F85C1CC9
:10324000A4F158000C310968B6F5007F0A684FF008
:10325000000C026008D0B6F5006F0ED100234FF0CD
:1032600080624FF4006704E04FF000634FF4805732
:103270000022C0E901C7C0E904230969C160002137
:10328000C0E90611FDF70AFB58B14BF648704BF246
:10329000C071C0F20000C0F2000140F26F1202F0F3
:1032A00003F9B6F5007F07D0B6F5006F09D1A4F198
:1032B0002C00A4F1680103E0A4F15800A4F164011A
:1032C0000860B6F5007F19D194F83700B4F83510CE
:1032D000A26B41EA00401168C0F38F022846FDF757
:1032E00043FF58B14BF648704BF2C071C0F200007A
:1032F000C0F200014FF4C17202F0D6F84AF27931FF
:10330000C0F20001204602F02FFF002001B0F0BD06
:103310005F756172745F636F6E74726F6C00000032
:10332000F0B581B01F46144605460E4640B94BF233
:10333000AA60C0F200000EA14FF48C7202F0B4F843
:103340004FF000008CB1022F0FD1A5F1A40031463F
:103350002246FDF74BFF00281EBF002001B0F0BD44
:103360002846042103F00AFA204601B0F0BD00BF50
:103370005F756172745F646D615F7472616E736DAD
:103380006974000010B5044638B94BF2AA60C0F267
:10339000000007A1C42202F087F854F8A40C816948
:1033A000C9064EBF4FF0FF300068C0B210BD00BF6D
:1033B0005F756172745F676574630000B0B5054640
:1033C0000C4638B94BF2AA60C0F2000007A1B32244
:1033D00002F06AF855F8A40C81698906FCD40460EF
:1033E00081690907FCD40120B0BD00BF5F7561721F
:1033F000745F70757463000080B502A003F070FC08
:10340000002080BD1B5B324A1B5B480080B584B046
:1034100000200390CDE9010003A802A901AA03F04E
:1034200049FD039909A003F05BFC02990BA003F08E
:1034300057FC01990DA003F053FCDDE90210411A7D
:103440000EA003F04DFC002004B080BD746F7461C9
:103450006C202020203A2025640A000075736564E2
:1034600020202020203A2025640A00006D61786920
:103470006D756D20203A2025640A0000617661692F
:103480006C61626C653A2025640A000010B5022860
:103490004ED14C684CF29211C0F200012046FCF76C
:1034A0008CFF002879D04BF6EE21C0F200012046B7
:1034B000FCF783FF002874D04AA12046FCF77DFF6B
:1034C000002872D04BF62B31C0F200012046FCF7E9
:1034D00074FF00286DD04BF63131C0F20001204658
:1034E000FCF76BFF002868D04BF63731C0F20001C3
:1034F0002046FCF762FF002863D04BF6D421C0F2CF
:1035000000012046FCF759FF00285ED04BF6E6216B
:10351000C0F200012046FCF750FF002859D04BF6BE
:10352000C821C0F200012046FCF747FF002854D014
:103530004BF62D00C0F2000003F0D2FB2AA003F0EE
:10354000CFFB4BF6AE00C0F2000003F0C9FB4BF618
:10355000E400C0F2000003F0C3FB4BF6C900C0F268
:10356000000003F0BDFB4BF61610C0F2000003F0A4
:10357000B7FB4BF6FD00C0F2000003F0B1FB1DA04D
:1035800003F0AEFB23A003F0ABFB2BA003F0A8FBE2
:1035900032A003F0A5FB002010BD01F071FA00205D
:1035A00010BD01F057FB002010BD01F08BF9002089
:1035B00010BD00F03FFD002010BD01F0DFF800203D
:1035C00010BD00F019FE002010BD00F0F7FF002034
:1035D00010BD00F0FFFE002010BD00F081FC0020B7
:1035E00010BD00BF73656D005B6F7074696F6E73A3
:1035F0005D3A0A00202020206D61696C626F78209E
:103600002D206C697374206D61696C626F78730A28
:1036100000000000202020206D73677175657565BE
:10362000202D206C697374206D657373616765204C
:103630007175657565730A00202020206D656D70B9
:103640006F6F6C202D206C697374206D656D6F72C7
:103650007920706F6F6C730A00000000202020201A
:10366000646576696365202D206C697374206465D8
:1036700076696365730A000080B501F001FA0020E5
:1036800080BD000080B505F0D9FF80BD7047000007
:1036900070B582B040F69836C2F20006306800215C
:1036A0008DF8071038B94BF2DA70C0F2000019A19A
:1036B000A42201F0F9FE3068D0F80C4234B30DF1C9
:1036C000070220464FF0FF31012302F0FBFC0128E6
:1036D00003D19DF8070002B070BD0DF1070508E0A9
:1036E00020464FF0FF312A46012302F0EBFC01286F
:1036F000EFD030684FF0FF3104F0F2FA3068D0F8C4
:103700000C02A042ECD000280446E9D14FF0FF3073
:1037100002B070BD66696E73685F676574636861E7
:103720007200000010B540F69834C2F20004206820
:1037300038B94BF2DA70C0F2000004A1C32201F0E4
:10374000B3FE206804F07EFA002010BD66696E7337
:10375000685F72785F696E640000000070B540F6C3
:103760009836C2F200063168054639B94BF2DA7074
:10377000C0F200001CA1D62201F096FE284602F0FD
:1037800013FC60B304463068D0F80C02844225D0A4
:10379000204640F2431102F00DFC002818BF70BD16
:1037A0003068D0F80C0238B102F0C4FB3068002158
:1037B000D0F80C0202F0D8FC3068002100F5DB7074
:1037C0005122002503F0CEFB306843F22571C0E999
:1037D0008254C0F20001204602F0C6FC70BD07A072
:1037E000294603F07DFA70BD66696E73685F736584
:1037F000745F6465766963650000000066696E73D6
:10380000683A2063616E206E6F742066696E642072
:103810006465766963653A2025730A00B0B582B0A5
:1038200040F2E8404CF28841C2F20000C0F20001D0
:10383000016040F2EC404CF24851C2F20000C0F28C
:103840000001016001204FF4047101F04DFE40F6CB
:103850009835C2F20005286088B3142043F6F501BC
:103860000A24009019A0C0F2000100224FF48053F6
:10387000019405F02DFD2A68044616A11046002289
:10388000002304F09BF9286850B94BF2DA704BF230
:10389000EB71C0F20000C0F20001902201F004FEC2
:1038A0002868002C90F8211041F0020180F82110C6
:1038B0001CBF204605F05EFF002002B0B0BD07A08F
:1038C00003F00EFA4FF0FF3002B0B0BD74736865BC
:1038D0006C6C000073687278000000006E6F206DE1
:1038E000656D6F727920666F72207368656C6C0A03
:1038F0000000000040F69839C2F20009D9F8000033
:1039000090F82110D0F80C2241F0010180F821102C
:103910002AB901F041FF002818BFFFF71FFFD9F8AF
:10392000000040F27C7690F82100C2F20006800789
:1039300040F60000C2F2000002D40020307015E012
:10394000016839B140F27C70C2F200008022FCF7BD
:1039500021FD06E00020307147F26D30C2F26800B0
:1039600030603046FCF722FD3E213152304603F0F4
:10397000B7F94BF2D2774FF0010A4FF0000BC0F2CB
:10398000000701E084F820A0FFF782FE0028FBD4A6
:10399000D9F8004080461B28F4D094F82000022873
:1039A0000AD0012840F05E80B8F15B0F40F05880EB
:1039B000022084F82000E7E7B8F1440F84F820B033
:1039C00000F28D80DFE818F045009200920092002E
:1039D0009200920092009200D10011015B009200CF
:1039E00092005B009200920092009200920092007E
:1039F0009200920092009200920092009200920037
:103A00009200920092009200920092009200920026
:103A10009200920092009200920092009200920016
:103A20009200920092009200920092009200920006
:103A300092009200920092009200920092009200F6
:103A4000920092009200920092004600DF01E6018F
:103A5000FE0199E7608C002800F018820138E3E14C
:103A600084F820B0B8F10D0F39D8DFE808F0073F2F
:103A70003F3F3F3F3F3F7EBE083F3F0884E7B4F8EB
:103A80000802002800F00081A58C052DC0F0D3802D
:103A900004F5B37504F5DB78284641465022FCF75F
:103AA0009AFC002800F0F0804FF6C066CFF6FF7653
:103AB000A11901F5B37001F5DB71502203F09EF9F5
:103AC0005036F5D128460021502203F04BFAB4F8C5
:103AD00008222846414603F091F90520CFE0B8F1CD
:103AE0007F0F42D0B8F1FF0F3FF44EAFB4F8080299
:103AF000502828BFA4F808B2B4F80A32B4F8082253
:103B00009A4240F2EB80E11801F2B71001F5DB7147
:103B1000D21A03F0B1F9D9F80000B0F80A1208443B
:103B200080F8B681D9F8000090F82110C90707D0B5
:103B3000B0F80A12084400F5DB71E3A003F0D0F8F6
:103B4000D9F80000B0F80A42B0F80802844280F0C8
:103B5000D58000BF384603F0C3F8D9F8000001341F
:103B6000B0F808028442F5D3C8E0B4F80A0200288D
:103B70003FF40AAFB4F80812013801398AB283B2AF
:103B8000A4F808129A42A4F80A0240F2C980E11887
:103B900001F5DB7001F2B711D21A03F06DF9D9F813
:103BA0000000B0F80812084480F8B6B1D9F8000057
:103BB000B0F80A12084400F5DB71C1A003F090F8D8
:103BC000D9F80010B1F80A02B1F8081288423FF69D
:103BD000DBAE441E384603F083F8D9F80000013408
:103BE000B0F808028442F5D3CEE6D9F80000B0F868
:103BF0000A1259B1002400BF384603F071F8D9F811
:103C000000000134B0F80A128C42F5D300F5DB75E0
:103C10004BF64C10C0F2000003F062F8284601F0A9
:103C20000DF9D9F8000090F82100800700F1838099
:103C300086F800B0E2E055B105EB850004F5DB71D4
:103C400004EB001050222A38FCF7C5FBE0B105EB6D
:103C5000850004F1260606EB001000215022658441
:103C600003F080F9A08CB4F8082200EB800004F582
:103C7000DB7106EB001003F0C1F8A08C013040F2BC
:103C80007C76C2F20006A084A08CD9F80010608473
:103C900091F82100C00705D04BF64C10C0F200008F
:103CA00003F01EF8D9F80000B0F8081200F5DB7038
:103CB00001F04CF9D9F8000090F82100800702D4F7
:103CC00086F800B04FE040F60000C2F20000016844
:103CD000E9B330468022FCF75DFB3FE0A01880F896
:103CE000B681D9F8000090F82100C00706D04BF249
:103CF0009400C0F20000414602F0F2FFD9F8000043
:103D0000B0F80812B0F80A220131A0F8081289B2FE
:103D100001325029A0F80A2228BFC0F808B233E6C1
:103D200066A002F0DDFFD9F80000B0F808120844E0
:103D300080F8B6B128E640F60000C2F20000016843
:103D400000294FD030468022FCF724FB51E047F297
:103D50006D30C2F2680086F804B030603046FCF77F
:103D600025FB3E213152304602F0BAFFD9F800005F
:103D7000002100F5DB70512203F0F4F8D9F80000BF
:103D8000C0F808B200E6A18C628C481E904248DD63
:103D9000501C49E0B4F80A02B4F808128842BFF493
:103DA000F3AD204490F8B6114BF29400C0F200003D
:103DB00002F096FFD9F80000B0F80A120131A0F81D
:103DC0000A12E1E5B4F80A0200283FF4DDAD3846F6
:103DD00002F086FFD9F80000B0F80A120139A0F805
:103DE0000A12D1E547F26D30C2F2680086F804B0DD
:103DF00030603046FCF7DAFA3E2131524BF60100D2
:103E0000C0F2000031462A4602F06AFFD9F80040AD
:103E100004F5DB70FCF7CAFAA4F80802A4F80A0259
:103E2000B2E500293FF4B0AD81B26084890011FA97
:103E300080F104F5DB7004EB01115022263102F011
:103E4000DDFFD9F8004004F5DB752846FCF7AEFA33
:103E5000A4F80802A4F80A024BF2D470C0F20000E1
:103E600002F03EFFD9F8000090F82100800702D44C
:103E700086F800B019E040F60000C2F200000168C8
:103E800039B130468022FCF785FA09E0A4F822B067
:103E90007AE547F26D30C2F2680086F804B030600F
:103EA0003046FCF783FA3E2131524BF60100C0F256
:103EB000000031462A4602F013FF65E5082008009D
:103EC00008257320200800002573000080B5C1B2CA
:103ED0004BF29400C0F2000002F002FF012080BD0E
:103EE0002DE9F04F8BB0092003F0A6FB4BF6C8225A
:103EF000044636A0C0F20002082102F0F1FE4BF6A3
:103F00007F156FF00706C0F2000500BF284602F0DB
:103F1000E7FE0136FAD337A004F1040902F0E0FE0F
:103F200000270DF10C0B0FF2F80A01E0002F48D02A
:103F30003C46002F08BF4F46FCF7F0F854B9002468
:103F40003F684F450DD04BF824700134082CF7D151
:103F5000082407E017F8041C01F07F010929EED0BE
:103F600000240027FCF7DEF8012CDFDB5E461BE0B7
:103F7000FCF7D8F898F8081027A01D299EBF4AF62C
:103F8000E810C0F2000050F8210098F80E50A8F197
:103F90000C030090504608210822019502F0A0FE73
:103FA000013C06F10406C1D0D6F80080FCF7B6F853
:103FB00018F8041C01F07F010929D9D0FCF7B2F8E8
:103FC000EEE700200BB0BDE8F08F00BF252D2A2EB4
:103FD000732020202020202020207479706520204C
:103FE0002020202020202072656620636F756E746B
:103FF0000A000000202D2D2D2D2D2D2D2D2D2D2DA8
:104000002D2D2D2D2D2D2D2D2D202D2D2D2D2D2DED
:104010002D2D2D2D0A000000556E6B6E6F776E00F2
:10402000252D2A2E2A7320252D32307320252D3858
:10403000640A00002DE9F04F8BB0042003F0FCFA75
:104040004BF62B32044650A0C0F20002082102F0C9
:1040500047FE4BF67F156FF00706C0F2000500BF64
:10406000284602F03DFE0136FAD350A0261D02F08C
:1040700037FE4BF6F4274BF6811B0025C0F20007F4
:10408000C0F2000B029602E0029E002D77D02C4673
:10409000002D08BF3546FCF741F89CB94FF00008E9
:1040A00003AC00BF2D68B5420AD044F8285008F18F
:1040B0000108B8F1080FF5D14FF008080CE000BF77
:1040C000002509E015F8041C01F07F010429E5D062
:1040D0004FF00008002503ACFCF724F8B8F1010FFD
:1040E000D2DB4FF0000905E0FCF71CF809F10109EB
:1040F000C145C9D054F829A0FCF710F81AF8041CDF
:1041000001F07F010429EFD1FCF70CF85AF8080FF1
:10411000DAF808605045AAF1140329D04FF0FF34B3
:10412000504600BF006801345045FBD127A008214C
:1041300008220096019402F0D3FDDAF8006003AC87
:1041400056450ED0A6F114023846082102F0C8FDEB
:10415000306850451CBF584602F0C2FD36685645CF
:10416000F0D14BF64C10C0F2000002F0B9FDBDE7F3
:104170001CA008210822009602F0B2FDB6E700203C
:104180000BB0BDE8F08F00BF252D2A2E7320202014
:104190002020207365742020202073757370656E55
:1041A00064207468726561640A00000020202D2D6F
:1041B0002D2D2D2D2D2D2D2D202D2D2D2D2D2D2D3C
:1041C0002D2D2D2D2D2D2D0A00000000252D2A2E00
:1041D0002A73202030782530387820253033643A0F
:1041E00000000000252D2A2E2A732020307825304B
:1041F000387820300A0000002DE9F04F8DB00520FE
:1042000003F01AFA4BF63732044656A0C0F2000209
:10421000082102F065FD4BF67F156FF00706C0F22E
:10422000000500BF284602F05BFD0136FAD356A018
:10423000261D02F055FD4BF6F427002505ACC0F213
:104240000007049604E000BF049E002D00F0858066
:10425000A846002D08BF3546FBF760FFB8F1000FF8
:1042600010D14FF0000800BF2D68B54212D044F8BD
:10427000285008F10108B8F1080FF5D14FF00808EF
:1042800009E000BF15F8041C01F07F010529E8D002
:104290004FF000080025FBF745FFB8F1010FD3DB15
:1042A0004FF0000906E000BFFBF73CFF09F10109F0
:1042B000C145C9D054F829A0FBF730FF1AF8041CF7
:1042C00001F07F010529EFD1FBF72CFF5AF8082FE9
:1042D0004FF0FF36BAF80E10BAF80C005245AAF1AA
:1042E000140352462CD000BF126801365245FBD150
:1042F000CDE900102BA008210822029602F0F0FC64
:10430000DAF800B04BF68116D345C0F2000610D0A3
:10431000ABF114023846082102F0E2FCDBF80000A1
:1043200050451CBF304602F0DBFCDBF800B0D34543
:10433000EED14BF64C10C0F2000002F0D1FCB5E714
:10434000126801365245FBD1CDE900101BA00821AF
:104350000822029602F0C4FCA8E700200DB0BDE8D8
:10436000F08F00BF252D2A2E7320656E7472792080
:1043700073697A652073757370656E6420746872F2
:104380006561640A00000000202D2D2D2D20202DB8
:104390002D2D2D202D2D2D2D2D2D2D2D2D2D2D2D5A
:1043A0002D2D0A00252D2A2E2A7320253034642035
:1043B00020253034642025643A000000252D2A2E63
:1043C0002A7320253034642020253034642025646D
:1043D0000A0000002DE9F04F8DB0082003F02CF901
:1043E0004BF6E622044654A0C0F20002082102F077
:1043F00077FC4BF67F156FF00706C0F2000500BF93
:10440000284602F06DFC0136FAD355A0261D02F0B5
:1044100067FC4BF6F425002405AFC0F200050496B6
:1044200004E000BF049E002C00F08180A046002C18
:1044300008BF3446FBF772FEB8F1000F10D14FF001
:10444000000800BF2468B44212D047F8284008F1A1
:104450000108B8F1080FF5D14FF0080809E000BFD6
:1044600014F8041C01F07F010829E8D04FF000087F
:104470000024FBF757FEB8F1010FD3DB4FF0000922
:1044800006E000BFFBF74EFE09F10109C145C9D0A6
:1044900057F829B0FBF742FE1BF8041C01F07F011E
:1044A0000829EFD1FBF73EFEDA465AF8201F00201C
:1044B000514503D0096801305145FBD1DBE90616AF
:1044C000DBF81020AAF12C0330B3CDE900210390D2
:1044D0002CA008210822029602F002FCDAF8006003
:1044E0004BF681175645C0F200070ED0A6F1140214
:1044F0002846082102F0F4FB306850451CBF3846BE
:1045000002F0EEFB36685645F0D14BF64C10C0F287
:10451000000002F0E5FB08E0CDE90021039020A0B7
:1045200008210822029602F0DBFB05AFACE7002071
:104530000DB0BDE8F08F00BF252D2A2E7320626CD0
:104540006F636B20746F74616C2066726565207395
:10455000757370656E64207468726561640A00002A
:10456000202D2D2D2D20202D2D2D2D20202D2D2DBC
:104570002D202D2D2D2D2D2D2D2D2D2D2D2D2D2D78
:104580000A000000252D2A2E2A73202530346420AD
:1045900020253034642020253034642025643A00FE
:1045A000252D2A2E2A7320253034642020253034EE
:1045B000642020253034642025640A002DE9F04F62
:1045C0008BB0062003F038F84BF6D422044654A0F2
:1045D000C0F20002082102F083FB4BF67F156FF05A
:1045E0000706C0F2000500BF284602F079FB01363D
:1045F000FAD352A0261D02F073FB4BF6F4270025D8
:1046000003ACC0F20007029604E000BF029E002D3A
:1046100000F08280A846002D08BF3546FBF77EFDDE
:10462000B8F1000F10D14FF0000800BF2D68B5425F
:1046300012D044F8285008F10108B8F1080FF5D15C
:104640004FF0080809E000BF15F8041C01F07F01D5
:104650000629E8D04FF000080025FBF763FDB8F10C
:10466000010FD3DB4FF0000906E000BFFBF75AFD56
:1046700009F10109C145C9D054F829A0FBF74EFD45
:104680001AF8041C01F07F010629EFD1FBF74AFD5F
:104690005AF8081F4FF0FF36BAF810005145AAF13A
:1046A000140351462CD000BF096801365145FBD197
:1046B000009028A008210822019602F011FBDAF8E8
:1046C00000B04BF68116D345C0F2000611D000BFF2
:1046D000ABF114023846082102F002FBDBF80000BF
:1046E00050451CBF304602F0FBFADBF800B0D34562
:1046F000EED14BF64C10C0F2000002F0F1FAB7E731
:10470000096801365145FBD1009017A00821082205
:10471000019602F0E5FAABE700200BB0BDE8F08FA0
:10472000252D2A2E7320656E74727920737573702F
:10473000656E64207468726561640A00202D2D2DF9
:104740002D20202D2D2D2D2D2D2D2D2D2D2D2D2DB3
:104750002D0A0000252D2A2E2A73202530346420AE
:104760002025643A00000000252D2A2E2A732025DA
:10477000303464202025640A000000002DE9F04F49
:104780008DB0032002F058FF4BF63132044636A0BC
:10479000C0F20002082102F0A3FA4BF67F156FF079
:1047A0000706C0F2000500BF284602F099FA01365C
:1047B000FAD336A004F1040A02F092FA00270DF1B0
:1047C000140B0FF2E80901E0002F48D03C46002FFF
:1047D00008BF5746FBF7A2FC54B900243F68574571
:1047E0000DD04BF824700134082CF7D1082407E0D1
:1047F00017F8041C01F07F010329EED000240027E4
:10480000FBF790FC012CDFDB002502E00135A5421F
:10481000DAD05BF82560FBF781FC16F8041C01F088
:104820007F08FBF77FFCB8F1030FEFD1D6F814C077
:10483000F17C06F108004FF0FF3203461B6801329D
:104840008342FBD1A6F10C03CDE901C10392484696
:10485000082108220826009602F042FAD6E7002036
:104860000DB0BDE8F08F00BF252D2A2E732020202B
:104870006F776E65722020686F6C6420737573703B
:10488000656E64207468726561640A00202D2D2DA8
:104890002D2D2D2D2D202D2D2D2D202D2D2D2D2D62
:1048A0002D2D2D2D2D2D2D2D2D0A0000252D2A2EBF
:1048B0002A7320252D382E2A732025303464202594
:1048C000640A00002DE9F04F8BB0022002F0B4FE24
:1048D000044653A059A2082102F002FA4BF67F15B4
:1048E0006FF00706C0F20005284602F0F9F901361C
:1048F000FAD355A0261D02F0F3F94BF6F427002554
:1049000003ACC0F20007029604E000BF029E002D37
:1049100000F08280A846002D08BF3546FBF7FEFB5D
:10492000B8F1000F10D14FF0000800BF2D68B5425C
:1049300012D044F8285008F10108B8F1080FF5D159
:104940004FF0080809E000BF15F8041C01F07F01D2
:104950000229E8D04FF000080025FBF7E3FBB8F18F
:10496000010FD3DB4FF0000906E000BFFBF7DAFBD5
:1049700009F10109C145C9D054F829A0FBF7CEFBC4
:104980001AF8041C01F07F010229EFD1FBF7CAFBE2
:104990005AF8081F4FF0FF36BAF808005145AAF13F
:1049A000140351462CD000BF096801365145FBD194
:1049B00000902BA008210822019602F091F9DAF864
:1049C00000B04BF68116D345C0F2000611D000BFEF
:1049D000ABF114023846082102F082F9DBF800003E
:1049E00050451CBF304602F07BF9DBF800B0D345E0
:1049F000EED14BF64C10C0F2000002F071F9B7E7AF
:104A0000096801365145FBD1009019A00821082200
:104A1000019602F065F9ABE700200BB0BDE8F08F1E
:104A2000252D2A2E73207620202073757370656ED5
:104A300064207468726561640A00000073656D61CA
:104A400070686F7265000000202D2D2D202D2D2DFA
:104A50002D2D2D2D2D2D2D2D2D2D2D0A000000005D
:104A6000252D2A2E2A7320253033642025643A0010
:104A7000252D2A2E2A7320253033642025640A0030
:104A80002DE9F04FABB0012002F0D6FD04464BF605
:104A900044004CF29212C0F20000C0F20002082161
:104AA00002F01EF94BF67F156FF00706C0F2000505
:104AB000284602F015F90136FAD34BA0251D02F065
:104AC0000FF94FF0000923AE029504E0029DB9F101
:104AD000000F00F084804C46B9F1000F08BFA946D2
:104AE000FBF71CFB84B94FF0000A00BFD9F8009017
:104AF000A94511D046F82A900AF1010ABAF1080F27
:104B0000F4D14FF0080A09E019F8041C01F07F0104
:104B10000129E8D04FF0000A4FF00009FBF702FB33
:104B2000BAF1010FD2DB4FF0000B06E03846FBF77D
:104B3000F9FA0BF1010BD345C8D056F82B50FBF70F
:104B4000EDFA15F8041C074601F07F010129EDD1AB
:104B5000A5F10C0403A82146802202F04FF9384643
:104B6000FBF7E0FA95F829702FA0082108222346C8
:104B7000009702F0B5F895F82800F12100F0070041
:104B800080F00400C140C90704D02AA151F82000D8
:104B900002F0A6F8E9690022885C01322328FBD0E4
:104BA000D5E908406427A21A02FB07F22B69D5F861
:104BB0003C8021446432B2FBF4F7CD1A04F0F6F9DC
:104BC00006464BF68800C0F20000294622463B46C6
:104BD000CDF80080019602F083F823AEA9E700200B
:104BE0002BB0BDE8F08F00BF202D2D2D20202D2DC6
:104BF0002D2D2D2D2D202D2D2D2D2D2D2D2D2D2DF2
:104C0000202D2D2D2D2D2D2D2D2D2D20202D2D2DFB
:104C10002D2D2D20202D2D2D2D2D2D2D2D2D2D20EB
:104C20002D2D2D0A00000000252D2A2E2A73202567
:104C30003364200057B9000060B9000060B900007B
:104C400060B900004EB9000060B9000087B90000EB
:104C5000DDBA00002DE9F04F8BB00A2002F0ECFC29
:104C60004BF6EE22044644A0C0F20002082102F0F6
:104C700037F84BF67F156FF00706C0F2000500BF4E
:104C8000284602F02DF80136FAD348A004F10408B2
:104C900002F026F800240DF10C0A01E0002C5ED091
:104CA0002646002C08BF4446FBF738FA86B94FF079
:104CB000000900BF2468444512D04AF8294009F190
:104CC0000109B9F1080FF5D14FF0080909E000BF5B
:104CD00014F8041C01F07F010A29E8D04FF0000904
:104CE0000024FBF71FFAB9F1010FD7DB564629E084
:104CF000ABF10C07FBF716FADBE90605082100907B
:104D00004BF66910C0F2000008223B46019501F005
:104D1000E7FF1BF8030C31A1C00734A008BF084609
:104D200001F0DEFF1BF8030C80075ABF4BF62F1073
:104D3000C0F2000031A001F0D3FFB9F1010906F182
:104D40000406ABD0D6F800B0FBF7E8F91BF8041C5A
:104D500001F07F010A29CBD0FBF7E4F9EDE704F07D
:104D6000F1FD01464BF63910C0F2000001F0B8FF2A
:104D700000200BB0BDE8F08F252D2A2E7320207067
:104D80006572696F64696320202074696D656F7551
:104D9000742020202061637469766174656420202A
:104DA0002020206D6F64650A00000000202D2D2D4D
:104DB0002D2D2D2D2D2D2D202D2D2D2D2D2D2D2D30
:104DC0002D2D202D2D2D2D2D2D2D2D2D2D2D202D2D
:104DD0002D2D2D2D2D2D2D2D0A00000064656163D4
:104DE0007469766174656420000000006163746911
:104DF000766174656420202000000000706572698F
:104E00006F6469630A000000FEE70000B0B54CF271
:104E100084444CF27040C0F20004C0F20000A04292
:104E200009D24CF27045C0F2000500BF55F8040BE2
:104E30008047A542FAD3FFF7E7FFB0BD2DE9F04761
:104E400004460078002844D040F2E84040F2EC4AA2
:104E5000C2F20000C2F2000A0768DAF800008742D6
:104E600063D200250FF2E0084FF000090EE000BF0A
:104E7000A0EB0900A842B8BF05464046314601F004
:104E80002FFFDAF800000C37874251D23E682046E7
:104E9000FBF78CFA024620463146FBF7BDFA0028A4
:104EA000EFD125B93046FBF781FA0546B14699F8AE
:104EB000001048460029DBD0484632461378002BC4
:104EC000D6D09942D4D110F8011F01320029F5D172
:104ED000CEE74BF60600C0F2000001F001FF40F201
:104EE000E84040F2EC45C2F20000C2F20005006862
:104EF0002968884211D24BF62104A0F10C06C0F2B9
:104F0000000400BF56F80C1F2046726801F0E8FE4E
:104F1000286806F10C018142F4D34BF64C10C0F224
:104F2000000001F0DDFEBDE8F0874FF0000900252C
:104F3000B9F1000F08BFBDE8F087204649462A4670
:104F400004F07CF8BDE8F08725730A002DE9F04FE6
:104F50008BB059B10C4683469BF80000202818BF3F
:104F6000092807D1013C0BF1010BF5D100200BB052
:104F7000BDE8F08F002603E0B44200F0BA800136AD
:104F80001BF80600092818BF2028F5D1002E00F0D4
:104F9000B48040F2E840C2F20000076840F2EC4002
:104FA000C2F20000056800E00C37AF420ED2D7F81D
:104FB0000080594640463246FBF72EFA0028F3D1CE
:104FC00018F806000028EFD1B86800E0002000289B
:104FD0004FF0000800F093800DF10409009048465E
:104FE0000021282201F0BEFF4FF0000A002359469D
:104FF00002E000BFA3426DD225460A461846A342EE
:1050000088BF1D461178202918BF092907D185427C
:1050100004D002F8018B0130F4E700BF2846BAF152
:105020000A0F44D2A04255D222291DD1511C49F861
:105030002A105678431C03E011F8016F184601331B
:10504000A3424FF0000238BF0122222E22D0A342F9
:1050500020D25C2EF0D10A4612F8017F222F04BF25
:105060001146831CE8E700BF234649F82A20A042E6
:1050700088BF0346191A0AF1010A1144C51A00260D
:10508000975D092F18BF202F0CD0AF190CD0013617
:10509000F6E700BF0AF1010AE2B101F8018B831CB7
:1050A000A8E700BF91198319A342A3D312E01FA060
:1050B00001F016FE002425A559F82410284601F019
:1050C0000FFE0134A245F7D14BF64C10C0F20000A0
:1050D00001F006FEBAF1000F0FD0009A01A9504668
:1050E00090474FF00108B8F1000F0BD00BB0BDE8AE
:1050F000F08F2646002E7FF44CAF4FF00008B8F139
:10510000000FF3D1584600BF017841F0200120295B
:1051100001D00130F8E7002101700DA0594601F0DF
:10512000DFFD4FF0FF300BB0BDE8F08F546F6F2004
:105130006D616E7920617267732021205765206F41
:105140006E6C79205573653A0A00000025732000C3
:1051500025733A20636F6D6D616E64206E6F7420ED
:10516000666F756E642E0A0070B54BF60600C0F2CD
:10517000000001F0B5FD40F2E84040F2EC45C2F21B
:105180000000C2F2000500682968884211D24BF67F
:105190002104A0F10C06C0F2000400BF56F80C1F59
:1051A0002046726801F09CFD286806F10C018142DE
:1051B000F4D34BF64C10C0F2000001F091FD00203A
:1051C00070BD0000B0B5C8B104460078B0B12D285C
:1051D00014BF2B2801342578002D04BF0120B0BD59
:1051E000FBF7BCF80068611C425D202A06D111F86B
:1051F000015B002D04BF0120B0BDF5E70020B0BD6C
:10520000B0B50546806A0C46884207D94CF25C016D
:105210001DA0C0F20001822200F046F9E86AA04217
:1052200007D84CF25C0121A0C0F20001832200F0FB
:105230003BF9A86A61680144A14211D00A78D207FB
:105240000ED1EA6A91420BD02A6B8A4208BF2C63C6
:105250004B68002263600A604968221A01448A6030
:10526000A1684218A24208BFB0BD1378DB070AD17B
:105270002B6BA34208BF2A636368002553606268F2
:10528000256010448160B0BD2872745F75696E74CA
:10529000385F74202A296D656D203E3D206D2D3EBE
:1052A000686561705F707472000000002872745F3E
:1052B00075696E74385F74202A296D656D203C20F5
:1052C0002872745F75696E74385F74202A296D2D99
:1052D0003E686561705F656E640000002DE9F04F07
:1052E00088B0DDF84CA00FF2AC1B5FEA4A6764A7F8
:1052F00058BFBB465FEACA6748BF2AF0010A5FEAA7
:10530000CA774FF0300708BF202701975FEA8A77F6
:1053100005D40027029700270126009712E0B2F17A
:10532000FF3F07DD5FEA4A7707D45FEA0A77F0D5E7
:10533000202703E052422D2700E02B27009700266C
:1053400001270297DDF848C0039602B34CF6CD4E14
:105350000025CCF6CC4E0DF1100900BFA2FB0E6764
:1053600002F00F04FE0806EB86060A2B08BFA2EB2C
:1053700046041BF804404FEA121205F1010808BF69
:10538000FA0809F80540002A4546E7D104E0302232
:105390008DF810204FF00108119AE0456346C8BF10
:1053A00043461AF0110FA2EB030202D0039FB7B1DC
:1053B0001BE00027002AC8BF0127029E3740D21BEE
:1053C000012A58DB039F2025884238BF0570013A27
:1053D000002A00F10100F7DC4FF0FF322FB98842BC
:1053E0003CBF009F0770013A01305FEACA6702D5EF
:1053F000E04513DB1CE0012A0DDB019F884238BF2A
:105400000770013A002A00F10100F7DC4FF0FF328B
:10541000E04503DB0CE0013AE04509DA302700BF44
:10542000884238BF0770013B984500F10100F7DB67
:10543000BCF1000F0FD004AB013B00BF88423CBF62
:1054400013F808700770BCF1000F00F1010002D0E2
:10545000B8F10108F2DC012A0ADB0132202300BF87
:10546000884238BF0370013A012A00F10100F7DCDD
:1054700008B0BDE8F08F039F013A002FAFD0B4E72A
:1054800030313233343536373839616263646566BA
:10549000000000003031323334353637383941427C
:1054A000434445460000000080B582B09446002287
:1054B0008DF8072040F6A002C2F2000213680A46E7
:1054C000014623B108461146624698470AE04BF66A
:1054D0007A50C0F20000634601F002FC9DF807001C
:1054E0000028FBD002B080BDB0B501FB00F420461F
:1054F00001F026FC054620B128460021224601F095
:1055000031FD2846B0BD0000B0B5044638B94BF2B5
:10551000A820C0F200000FA17F22FFF7C5FF20687E
:10552000012808BFB0BDFAF7F9FD0121216054F848
:10553000041F0546A14209D02068143804F084F8FD
:105540002846FAF7EFFD02F025F9B0BD2846FAF734
:10555000E9FDB0BD72745F636F6D706C6574696FE7
:105560006E5F646F6E65000010B5044638B94BF28B
:10557000A820C0F2000007A11B22FFF795FFFAF751
:10558000CDFD0021221DC4E90012A260FAF7CAFD78
:1055900010BD00BF72745F636F6D706C6574696F6E
:1055A0006E5F696E697400002DE9F04182B00446B7
:1055B000019150B94BF2A8204BF2BE21C0F200007D
:1055C000C0F200013A22FFF76FFF019800284DD08A
:1055D000FAF7A4FD804600F0FFF878B14BF2BE2642
:1055E000C0F2000648A0314601F07AFB4BF6487045
:1055F000C0F2000031463D22FFF756FFFAF78EFD5C
:10560000064604F06DF878B94BF2BE27C0F20007E9
:1056100048A0394601F064FB4BF64870C0F2000028
:1056200039463D22FFF740FFFAF778FD074601F0C3
:1056300033FB90B14BF2BE254BF25220C0F2000575
:10564000C0F20000294601F04BFB4BF64870C0F257
:10565000000029463D22FFF727FF3846FAF762FD92
:105660003046FAF75FFD4046FAF75CFD04F038F883
:105670000646FAF753FD2168054601294FF0000858
:1056800001D1002633E0274657F8040FB8420AD06C
:105690004BF279204BF2BE21C0F20000C0F20001B3
:1056A0004622FFF701FF019820B300203063304607
:1056B00004F0C0F8A06806F114010160B06101981F
:1056C000A1600128776109DB06F14C0701AA384681
:1056D000002104F0E7F9384604F0F6FA2846FAF714
:1056E00021FD02F057F8366BFAF718FD0546C4F8AD
:1056F000008001E06FF001062846FAF713FD3046FE
:1057000002B0BDE8F08100BF46756E6374696F6ECC
:105710005B25735D3A207363686564756C65722000
:105720006973206E6F7420617661696C61626C656B
:105730000A00000046756E6374696F6E5B25735DC9
:10574000207368616C6C206E6F74206265207573C5
:105750006564206265666F72652073636865647551
:105760006C65722073746172740A0000B0B54CF2FB
:1057700070444CF26840C0F20004C0F20000A04245
:1057800028BFB0BD4CF26845C0F2000555F8040BC7
:105790008047A542FAD3B0BD40F28040C2F200007B
:1057A0000068704770B540F28046C2F20006346867
:1057B00000F0FAFBA04204BF002070BD054648B1CE
:1057C0003068002818BF00F0B5FB2846432100F0E0
:1057D000F1FB3560204670BD40F66410C2F2000057
:1057E0000088704710B5044658B94BF252304BF25E
:1057F000D431C0F20000C0F200014FF4DF72FFF7B5
:1058000053FE206840F60E61CBF6AD6188420BD0A6
:105810004BF232304BF2D431C0F20000C0F2000142
:1058200040F2BF12FFF740FE204600F023FBFAF7DC
:1058300075FC00212160FAF775FCE06800F020FD9E
:10584000002010BDF0B581B01D46174604460E4637
:10585000F8B15EB340F60E60CBF6AD6020604FF459
:105860000040A06004F1100004F11801C4E9040034
:10587000F000A680E780C4E90611256201F060FA15
:1058800001460020002908BF6FF00400E16001B06C
:10589000F0BD4BF252304BF2C131C0F20000C0F209
:1058A00000012F22FFF700FE002ED3D14BF2C131B1
:1058B00003A0C0F200013022FFF7F6FDCAE700BFE7
:1058C00073697A65203E20300000000070B51446F0
:1058D00005460E4658B94BF252304BF27631C0F2C3
:1058E0000000C0F2000140F24F12FFF7DDFD286812
:1058F00040F60E61CBF6AD6188420BD04BF23230F0
:105900004BF27631C0F20000C0F200014FF4A872F1
:10591000FFF7CAFDB5F90800002844BF6FF0030087
:1059200070BDFAF7FBFB2989EA686FF3DF3152F8A3
:10593000311031602989EA686FF3DF3102EBC10170
:1059400049682160FAF7EEFB002070BD2DE9F04FA9
:1059500083B014460D468246029350B94BF2523042
:105960004BF29B31C0F20000C0F20001D722FFF7DA
:105970009BFDDAF8000040F60E61CBF6AD6188427F
:1059800040F09D80002D00F0A880002C00F0B08039
:105990000298CDE90054002853D0FAF7BFFB074620
:1059A000FFF71AFF90B14BF29B344BF2D120C0F2BB
:1059B0000004C0F20000214601F092F94BF6487055
:1059C000C0F200002146DD22FFF76EFDFAF7A6FBCC
:1059D000054603F085FE90B94BF29B344BF2FB2059
:1059E000C0F20004C0F20000214601F079F94BF644
:1059F0004870C0F200002146DD22FFF755FDFAF79E
:105A00008DFB044601F048F990B14BF29B364BF206
:105A10005220C0F20006C0F20000314601F060F9E9
:105A20004BF64870C0F200003146DD22FFF73CFD26
:105A30002046FAF777FB2846FAF774FB3846FAF760
:105A400071FB03F04DFE0546FAF768FB07460AF1C5
:105A5000180805F1140905F14C064FF0000B0BE096
:105A60003846FAF75FFB01F095FE2C6BFAF756FB10
:105A7000002C074640F0BA80BAF90800B0F1FF3FA9
:105A80003FDC0298002800F0A7802846C5F830B017
:105A900003F0D0FEDAF81C00C0F80090A86102986C
:105AA000CAF81C900128C5F81480D9DB30460021C3
:105AB00002AA03F0F7FF304604F006F9D0E74BF2F4
:105AC00032304BF29B31C0F20000C0F20001D8220C
:105AD000FFF7EAFC002D7FF458AF4BF29B3158A042
